{
  "address": "0xa68dd85801A99b54321900f63dc0d698C50E73e8",
  "abi": [
    {
      "inputs": [
        {
          "internalType": "address",
          "name": "recipient",
          "type": "address"
        },
        {
          "internalType": "uint256",
          "name": "value",
          "type": "uint256"
        }
      ],
      "name": "CurrencyTransferLibFailedNativeTransfer",
      "type": "error"
    },
    {
      "inputs": [
        {
          "internalType": "uint256",
          "name": "tokenId",
          "type": "uint256"
        }
      ],
      "name": "NFTMetadataFrozen",
      "type": "error"
    },
    {
      "inputs": [],
      "name": "NFTMetadataInvalidUrl",
      "type": "error"
    },
    {
      "inputs": [],
      "name": "NFTMetadataUnauthorized",
      "type": "error"
    },
    {
      "anonymous": false,
      "inputs": [
        {
          "indexed": true,
          "internalType": "address",
          "name": "owner",
          "type": "address"
        },
        {
          "indexed": true,
          "internalType": "address",
          "name": "approved",
          "type": "address"
        },
        {
          "indexed": true,
          "internalType": "uint256",
          "name": "tokenId",
          "type": "uint256"
        }
      ],
      "name": "Approval",
      "type": "event"
    },
    {
      "anonymous": false,
      "inputs": [
        {
          "indexed": true,
          "internalType": "address",
          "name": "owner",
          "type": "address"
        },
        {
          "indexed": true,
          "internalType": "address",
          "name": "operator",
          "type": "address"
        },
        {
          "indexed": false,
          "internalType": "bool",
          "name": "approved",
          "type": "bool"
        }
      ],
      "name": "ApprovalForAll",
      "type": "event"
    },
    {
      "anonymous": false,
      "inputs": [
        {
          "indexed": false,
          "internalType": "uint256",
          "name": "_fromTokenId",
          "type": "uint256"
        },
        {
          "indexed": false,
          "internalType": "uint256",
          "name": "_toTokenId",
          "type": "uint256"
        }
      ],
      "name": "BatchMetadataUpdate",
      "type": "event"
    },
    {
      "anonymous": false,
      "inputs": [
        {
          "indexed": true,
          "internalType": "address",
          "name": "newRoyaltyRecipient",
          "type": "address"
        },
        {
          "indexed": false,
          "internalType": "uint256",
          "name": "newRoyaltyBps",
          "type": "uint256"
        }
      ],
      "name": "DefaultRoyalty",
      "type": "event"
    },
    {
      "anonymous": false,
      "inputs": [],
      "name": "EIP712DomainChanged",
      "type": "event"
    },
    {
      "anonymous": false,
      "inputs": [
        {
          "indexed": false,
          "internalType": "address",
          "name": "platformFeeRecipient",
          "type": "address"
        },
        {
          "indexed": false,
          "internalType": "uint256",
          "name": "flatFee",
          "type": "uint256"
        }
      ],
      "name": "FlatPlatformFeeUpdated",
      "type": "event"
    },
    {
      "anonymous": false,
      "inputs": [
        {
          "indexed": false,
          "internalType": "uint8",
          "name": "version",
          "type": "uint8"
        }
      ],
      "name": "Initialized",
      "type": "event"
    },
    {
      "anonymous": false,
      "inputs": [],
      "name": "MetadataFrozen",
      "type": "event"
    },
    {
      "anonymous": false,
      "inputs": [
        {
          "indexed": false,
          "internalType": "uint256",
          "name": "_tokenId",
          "type": "uint256"
        }
      ],
      "name": "MetadataUpdate",
      "type": "event"
    },
    {
      "anonymous": false,
      "inputs": [
        {
          "indexed": true,
          "internalType": "address",
          "name": "prevOwner",
          "type": "address"
        },
        {
          "indexed": true,
          "internalType": "address",
          "name": "newOwner",
          "type": "address"
        }
      ],
      "name": "OwnerUpdated",
      "type": "event"
    },
    {
      "anonymous": false,
      "inputs": [
        {
          "indexed": true,
          "internalType": "address",
          "name": "platformFeeRecipient",
          "type": "address"
        },
        {
          "indexed": false,
          "internalType": "uint256",
          "name": "platformFeeBps",
          "type": "uint256"
        }
      ],
      "name": "PlatformFeeInfoUpdated",
      "type": "event"
    },
    {
      "anonymous": false,
      "inputs": [
        {
          "indexed": false,
          "internalType": "enum IPlatformFee.PlatformFeeType",
          "name": "feeType",
          "type": "uint8"
        }
      ],
      "name": "PlatformFeeTypeUpdated",
      "type": "event"
    },
    {
      "anonymous": false,
      "inputs": [
        {
          "indexed": true,
          "internalType": "address",
          "name": "recipient",
          "type": "address"
        }
      ],
      "name": "PrimarySaleRecipientUpdated",
      "type": "event"
    },
    {
      "anonymous": false,
      "inputs": [
        {
          "indexed": true,
          "internalType": "bytes32",
          "name": "role",
          "type": "bytes32"
        },
        {
          "indexed": true,
          "internalType": "bytes32",
          "name": "previousAdminRole",
          "type": "bytes32"
        },
        {
          "indexed": true,
          "internalType": "bytes32",
          "name": "newAdminRole",
          "type": "bytes32"
        }
      ],
      "name": "RoleAdminChanged",
      "type": "event"
    },
    {
      "anonymous": false,
      "inputs": [
        {
          "indexed": true,
          "internalType": "bytes32",
          "name": "role",
          "type": "bytes32"
        },
        {
          "indexed": true,
          "internalType": "address",
          "name": "account",
          "type": "address"
        },
        {
          "indexed": true,
          "internalType": "address",
          "name": "sender",
          "type": "address"
        }
      ],
      "name": "RoleGranted",
      "type": "event"
    },
    {
      "anonymous": false,
      "inputs": [
        {
          "indexed": true,
          "internalType": "bytes32",
          "name": "role",
          "type": "bytes32"
        },
        {
          "indexed": true,
          "internalType": "address",
          "name": "account",
          "type": "address"
        },
        {
          "indexed": true,
          "internalType": "address",
          "name": "sender",
          "type": "address"
        }
      ],
      "name": "RoleRevoked",
      "type": "event"
    },
    {
      "anonymous": false,
      "inputs": [
        {
          "indexed": true,
          "internalType": "uint256",
          "name": "tokenId",
          "type": "uint256"
        },
        {
          "indexed": true,
          "internalType": "address",
          "name": "royaltyRecipient",
          "type": "address"
        },
        {
          "indexed": false,
          "internalType": "uint256",
          "name": "royaltyBps",
          "type": "uint256"
        }
      ],
      "name": "RoyaltyForToken",
      "type": "event"
    },
    {
      "anonymous": false,
      "inputs": [
        {
          "indexed": true,
          "internalType": "address",
          "name": "mintedTo",
          "type": "address"
        },
        {
          "indexed": true,
          "internalType": "uint256",
          "name": "tokenIdMinted",
          "type": "uint256"
        },
        {
          "indexed": false,
          "internalType": "string",
          "name": "uri",
          "type": "string"
        }
      ],
      "name": "TokensMinted",
      "type": "event"
    },
    {
      "anonymous": false,
      "inputs": [
        {
          "indexed": true,
          "internalType": "address",
          "name": "signer",
          "type": "address"
        },
        {
          "indexed": true,
          "internalType": "address",
          "name": "mintedTo",
          "type": "address"
        },
        {
          "indexed": true,
          "internalType": "uint256",
          "name": "tokenIdMinted",
          "type": "uint256"
        },
        {
          "components": [
            {
              "internalType": "address",
              "name": "to",
              "type": "address"
            },
            {
              "internalType": "address",
              "name": "royaltyRecipient",
              "type": "address"
            },
            {
              "internalType": "uint256",
              "name": "royaltyBps",
              "type": "uint256"
            },
            {
              "internalType": "address",
              "name": "primarySaleRecipient",
              "type": "address"
            },
            {
              "internalType": "string",
              "name": "uri",
              "type": "string"
            },
            {
              "internalType": "uint256",
              "name": "price",
              "type": "uint256"
            },
            {
              "internalType": "address",
              "name": "currency",
              "type": "address"
            },
            {
              "internalType": "uint128",
              "name": "validityStartTimestamp",
              "type": "uint128"
            },
            {
              "internalType": "uint128",
              "name": "validityEndTimestamp",
              "type": "uint128"
            },
            {
              "internalType": "bytes32",
              "name": "uid",
              "type": "bytes32"
            },
            {
              "internalType": "bool",
              "name": "secure",
              "type": "bool"
            },
            {
              "internalType": "address",
              "name": "contractAddress",
              "type": "address"
            }
          ],
          "indexed": false,
          "internalType": "struct ISecurityTokenERC721.MintRequest",
          "name": "mintRequest",
          "type": "tuple"
        }
      ],
      "name": "TokensMintedWithSignature",
      "type": "event"
    },
    {
      "anonymous": false,
      "inputs": [
        {
          "indexed": true,
          "internalType": "address",
          "name": "from",
          "type": "address"
        },
        {
          "indexed": true,
          "internalType": "address",
          "name": "to",
          "type": "address"
        },
        {
          "indexed": true,
          "internalType": "uint256",
          "name": "tokenId",
          "type": "uint256"
        }
      ],
      "name": "Transfer",
      "type": "event"
    },
    {
      "inputs": [],
      "name": "DEFAULT_ADMIN_ROLE",
      "outputs": [
        {
          "internalType": "bytes32",
          "name": "",
          "type": "bytes32"
        }
      ],
      "stateMutability": "view",
      "type": "function"
    },
    {
      "inputs": [
        {
          "internalType": "address",
          "name": "to",
          "type": "address"
        },
        {
          "internalType": "uint256",
          "name": "tokenId",
          "type": "uint256"
        }
      ],
      "name": "approve",
      "outputs": [],
      "stateMutability": "nonpayable",
      "type": "function"
    },
    {
      "inputs": [
        {
          "internalType": "address",
          "name": "owner",
          "type": "address"
        }
      ],
      "name": "balanceOf",
      "outputs": [
        {
          "internalType": "uint256",
          "name": "",
          "type": "uint256"
        }
      ],
      "stateMutability": "view",
      "type": "function"
    },
    {
      "inputs": [
        {
          "internalType": "uint256",
          "name": "tokenId",
          "type": "uint256"
        }
      ],
      "name": "burn",
      "outputs": [],
      "stateMutability": "nonpayable",
      "type": "function"
    },
    {
      "inputs": [
        {
          "internalType": "address",
          "name": "",
          "type": "address"
        }
      ],
      "name": "collection",
      "outputs": [
        {
          "internalType": "string",
          "name": "uri",
          "type": "string"
        },
        {
          "internalType": "uint256",
          "name": "hashBytecode",
          "type": "uint256"
        },
        {
          "internalType": "uint256",
          "name": "hashInitData",
          "type": "uint256"
        },
        {
          "internalType": "bool",
          "name": "secure",
          "type": "bool"
        },
        {
          "internalType": "address",
          "name": "contractAddress",
          "type": "address"
        }
      ],
      "stateMutability": "view",
      "type": "function"
    },
    {
      "inputs": [],
      "name": "contractType",
      "outputs": [
        {
          "internalType": "bytes32",
          "name": "",
          "type": "bytes32"
        }
      ],
      "stateMutability": "pure",
      "type": "function"
    },
    {
      "inputs": [],
      "name": "contractURI",
      "outputs": [
        {
          "internalType": "string",
          "name": "",
          "type": "string"
        }
      ],
      "stateMutability": "view",
      "type": "function"
    },
    {
      "inputs": [],
      "name": "contractVersion",
      "outputs": [
        {
          "internalType": "uint8",
          "name": "",
          "type": "uint8"
        }
      ],
      "stateMutability": "pure",
      "type": "function"
    },
    {
      "inputs": [],
      "name": "eip712Domain",
      "outputs": [
        {
          "internalType": "bytes1",
          "name": "fields",
          "type": "bytes1"
        },
        {
          "internalType": "string",
          "name": "name",
          "type": "string"
        },
        {
          "internalType": "string",
          "name": "version",
          "type": "string"
        },
        {
          "internalType": "uint256",
          "name": "chainId",
          "type": "uint256"
        },
        {
          "internalType": "address",
          "name": "verifyingContract",
          "type": "address"
        },
        {
          "internalType": "bytes32",
          "name": "salt",
          "type": "bytes32"
        },
        {
          "internalType": "uint256[]",
          "name": "extensions",
          "type": "uint256[]"
        }
      ],
      "stateMutability": "view",
      "type": "function"
    },
    {
      "inputs": [],
      "name": "freezeMetadata",
      "outputs": [],
      "stateMutability": "nonpayable",
      "type": "function"
    },
    {
      "inputs": [
        {
          "internalType": "uint256",
          "name": "tokenId",
          "type": "uint256"
        }
      ],
      "name": "getApproved",
      "outputs": [
        {
          "internalType": "address",
          "name": "",
          "type": "address"
        }
      ],
      "stateMutability": "view",
      "type": "function"
    },
    {
      "inputs": [],
      "name": "getDefaultRoyaltyInfo",
      "outputs": [
        {
          "internalType": "address",
          "name": "",
          "type": "address"
        },
        {
          "internalType": "uint16",
          "name": "",
          "type": "uint16"
        }
      ],
      "stateMutability": "view",
      "type": "function"
    },
    {
      "inputs": [],
      "name": "getPlatformFeeInfo",
      "outputs": [
        {
          "internalType": "address",
          "name": "",
          "type": "address"
        },
        {
          "internalType": "uint16",
          "name": "",
          "type": "uint16"
        }
      ],
      "stateMutability": "view",
      "type": "function"
    },
    {
      "inputs": [
        {
          "internalType": "bytes32",
          "name": "role",
          "type": "bytes32"
        }
      ],
      "name": "getRoleAdmin",
      "outputs": [
        {
          "internalType": "bytes32",
          "name": "",
          "type": "bytes32"
        }
      ],
      "stateMutability": "view",
      "type": "function"
    },
    {
      "inputs": [
        {
          "internalType": "bytes32",
          "name": "role",
          "type": "bytes32"
        },
        {
          "internalType": "uint256",
          "name": "index",
          "type": "uint256"
        }
      ],
      "name": "getRoleMember",
      "outputs": [
        {
          "internalType": "address",
          "name": "",
          "type": "address"
        }
      ],
      "stateMutability": "view",
      "type": "function"
    },
    {
      "inputs": [
        {
          "internalType": "bytes32",
          "name": "role",
          "type": "bytes32"
        }
      ],
      "name": "getRoleMemberCount",
      "outputs": [
        {
          "internalType": "uint256",
          "name": "",
          "type": "uint256"
        }
      ],
      "stateMutability": "view",
      "type": "function"
    },
    {
      "inputs": [
        {
          "internalType": "uint256",
          "name": "_tokenId",
          "type": "uint256"
        }
      ],
      "name": "getRoyaltyInfoForToken",
      "outputs": [
        {
          "internalType": "address",
          "name": "",
          "type": "address"
        },
        {
          "internalType": "uint16",
          "name": "",
          "type": "uint16"
        }
      ],
      "stateMutability": "view",
      "type": "function"
    },
    {
      "inputs": [
        {
          "internalType": "bytes32",
          "name": "role",
          "type": "bytes32"
        },
        {
          "internalType": "address",
          "name": "account",
          "type": "address"
        }
      ],
      "name": "grantRole",
      "outputs": [],
      "stateMutability": "nonpayable",
      "type": "function"
    },
    {
      "inputs": [
        {
          "internalType": "bytes32",
          "name": "role",
          "type": "bytes32"
        },
        {
          "internalType": "address",
          "name": "account",
          "type": "address"
        }
      ],
      "name": "hasRole",
      "outputs": [
        {
          "internalType": "bool",
          "name": "",
          "type": "bool"
        }
      ],
      "stateMutability": "view",
      "type": "function"
    },
    {
      "inputs": [
        {
          "internalType": "address",
          "name": "_defaultAdmin",
          "type": "address"
        },
        {
          "internalType": "string",
          "name": "_name",
          "type": "string"
        },
        {
          "internalType": "string",
          "name": "_symbol",
          "type": "string"
        },
        {
          "internalType": "string",
          "name": "_contractURI",
          "type": "string"
        },
        {
          "internalType": "address[]",
          "name": "_trustedForwarders",
          "type": "address[]"
        },
        {
          "internalType": "address",
          "name": "_saleRecipient",
          "type": "address"
        },
        {
          "internalType": "address",
          "name": "_royaltyRecipient",
          "type": "address"
        },
        {
          "internalType": "uint128",
          "name": "_royaltyBps",
          "type": "uint128"
        },
        {
          "internalType": "uint128",
          "name": "_platformFeeBps",
          "type": "uint128"
        },
        {
          "internalType": "address",
          "name": "_platformFeeRecipient",
          "type": "address"
        }
      ],
      "name": "initialize",
      "outputs": [],
      "stateMutability": "nonpayable",
      "type": "function"
    },
    {
      "inputs": [
        {
          "internalType": "address",
          "name": "owner",
          "type": "address"
        },
        {
          "internalType": "address",
          "name": "operator",
          "type": "address"
        }
      ],
      "name": "isApprovedForAll",
      "outputs": [
        {
          "internalType": "bool",
          "name": "",
          "type": "bool"
        }
      ],
      "stateMutability": "view",
      "type": "function"
    },
    {
      "inputs": [
        {
          "internalType": "address",
          "name": "forwarder",
          "type": "address"
        }
      ],
      "name": "isTrustedForwarder",
      "outputs": [
        {
          "internalType": "bool",
          "name": "",
          "type": "bool"
        }
      ],
      "stateMutability": "view",
      "type": "function"
    },
    {
      "inputs": [
        {
          "internalType": "address",
          "name": "_to",
          "type": "address"
        },
        {
          "internalType": "string",
          "name": "_uri",
          "type": "string"
        },
        {
          "internalType": "bool",
          "name": "_secure",
          "type": "bool"
        },
        {
          "internalType": "address",
          "name": "_contractAddress",
          "type": "address"
        }
      ],
      "name": "mintTo",
      "outputs": [
        {
          "internalType": "uint256",
          "name": "",
          "type": "uint256"
        }
      ],
      "stateMutability": "nonpayable",
      "type": "function"
    },
    {
      "inputs": [
        {
          "components": [
            {
              "internalType": "address",
              "name": "to",
              "type": "address"
            },
            {
              "internalType": "address",
              "name": "royaltyRecipient",
              "type": "address"
            },
            {
              "internalType": "uint256",
              "name": "royaltyBps",
              "type": "uint256"
            },
            {
              "internalType": "address",
              "name": "primarySaleRecipient",
              "type": "address"
            },
            {
              "internalType": "string",
              "name": "uri",
              "type": "string"
            },
            {
              "internalType": "uint256",
              "name": "price",
              "type": "uint256"
            },
            {
              "internalType": "address",
              "name": "currency",
              "type": "address"
            },
            {
              "internalType": "uint128",
              "name": "validityStartTimestamp",
              "type": "uint128"
            },
            {
              "internalType": "uint128",
              "name": "validityEndTimestamp",
              "type": "uint128"
            },
            {
              "internalType": "bytes32",
              "name": "uid",
              "type": "bytes32"
            },
            {
              "internalType": "bool",
              "name": "secure",
              "type": "bool"
            },
            {
              "internalType": "address",
              "name": "contractAddress",
              "type": "address"
            }
          ],
          "internalType": "struct ISecurityTokenERC721.MintRequest",
          "name": "_req",
          "type": "tuple"
        },
        {
          "internalType": "bytes",
          "name": "_signature",
          "type": "bytes"
        }
      ],
      "name": "mintWithSignature",
      "outputs": [
        {
          "internalType": "uint256",
          "name": "tokenIdMinted",
          "type": "uint256"
        }
      ],
      "stateMutability": "payable",
      "type": "function"
    },
    {
      "inputs": [
        {
          "internalType": "bytes[]",
          "name": "data",
          "type": "bytes[]"
        }
      ],
      "name": "multicall",
      "outputs": [
        {
          "internalType": "bytes[]",
          "name": "results",
          "type": "bytes[]"
        }
      ],
      "stateMutability": "nonpayable",
      "type": "function"
    },
    {
      "inputs": [],
      "name": "name",
      "outputs": [
        {
          "internalType": "string",
          "name": "",
          "type": "string"
        }
      ],
      "stateMutability": "view",
      "type": "function"
    },
    {
      "inputs": [],
      "name": "nextTokenIdToMint",
      "outputs": [
        {
          "internalType": "uint256",
          "name": "",
          "type": "uint256"
        }
      ],
      "stateMutability": "view",
      "type": "function"
    },
    {
      "inputs": [],
      "name": "owner",
      "outputs": [
        {
          "internalType": "address",
          "name": "",
          "type": "address"
        }
      ],
      "stateMutability": "view",
      "type": "function"
    },
    {
      "inputs": [
        {
          "internalType": "uint256",
          "name": "tokenId",
          "type": "uint256"
        }
      ],
      "name": "ownerOf",
      "outputs": [
        {
          "internalType": "address",
          "name": "",
          "type": "address"
        }
      ],
      "stateMutability": "view",
      "type": "function"
    },
    {
      "inputs": [],
      "name": "platformFeeRecipient",
      "outputs": [
        {
          "internalType": "address",
          "name": "",
          "type": "address"
        }
      ],
      "stateMutability": "view",
      "type": "function"
    },
    {
      "inputs": [],
      "name": "primarySaleRecipient",
      "outputs": [
        {
          "internalType": "address",
          "name": "",
          "type": "address"
        }
      ],
      "stateMutability": "view",
      "type": "function"
    },
    {
      "inputs": [
        {
          "internalType": "bytes32",
          "name": "role",
          "type": "bytes32"
        },
        {
          "internalType": "address",
          "name": "account",
          "type": "address"
        }
      ],
      "name": "renounceRole",
      "outputs": [],
      "stateMutability": "nonpayable",
      "type": "function"
    },
    {
      "inputs": [
        {
          "internalType": "bytes32",
          "name": "role",
          "type": "bytes32"
        },
        {
          "internalType": "address",
          "name": "account",
          "type": "address"
        }
      ],
      "name": "revokeRole",
      "outputs": [],
      "stateMutability": "nonpayable",
      "type": "function"
    },
    {
      "inputs": [
        {
          "internalType": "uint256",
          "name": "tokenId",
          "type": "uint256"
        },
        {
          "internalType": "uint256",
          "name": "salePrice",
          "type": "uint256"
        }
      ],
      "name": "royaltyInfo",
      "outputs": [
        {
          "internalType": "address",
          "name": "receiver",
          "type": "address"
        },
        {
          "internalType": "uint256",
          "name": "royaltyAmount",
          "type": "uint256"
        }
      ],
      "stateMutability": "view",
      "type": "function"
    },
    {
      "inputs": [
        {
          "internalType": "address",
          "name": "from",
          "type": "address"
        },
        {
          "internalType": "address",
          "name": "to",
          "type": "address"
        },
        {
          "internalType": "uint256",
          "name": "tokenId",
          "type": "uint256"
        }
      ],
      "name": "safeTransferFrom",
      "outputs": [],
      "stateMutability": "nonpayable",
      "type": "function"
    },
    {
      "inputs": [
        {
          "internalType": "address",
          "name": "from",
          "type": "address"
        },
        {
          "internalType": "address",
          "name": "to",
          "type": "address"
        },
        {
          "internalType": "uint256",
          "name": "tokenId",
          "type": "uint256"
        },
        {
          "internalType": "bytes",
          "name": "data",
          "type": "bytes"
        }
      ],
      "name": "safeTransferFrom",
      "outputs": [],
      "stateMutability": "nonpayable",
      "type": "function"
    },
    {
      "inputs": [
        {
          "internalType": "address",
          "name": "operator",
          "type": "address"
        },
        {
          "internalType": "bool",
          "name": "approved",
          "type": "bool"
        }
      ],
      "name": "setApprovalForAll",
      "outputs": [],
      "stateMutability": "nonpayable",
      "type": "function"
    },
    {
      "inputs": [
        {
          "internalType": "string",
          "name": "_uri",
          "type": "string"
        }
      ],
      "name": "setContractURI",
      "outputs": [],
      "stateMutability": "nonpayable",
      "type": "function"
    },
    {
      "inputs": [
        {
          "internalType": "address",
          "name": "_royaltyRecipient",
          "type": "address"
        },
        {
          "internalType": "uint256",
          "name": "_royaltyBps",
          "type": "uint256"
        }
      ],
      "name": "setDefaultRoyaltyInfo",
      "outputs": [],
      "stateMutability": "nonpayable",
      "type": "function"
    },
    {
      "inputs": [
        {
          "internalType": "address",
          "name": "_newOwner",
          "type": "address"
        }
      ],
      "name": "setOwner",
      "outputs": [],
      "stateMutability": "nonpayable",
      "type": "function"
    },
    {
      "inputs": [
        {
          "internalType": "address",
          "name": "_platformFeeRecipient",
          "type": "address"
        },
        {
          "internalType": "uint256",
          "name": "_platformFeeBps",
          "type": "uint256"
        }
      ],
      "name": "setPlatformFeeInfo",
      "outputs": [],
      "stateMutability": "nonpayable",
      "type": "function"
    },
    {
      "inputs": [
        {
          "internalType": "address",
          "name": "_saleRecipient",
          "type": "address"
        }
      ],
      "name": "setPrimarySaleRecipient",
      "outputs": [],
      "stateMutability": "nonpayable",
      "type": "function"
    },
    {
      "inputs": [
        {
          "internalType": "uint256",
          "name": "_tokenId",
          "type": "uint256"
        },
        {
          "internalType": "address",
          "name": "_recipient",
          "type": "address"
        },
        {
          "internalType": "uint256",
          "name": "_bps",
          "type": "uint256"
        }
      ],
      "name": "setRoyaltyInfoForToken",
      "outputs": [],
      "stateMutability": "nonpayable",
      "type": "function"
    },
    {
      "inputs": [
        {
          "internalType": "uint256",
          "name": "_tokenId",
          "type": "uint256"
        },
        {
          "internalType": "string",
          "name": "_uri",
          "type": "string"
        }
      ],
      "name": "setTokenURI",
      "outputs": [],
      "stateMutability": "nonpayable",
      "type": "function"
    },
    {
      "inputs": [
        {
          "internalType": "bytes4",
          "name": "interfaceId",
          "type": "bytes4"
        }
      ],
      "name": "supportsInterface",
      "outputs": [
        {
          "internalType": "bool",
          "name": "",
          "type": "bool"
        }
      ],
      "stateMutability": "view",
      "type": "function"
    },
    {
      "inputs": [],
      "name": "symbol",
      "outputs": [
        {
          "internalType": "string",
          "name": "",
          "type": "string"
        }
      ],
      "stateMutability": "view",
      "type": "function"
    },
    {
      "inputs": [
        {
          "internalType": "uint256",
          "name": "index",
          "type": "uint256"
        }
      ],
      "name": "tokenByIndex",
      "outputs": [
        {
          "internalType": "uint256",
          "name": "",
          "type": "uint256"
        }
      ],
      "stateMutability": "view",
      "type": "function"
    },
    {
      "inputs": [
        {
          "internalType": "address",
          "name": "owner",
          "type": "address"
        },
        {
          "internalType": "uint256",
          "name": "index",
          "type": "uint256"
        }
      ],
      "name": "tokenOfOwnerByIndex",
      "outputs": [
        {
          "internalType": "uint256",
          "name": "",
          "type": "uint256"
        }
      ],
      "stateMutability": "view",
      "type": "function"
    },
    {
      "inputs": [
        {
          "internalType": "uint256",
          "name": "_tokenId",
          "type": "uint256"
        }
      ],
      "name": "tokenURI",
      "outputs": [
        {
          "internalType": "string",
          "name": "",
          "type": "string"
        }
      ],
      "stateMutability": "view",
      "type": "function"
    },
    {
      "inputs": [],
      "name": "totalSupply",
      "outputs": [
        {
          "internalType": "uint256",
          "name": "",
          "type": "uint256"
        }
      ],
      "stateMutability": "view",
      "type": "function"
    },
    {
      "inputs": [
        {
          "internalType": "address",
          "name": "from",
          "type": "address"
        },
        {
          "internalType": "address",
          "name": "to",
          "type": "address"
        },
        {
          "internalType": "uint256",
          "name": "tokenId",
          "type": "uint256"
        }
      ],
      "name": "transferFrom",
      "outputs": [],
      "stateMutability": "nonpayable",
      "type": "function"
    },
    {
      "inputs": [
        {
          "internalType": "address",
          "name": "_contractAddress",
          "type": "address"
        },
        {
          "internalType": "bool",
          "name": "_secure",
          "type": "bool"
        }
      ],
      "name": "updateSecureField",
      "outputs": [],
      "stateMutability": "nonpayable",
      "type": "function"
    },
    {
      "inputs": [],
      "name": "uriFrozen",
      "outputs": [
        {
          "internalType": "bool",
          "name": "",
          "type": "bool"
        }
      ],
      "stateMutability": "view",
      "type": "function"
    },
    {
      "inputs": [
        {
          "components": [
            {
              "internalType": "address",
              "name": "to",
              "type": "address"
            },
            {
              "internalType": "address",
              "name": "royaltyRecipient",
              "type": "address"
            },
            {
              "internalType": "uint256",
              "name": "royaltyBps",
              "type": "uint256"
            },
            {
              "internalType": "address",
              "name": "primarySaleRecipient",
              "type": "address"
            },
            {
              "internalType": "string",
              "name": "uri",
              "type": "string"
            },
            {
              "internalType": "uint256",
              "name": "price",
              "type": "uint256"
            },
            {
              "internalType": "address",
              "name": "currency",
              "type": "address"
            },
            {
              "internalType": "uint128",
              "name": "validityStartTimestamp",
              "type": "uint128"
            },
            {
              "internalType": "uint128",
              "name": "validityEndTimestamp",
              "type": "uint128"
            },
            {
              "internalType": "bytes32",
              "name": "uid",
              "type": "bytes32"
            },
            {
              "internalType": "bool",
              "name": "secure",
              "type": "bool"
            },
            {
              "internalType": "address",
              "name": "contractAddress",
              "type": "address"
            }
          ],
          "internalType": "struct ISecurityTokenERC721.MintRequest",
          "name": "_req",
          "type": "tuple"
        },
        {
          "internalType": "bytes",
          "name": "_signature",
          "type": "bytes"
        }
      ],
      "name": "verify",
      "outputs": [
        {
          "internalType": "bool",
          "name": "",
          "type": "bool"
        },
        {
          "internalType": "address",
          "name": "",
          "type": "address"
        }
      ],
      "stateMutability": "view",
      "type": "function"
    },
    {
      "inputs": [
        {
          "internalType": "address",
          "name": "_contractAddress",
          "type": "address"
        }
      ],
      "name": "verifyTokenAtAddress",
      "outputs": [
        {
          "internalType": "bool",
          "name": "",
          "type": "bool"
        }
      ],
      "stateMutability": "view",
      "type": "function"
    }
  ],
  "transactionHash": "0x296582a1fa14763f1033c8a8a3da76e44b158564c485545c074b4f0f1b9ae951",
  "args": [],
  "numDeployments": 1,
  "solcInputHash": "c9bc68527e89044f55e3463153ac1041",
  "bytecode": "0x608060405234801561001057600080fd5b50615383806100206000396000f3fe6080604052600436106102e05760003560e01c80636f4f283711610186578063b24f2d39116100d7578063d45573f611610085578063d45573f614610970578063d547741f146109a6578063e1591634146109c6578063e8a3d485146109e6578063e94886d2146109fb578063e985e9c514610a2c578063eb13554f14610a4c57600080fd5b8063b24f2d3914610888578063b507c016146108b7578063b88d4fde146108d7578063c87b56dd146108f7578063ca15c87314610917578063cb2ef6f714610937578063d111515d1461095b57600080fd5b806395d89b411161013457806395d89b41146107965780639bcf7a15146107ab578063a0a8e460146107cb578063a217fddf146107e7578063a22cb465146107fc578063aaa3017a1461081c578063ac9650d81461085b57600080fd5b80636f4f2837146106b957806370a08231146106d957806384b0196e146106f95780638da5cb5b146107215780639010d07c1461073657806391d1485414610756578063938e3d7b1461077657600080fd5b8063274e4a1d1161024057806342966c68116101ee57806342966c681461059e5780634cc157df146105be5780634f6ccce71461060057806355eea18814610620578063572b6c0514610640578063600dd5ea146106795780636352211e1461069957600080fd5b8063274e4a1d146104be5780632a55205a146104d95780632f2ff15d146105075780632f745c591461052757806336568abe146105475780633b1475a71461056757806342842e0e1461057e57600080fd5b8063162094c41161029d578063162094c4146103d7578063164cb856146103f7578063166c10661461041757806318160ddd146104385780631e7ac4881461044e57806323b872dd1461046e578063248a9ca31461048e57600080fd5b806301ffc9a7146102e557806306fdde031461031a578063079fe40e1461033c578063081812fc14610375578063095ea7b31461039557806313af4035146103b7575b600080fd5b3480156102f157600080fd5b50610305610300366004614376565b610a6d565b60405190151581526020015b60405180910390f35b34801561032657600080fd5b5061032f610a99565b60405161031191906143eb565b34801561034857600080fd5b506101ca5461035d906001600160a01b031681565b6040516001600160a01b039091168152602001610311565b34801561038157600080fd5b5061035d6103903660046143fe565b610b2c565b3480156103a157600080fd5b506103b56103b0366004614433565b610b54565b005b3480156103c357600080fd5b506103b56103d236600461445d565b610c81565b3480156103e357600080fd5b506103b56103f2366004614535565b610d37565b34801561040357600080fd5b5061030561041236600461445d565b610d92565b61042a6104253660046145bc565b610de5565b604051908152602001610311565b34801561044457600080fd5b506101955461042a565b34801561045a57600080fd5b506103b5610469366004614433565b610f1f565b34801561047a57600080fd5b506103b561048936600461462d565b610fc5565b34801561049a57600080fd5b5061042a6104a93660046143fe565b600090815260fd602052604090206001015490565b3480156104ca57600080fd5b506101c5546103059060ff1681565b3480156104e557600080fd5b506104f96104f4366004614669565b610ffd565b60405161031192919061468b565b34801561051357600080fd5b506103b56105223660046146a4565b61103a565b34801561053357600080fd5b5061042a610542366004614433565b61105f565b34801561055357600080fd5b506103b56105623660046146a4565b6110f6565b34801561057357600080fd5b5061042a6101c95481565b34801561058a57600080fd5b506103b561059936600461462d565b611180565b3480156105aa57600080fd5b506103b56105b93660046143fe565b61119b565b3480156105ca57600080fd5b506105de6105d93660046143fe565b611217565b604080516001600160a01b03909316835261ffff909116602083015201610311565b34801561060c57600080fd5b5061042a61061b3660046143fe565b611287565b34801561062c57600080fd5b5061042a61063b3660046146e9565b61131c565b34801561064c57600080fd5b5061030561065b36600461445d565b6001600160a01b031660009081526099602052604090205460ff1690565b34801561068557600080fd5b506103b5610694366004614433565b611360565b3480156106a557600080fd5b5061035d6106b43660046143fe565b6113f8565b3480156106c557600080fd5b506103b56106d436600461445d565b61142e565b3480156106e557600080fd5b5061042a6106f436600461445d565b611485565b34801561070557600080fd5b5061070e61150c565b604051610311979695949392919061475f565b34801561072d57600080fd5b5061035d6115aa565b34801561074257600080fd5b5061035d610751366004614669565b6115e2565b34801561076257600080fd5b506103056107713660046146a4565b6115fb565b34801561078257600080fd5b506103b56107913660046147f5565b611626565b3480156107a257600080fd5b5061032f611644565b3480156107b757600080fd5b506103b56107c6366004614836565b611654565b3480156107d757600080fd5b5060405160018152602001610311565b3480156107f357600080fd5b5061042a600081565b34801561080857600080fd5b506103b561081736600461485b565b611708565b34801561082857600080fd5b5061083c6108373660046145bc565b61171a565b6040805192151583526001600160a01b03909116602083015201610311565b34801561086757600080fd5b5061087b610876366004614892565b611771565b6040516103119190614906565b34801561089457600080fd5b506101cc546101cd546001600160a01b03909116906001600160801b03166105de565b3480156108c357600080fd5b506103b56108d236600461485b565b6118f7565b3480156108e357600080fd5b506103b56108f2366004614968565b61196a565b34801561090357600080fd5b5061032f6109123660046143fe565b6119a3565b34801561092357600080fd5b5061042a6109323660046143fe565b611a46565b34801561094357600080fd5b506d455243373231536563757269747960901b61042a565b34801561096757600080fd5b506103b5611a5e565b34801561097c57600080fd5b506101cb546101cd546001600160a01b0390911690600160801b90046001600160801b03166105de565b3480156109b257600080fd5b506103b56109c13660046146a4565b611abc565b3480156109d257600080fd5b506103b56109e1366004614a75565b611ae1565b3480156109f257600080fd5b5061032f611e71565b348015610a0757600080fd5b50610a1b610a1636600461445d565b611f00565b604051610311959493929190614b87565b348015610a3857600080fd5b50610305610a47366004614bc7565b611fc6565b348015610a5857600080fd5b506101cb5461035d906001600160a01b031681565b6000610a7882611ff5565b80610a9357506001600160e01b0319821663152a902d60e11b145b92915050565b60606101618054610aa990614bf1565b80601f0160208091040260200160405190810160405280929190818152602001828054610ad590614bf1565b8015610b225780601f10610af757610100808354040283529160200191610b22565b820191906000526020600020905b815481529060010190602001808311610b0557829003601f168201915b5050505050905090565b6000610b378261201a565b50600090815261016560205260409020546001600160a01b031690565b6000610b5f826113f8565b9050806001600160a01b0316836001600160a01b03161415610bd25760405162461bcd60e51b815260206004820152602160248201527f4552433732313a20617070726f76616c20746f2063757272656e74206f776e656044820152603960f91b60648201526084015b60405180910390fd5b806001600160a01b0316610be461203f565b6001600160a01b03161480610c005750610c0081610a4761203f565b610c725760405162461bcd60e51b815260206004820152603e60248201527f4552433732313a20617070726f76652063616c6c6572206973206e6f7420746f60448201527f6b656e206f776e6572206e6f7220617070726f76656420666f7220616c6c00006064820152608401610bc9565b610c7c8383612049565b505050565b6000610c8c816120b8565b610c976000836115fb565b610ce35760405162461bcd60e51b815260206004820152601b60248201527f6e6577206f776e6572206e6f74206d6f64756c652061646d696e2e00000000006044820152606401610bc9565b6101c880546001600160a01b038481166001600160a01b0319831681179093556040519116919082907f8292fce18fa69edf4db7b94ea2e58241df0ae57f97e0a6c9b29067028bf92d7690600090a3505050565b610d3f6120c9565b610d5c576040516318c4c13760e21b815260040160405180910390fd5b6101c55460ff1615610d84576040516393dafeb760e01b815260048101839052602401610bc9565b610d8e82826120e5565b5050565b6001600160a01b0380821660009081526101c760205260408120600381015491929091610100900416610dd75760405162461bcd60e51b8152600401610bc990614c2c565b60010154913f909114919050565b6000610def61215c565b6000610dfc8585856121b6565b90506000610e0d602087018761445d565b9050610e3481610e206080890189614c5a565b6001610e2f60208c018c61445d565b612312565b92506000610e48604088016020890161445d565b6001600160a01b031614610eb8576040518060400160405280876020016020810190610e74919061445d565b6001600160a01b03908116825260408981013560209384015260008781526101d0845220835181546001600160a01b03191692169190911781559101516001909101555b610ec1866124eb565b82816001600160a01b0316836001600160a01b03167f15fb5f25e8ebed9eee6472747d42b9a3cf11ecf1a51cd0ebb83652e895552f3189604051610f059190614d0e565b60405180910390a45050610f1860018055565b9392505050565b6000610f2a816120b8565b612710821115610f4c5760405162461bcd60e51b8152600401610bc990614e62565b6101cd80546001600160801b03166001600160401b038416600160801b021790556101cb80546001600160a01b0319166001600160a01b0385169081179091556040518381527fe2497bd806ec41a6e0dd992c29a72efc0ef8fec9092d1978fd4a1e00b2f18304906020015b60405180910390a2505050565b610fd6610fd061203f565b826126cb565b610ff25760405162461bcd60e51b8152600401610bc990614e8b565b610c7c83838361272a565b60008060008061100c86611217565b90945084925061ffff1690506127106110258287614eee565b61102f9190614f0d565b925050509250929050565b600082815260fd6020526040902060010154611055816120b8565b610c7c838361288c565b600061106a83611485565b82106110cc5760405162461bcd60e51b815260206004820152602b60248201527f455243373231456e756d657261626c653a206f776e657220696e646578206f7560448201526a74206f6620626f756e647360a81b6064820152608401610bc9565b506001600160a01b0391909116600090815261019360209081526040808320938352929052205490565b6110fe61203f565b6001600160a01b0316816001600160a01b0316146111765760405162461bcd60e51b815260206004820152602f60248201527f416363657373436f6e74726f6c3a2063616e206f6e6c792072656e6f756e636560448201526e103937b632b9903337b91039b2b63360891b6064820152608401610bc9565b610d8e82826128af565b610c7c8383836040518060200160405280600081525061196a565b6111a6610fd061203f565b61120b5760405162461bcd60e51b815260206004820152603060248201527f4552433732314275726e61626c653a2063616c6c6572206973206e6f74206f7760448201526f1b995c881b9bdc88185c1c1c9bdd995960821b6064820152608401610bc9565b611214816128d2565b50565b60008181526101d060209081526040808320815180830190925280546001600160a01b03168083526001909101549282019290925282911561125f578051602082015161127d565b6101cc546101cd546001600160a01b03909116906001600160801b03165b9250925050915091565b60006112936101955490565b82106112f65760405162461bcd60e51b815260206004820152602c60248201527f455243373231456e756d657261626c653a20676c6f62616c20696e646578206f60448201526b7574206f6620626f756e647360a01b6064820152608401610bc9565b610195828154811061130a5761130a614f2f565b90600052602060002001549050919050565b600061132661215c565b60008051602061530e83398151915261133e816120b8565b61134b8787878787612312565b91505061135760018055565b95945050505050565b600061136b816120b8565b61271082111561138d5760405162461bcd60e51b8152600401610bc990614f45565b6101cc80546001600160a01b0319166001600160a01b0385169081179091556101cd80546001600160801b0319166001600160801b0385161790556040518381527f90d7ec04bcb8978719414f82e52e4cb651db41d0e6f8cea6118c2191e6183adb90602001610fb8565b600081815261016360205260408120546001600160a01b031680610a935760405162461bcd60e51b8152600401610bc990614f71565b6000611439816120b8565b6101ca80546001600160a01b0319166001600160a01b0384169081179091556040517f299d17e95023f496e0ffc4909cff1a61f74bb5eb18de6f900f4155bfa1b3b33390600090a25050565b60006001600160a01b0382166114ef5760405162461bcd60e51b815260206004820152602960248201527f4552433732313a2061646472657373207a65726f206973206e6f7420612076616044820152683634b21037bbb732b960b91b6064820152608401610bc9565b506001600160a01b03166000908152610164602052604090205490565b6000606080600080600060606033546000801b14801561152c5750603454155b6115705760405162461bcd60e51b81526020600482015260156024820152741152540dcc4c8e88155b9a5b9a5d1a585b1a5e9959605a1b6044820152606401610bc9565b611578612966565b611580612975565b60408051600080825260208201909252600f60f81b9b939a50919850469750309650945092509050565b6101c8546000906115c59082906001600160a01b03166115fb565b6115cf5750600090565b6101c8546001600160a01b03165b905090565b600082815261012f60205260408120610f189083612984565b600091825260fd602090815260408084206001600160a01b0393909316845291905290205460ff1690565b6000611631816120b8565b61163e6101ce8484614257565b50505050565b60606101628054610aa990614bf1565b600061165f816120b8565b6127108211156116815760405162461bcd60e51b8152600401610bc990614f45565b6040805180820182526001600160a01b03858116808352602080840187815260008a81526101d08352869020945185546001600160a01b031916941693909317845591516001909301929092559151848152909186917f7365cf4122f072a3365c20d54eff9b38d73c096c28e1892ec8f5b0e403a0f12d910160405180910390a350505050565b610d8e61171361203f565b8383612990565b600080600061172a868686612a5c565b61012087013560009081526101cf602052604090205490915060ff16158015611766575061176660008051602061530e833981519152826115fb565b969095509350505050565b6060816001600160401b0381111561178b5761178b614478565b6040519080825280602002602001820160405280156117be57816020015b60608152602001906001900390816117a95790505b50905060006117cb61203f565b9050336001600160a01b038216141560005b848110156118ee57811561185c5761183a3087878481811061180157611801614f2f565b90506020028101906118139190614c5a565b8660405160200161182693929190614fa3565b604051602081830303815290604052612ab8565b84828151811061184c5761184c614f2f565b60200260200101819052506118dc565b6118be3087878481811061187257611872614f2f565b90506020028101906118849190614c5a565b8080601f016020809104026020016040519081016040528093929190818152602001838380828437600092019190915250612ab892505050565b8482815181106118d0576118d0614f2f565b60200260200101819052505b806118e681614fc9565b9150506117dd565b50505092915050565b60008051602061530e83398151915261190f816120b8565b6001600160a01b0380841660009081526101c76020526040902060038101549091610100909104166119535760405162461bcd60e51b8152600401610bc990614c2c565b600301805460ff1916921515929092179091555050565b61197b61197561203f565b836126cb565b6119975760405162461bcd60e51b8152600401610bc990614e8b565b61163e84848484612add565b60008181526101c6602052604090208054606091906119c190614bf1565b80601f01602080910402602001604051908101604052809291908181526020018280546119ed90614bf1565b8015611a3a5780601f10611a0f57610100808354040283529160200191611a3a565b820191906000526020600020905b815481529060010190602001808311611a1d57829003601f168201915b50505050509050919050565b600081815261012f60205260408120610a9390612b10565b611a666120c9565b611a83576040516318c4c13760e21b815260040160405180910390fd5b6101c5805460ff191660011790556040517feef043febddf4e1d1cf1f72ff1407b84e036e805aa0934418cb82095da8d716490600090a1565b600082815260fd6020526040902060010154611ad7816120b8565b610c7c83836128af565b600054610100900460ff1615808015611b015750600054600160ff909116105b80611b1b5750303b158015611b1b575060005460ff166001145b611b7e5760405162461bcd60e51b815260206004820152602e60248201527f496e697469616c697a61626c653a20636f6e747261637420697320616c72656160448201526d191e481a5b9a5d1a585b1a5e995960921b6064820152608401610bc9565b6000805460ff191660011790558015611ba1576000805461ff0019166101001790555b611ba9612b1a565b611bef6040518060400160405280600b81526020016a546f6b656e45524337323160a81b815250604051806040016040528060018152602001603160f81b815250612b4b565b611bf887612b7c565b611c028a8a612bb4565b6101cc80546001600160a01b03199081166001600160a01b03888116919091179092556101cd80546001600160801b0319166001600160801b0388161790556101cb805482168584161790556101ca80549091169188169190911790558751611c73906101ce9060208b01906142d7565b50612710836001600160801b03161115611c9f5760405162461bcd60e51b8152600401610bc990614e62565b6101cd80546001600160801b03808616600160801b0291161790556101c880546001600160a01b038d166001600160a01b0319909116179055611ce360008c612be5565b611cfb60008051602061530e8339815191528c612be5565b611d136000805160206152c78339815191528c612be5565b611d2b6000805160206152c783398151915280612bef565b611d436000805160206152a78339815191528c612be5565b611d5c6000805160206152a78339815191526000612be5565b6040516001600160a01b038716907f299d17e95023f496e0ffc4909cff1a61f74bb5eb18de6f900f4155bfa1b3b33390600090a26040516001600160801b03841681526001600160a01b038316907fe2497bd806ec41a6e0dd992c29a72efc0ef8fec9092d1978fd4a1e00b2f183049060200160405180910390a26040516001600160801b03851681526001600160a01b038616907f90d7ec04bcb8978719414f82e52e4cb651db41d0e6f8cea6118c2191e6183adb9060200160405180910390a28015611e64576000805461ff0019169055604051600181527f7f26b83ff96e1f2b6a682f133852f6798a09c465da95921460cefb38474024989060200160405180910390a15b5050505050505050505050565b6101ce8054611e7f90614bf1565b80601f0160208091040260200160405190810160405280929190818152602001828054611eab90614bf1565b8015611ef85780601f10611ecd57610100808354040283529160200191611ef8565b820191906000526020600020905b815481529060010190602001808311611edb57829003601f168201915b505050505081565b6101c760205260009081526040902080548190611f1c90614bf1565b80601f0160208091040260200160405190810160405280929190818152602001828054611f4890614bf1565b8015611f955780601f10611f6a57610100808354040283529160200191611f95565b820191906000526020600020905b815481529060010190602001808311611f7857829003601f168201915b50505050600183015460028401546003909401549293909290915060ff81169061010090046001600160a01b031685565b6001600160a01b0391821660009081526101666020908152604080832093909416825291909152205460ff1690565b60006001600160e01b0319821663780e9d6360e01b1480610a935750610a9382612c3a565b61202381612c7a565b6112145760405162461bcd60e51b8152600401610bc990614f71565b60006115dd612c98565b60008181526101656020526040902080546001600160a01b0319166001600160a01b038416908117909155819061207f826113f8565b6001600160a01b03167f8c5be1e5ebec7d5bd14f71427d1e84f3dd0314c0f7b2291e5b200ac8c7c3b92560405160405180910390a45050565b611214816120c461203f565b612cc2565b60006115dd6000805160206152c783398151915261077161203f565b80516121045760405163a094836b60e01b815260040160405180910390fd5b60008281526101c6602090815260409091208251612124928401906142d7565b506040518281527ff8e1a15aba9398e019f0b49df1a4fde98ee17ae345cb5f6b5e2c27f5033e8ce79060200160405180910390a15050565b600260015414156121af5760405162461bcd60e51b815260206004820152601f60248201527f5265656e7472616e637947756172643a207265656e7472616e742063616c6c006044820152606401610bc9565b6002600155565b60008060006121c686868661171a565b915091508161220b5760405162461bcd60e51b8152602060048201526011602482015270696e76616c6964207369676e617475726560781b6044820152606401610bc9565b4261221d610100880160e08901614fe4565b6001600160801b03161115801561224e57504261224261012088016101008901614fe4565b6001600160801b031610155b61228c5760405162461bcd60e51b815260206004820152600f60248201526e1c995c5d595cdd08195e1c1a5c9959608a1b6044820152606401610bc9565b600061229b602088018861445d565b6001600160a01b031614156122e85760405162461bcd60e51b81526020600482015260136024820152721c9958da5c1a595b9d081d5b9919599a5b9959606a1b6044820152606401610bc9565b61012086013560009081526101cf60205260409020805460ff191660011790559150509392505050565b6001600160a01b038116836123565760405162461bcd60e51b815260206004820152600a60248201526932b6b83a3c903ab9349760b11b6044820152606401610bc9565b6123968186868080601f0160208091040260200160405190810160405280939291908181526020018383808284376000920191909152506120e592505050565b6123a08682612d1b565b60408051833b818101909252833f9180600060208401873c81526040805160c06020601f8a01819004028201810190925260a0810188815290918291908a908a90819085018382808284376000920182905250938552505050602080830186905284518582012060408085019190915289151560608501526001600160a01b03891660809094018490529282526101c7815291902082518051919261244a928492909101906142d7565b506020820151600182015560408083015160028301556060830151600390920180546080909401516001600160a81b0319909416921515610100600160a81b031916929092176101006001600160a01b0394851602179091555184918a16907f9d89e36eadf856db0ad9ffb5a569e07f95634dddd9501141ecf04820484ad0dc906124d8908b908b90614fff565b60405180910390a3505095945050505050565b60a081013561252b5734156112145760405162461bcd60e51b81526020600482015260066024820152652156616c756560d01b6044820152606401610bc9565b6101cd5460a0820135906000906127109061255690600160801b90046001600160801b031684614eee565b6125609190614f0d565b905073eeeeeeeeeeeeeeeeeeeeeeeeeeeeeeeeeeeeeeee61258760e0850160c0860161445d565b6001600160a01b031614156125e3578134146125de5760405162461bcd60e51b815260206004820152601660248201527536bab9ba1039b2b732103a37ba30b610383934b1b29760511b6044820152606401610bc9565b612626565b34156126265760405162461bcd60e51b81526020600482015260126024820152716d73672076616c7565206e6f74207a65726f60701b6044820152606401610bc9565b600080612639608086016060870161445d565b6001600160a01b03161461265c57612657608085016060860161445d565b61266a565b6101ca546001600160a01b03165b905061269a61267f60e0860160c0870161445d565b61268761203f565b6101cb546001600160a01b031685612d35565b61163e6126ad60e0860160c0870161445d565b6126b561203f565b836126c08688615013565b612d35565b60018055565b6000806126d7836113f8565b9050806001600160a01b0316846001600160a01b031614806126fe57506126fe8185611fc6565b806127225750836001600160a01b031661271784610b2c565b6001600160a01b0316145b949350505050565b826001600160a01b031661273d826113f8565b6001600160a01b0316146127635760405162461bcd60e51b8152600401610bc99061502a565b6001600160a01b0382166127c55760405162461bcd60e51b8152602060048201526024808201527f4552433732313a207472616e7366657220746f20746865207a65726f206164646044820152637265737360e01b6064820152608401610bc9565b6127d28383836001612d7f565b826001600160a01b03166127e5826113f8565b6001600160a01b03161461280b5760405162461bcd60e51b8152600401610bc99061502a565b60008181526101656020908152604080832080546001600160a01b03199081169091556001600160a01b038781168086526101648552838620805460001901905590871680865283862080546001019055868652610163909452828520805490921684179091559051849360008051602061532e83398151915291a4505050565b6128968282612e60565b600082815261012f60205260409020610c7c9082612ee7565b6128b98282612efc565b600082815261012f60205260409020610c7c9082612f81565b60006128dd826113f8565b90506128ed816000846001612d7f565b6128f6826113f8565b60008381526101656020908152604080832080546001600160a01b03199081169091556001600160a01b038516808552610164845282852080546000190190558785526101639093528184208054909116905551929350849260008051602061532e833981519152908390a45050565b606060358054610aa990614bf1565b606060368054610aa990614bf1565b6000610f188383612f96565b816001600160a01b0316836001600160a01b031614156129ee5760405162461bcd60e51b815260206004820152601960248201527822a9219b99189d1030b8383937bb32903a379031b0b63632b960391b6044820152606401610bc9565b6001600160a01b0383811660008181526101666020908152604080832094871680845294825291829020805460ff191686151590811790915591519182527f17307eab39ab6107e8899845ad3d59bd9653f200f220920489ca2b5937696c31910160405180910390a3505050565b600061272283838080601f016020809104026020016040519081016040528093929190818152602001838380828437600092019190915250612ab29250612aa69150889050612fc0565b805190602001206130fa565b90613127565b6060610f1883836040518060600160405280602781526020016152e76027913961314b565b612ae884848461272a565b612af4848484846131c3565b61163e5760405162461bcd60e51b8152600401610bc99061506f565b6000610a93825490565b600054610100900460ff16612b415760405162461bcd60e51b8152600401610bc9906150c1565b612b496132c8565b565b600054610100900460ff16612b725760405162461bcd60e51b8152600401610bc9906150c1565b610d8e82826132ef565b600054610100900460ff16612ba35760405162461bcd60e51b8152600401610bc9906150c1565b612bab61334c565b61121481613373565b600054610100900460ff16612bdb5760405162461bcd60e51b8152600401610bc9906150c1565b610d8e8282613402565b610d8e828261288c565b600082815260fd6020526040808220600101805490849055905190918391839186917fbd79b86ffe0ab8e8776151514217cd7cacd52c909f66475c3af44e129f0b00ff9190a4505050565b60006001600160e01b031982166380ac58cd60e01b1480612c6b57506001600160e01b03198216635b5e139f60e01b145b80610a935750610a9382613452565b600090815261016360205260409020546001600160a01b0316151590565b3360009081526099602052604081205460ff1615612cbd575060131936013560601c90565b503390565b612ccc82826115fb565b610d8e57612cd981613477565b612ce4836020613489565b604051602001612cf592919061510c565b60408051601f198184030181529082905262461bcd60e51b8252610bc9916004016143eb565b610d8e828260405180602001604052806000815250613624565b80612d3f5761163e565b6001600160a01b03841673eeeeeeeeeeeeeeeeeeeeeeeeeeeeeeeeeeeeeeee1415612d7357612d6e8282613657565b61163e565b61163e848484846136cf565b612d8b84848484613728565b612da46000805160206152a783398151915260006115fb565b158015612db957506001600160a01b03841615155b8015612dcd57506001600160a01b03831615155b1561163e57612dea6000805160206152a7833981519152856115fb565b80612e085750612e086000805160206152a7833981519152846115fb565b61163e5760405162461bcd60e51b815260206004820152602360248201527f7265737472696374656420746f205452414e534645525f524f4c4520686f6c6460448201526265727360e81b6064820152608401610bc9565b612e6a82826115fb565b610d8e57600082815260fd602090815260408083206001600160a01b03851684529091529020805460ff19166001179055612ea361203f565b6001600160a01b0316816001600160a01b0316837f2f8788117e7eff1d82e926ec794901d17c78024a50270940304540a733656f0d60405160405180910390a45050565b6000610f18836001600160a01b03841661385e565b612f0682826115fb565b15610d8e57600082815260fd602090815260408083206001600160a01b03851684529091529020805460ff19169055612f3d61203f565b6001600160a01b0316816001600160a01b0316837ff6391f5c32d9c69d2a47ea670b442974b53935d1edc7fd64eb21e047a839171b60405160405180910390a45050565b6000610f18836001600160a01b0384166138ad565b6000826000018281548110612fad57612fad614f2f565b9060005260206000200154905092915050565b60607f86633b4ffa94b7c3d316ca70d7d2700f3fdfa7a7806efd31499b513d9176692e612ff0602084018461445d565b613000604085016020860161445d565b6040850135613015608087016060880161445d565b6130226080880188614c5a565b60405161303092919061517b565b60405190819003902060a088013561304e60e08a0160c08b0161445d565b61305f6101008b0160e08c01614fe4565b6130716101208c016101008d01614fe4565b60408051602081019b909b526001600160a01b03998a16908b015296881660608a0152608089019590955292861660a088015260c087019190915260e08601529092166101008401526001600160801b03918216610120808501919091529116610140830152830135610160820152610180016040516020818303038152906040529050919050565b6000610a936131076139a0565b8360405161190160f01b8152600281019290925260228201526042902090565b600080600061313685856139aa565b91509150613143816139f0565b509392505050565b6060600080856001600160a01b031685604051613168919061518b565b600060405180830381855af49150503d80600081146131a3576040519150601f19603f3d011682016040523d82523d6000602084013e6131a8565b606091505b50915091506131b986838387613b39565b9695505050505050565b60006001600160a01b0384163b156132bd57836001600160a01b031663150b7a026131ec61203f565b8786866040518563ffffffff1660e01b815260040161320e94939291906151a7565b6020604051808303816000875af1925050508015613249575060408051601f3d908101601f19168201909252613246918101906151da565b60015b6132a3573d808015613277576040519150601f19603f3d011682016040523d82523d6000602084013e61327c565b606091505b50805161329b5760405162461bcd60e51b8152600401610bc99061506f565b805181602001fd5b6001600160e01b031916630a85bd0160e11b149050612722565b506001949350505050565b600054610100900460ff166126c55760405162461bcd60e51b8152600401610bc9906150c1565b600054610100900460ff166133165760405162461bcd60e51b8152600401610bc9906150c1565b81516133299060359060208501906142d7565b50805161333d9060369060208401906142d7565b50506000603381905560345550565b600054610100900460ff16612b495760405162461bcd60e51b8152600401610bc9906150c1565b600054610100900460ff1661339a5760405162461bcd60e51b8152600401610bc9906150c1565b60005b8151811015610d8e576001609960008484815181106133be576133be614f2f565b6020908102919091018101516001600160a01b03168252810191909152604001600020805460ff1916911515919091179055806133fa81614fc9565b91505061339d565b600054610100900460ff166134295760405162461bcd60e51b8152600401610bc9906150c1565b815161343d906101619060208501906142d7565b508051610c7c906101629060208401906142d7565b60006001600160e01b03198216635a05180f60e01b1480610a935750610a9382613baf565b6060610a936001600160a01b03831660145b60606000613498836002614eee565b6134a39060026151f7565b6001600160401b038111156134ba576134ba614478565b6040519080825280601f01601f1916602001820160405280156134e4576020820181803683370190505b509050600360fc1b816000815181106134ff576134ff614f2f565b60200101906001600160f81b031916908160001a905350600f60fb1b8160018151811061352e5761352e614f2f565b60200101906001600160f81b031916908160001a9053506000613552846002614eee565b61355d9060016151f7565b90505b60018111156135d5576f181899199a1a9b1b9c1cb0b131b232b360811b85600f166010811061359157613591614f2f565b1a60f81b8282815181106135a7576135a7614f2f565b60200101906001600160f81b031916908160001a90535060049490941c936135ce8161520f565b9050613560565b508315610f185760405162461bcd60e51b815260206004820181905260248201527f537472696e67733a20686578206c656e67746820696e73756666696369656e746044820152606401610bc9565b61362e8383613be4565b61363b60008484846131c3565b610c7c5760405162461bcd60e51b8152600401610bc99061506f565b6000826001600160a01b03168260405160006040518083038185875af1925050503d80600081146136a4576040519150601f19603f3d011682016040523d82523d6000602084013e6136a9565b606091505b5050905080610c7c578282604051635fdc4ec160e11b8152600401610bc992919061468b565b816001600160a01b0316836001600160a01b031614156136ee5761163e565b6001600160a01b03831630141561371357612d6e6001600160a01b0385168383613cef565b61163e6001600160a01b038516848484613d45565b60018111156137975760405162461bcd60e51b815260206004820152603560248201527f455243373231456e756d657261626c653a20636f6e7365637574697665207472604482015274185b9cd9995c9cc81b9bdd081cdd5c1c1bdc9d1959605a1b6064820152608401610bc9565b816001600160a01b0385166137f5576137f0816101958054600083815261019660205260408120829055600182018355919091527f54034dca961b61bc2a3147cc0c1986762915b42723ed64155364f17a2e2967700155565b613818565b836001600160a01b0316856001600160a01b031614613818576138188582613d7d565b6001600160a01b0384166138345761382f81613e1f565b613857565b846001600160a01b0316846001600160a01b031614613857576138578482613ed4565b5050505050565b60008181526001830160205260408120546138a557508154600181810184556000848152602080822090930184905584548482528286019093526040902091909155610a93565b506000610a93565b600081815260018301602052604081205480156139965760006138d1600183615013565b85549091506000906138e590600190615013565b905081811461394a57600086600001828154811061390557613905614f2f565b906000526020600020015490508087600001848154811061392857613928614f2f565b6000918252602080832090910192909255918252600188019052604090208390555b855486908061395b5761395b615226565b600190038181906000526020600020016000905590558560010160008681526020019081526020016000206000905560019350505050610a93565b6000915050610a93565b60006115dd613f1a565b6000808251604114156139e15760208301516040840151606085015160001a6139d587828585613f8e565b945094505050506139e9565b506000905060025b9250929050565b6000816004811115613a0457613a0461523c565b1415613a0d5750565b6001816004811115613a2157613a2161523c565b1415613a6a5760405162461bcd60e51b815260206004820152601860248201527745434453413a20696e76616c6964207369676e617475726560401b6044820152606401610bc9565b6002816004811115613a7e57613a7e61523c565b1415613acc5760405162461bcd60e51b815260206004820152601f60248201527f45434453413a20696e76616c6964207369676e6174757265206c656e677468006044820152606401610bc9565b6003816004811115613ae057613ae061523c565b14156112145760405162461bcd60e51b815260206004820152602260248201527f45434453413a20696e76616c6964207369676e6174757265202773272076616c604482015261756560f01b6064820152608401610bc9565b60608315613ba5578251613b9e576001600160a01b0385163b613b9e5760405162461bcd60e51b815260206004820152601d60248201527f416464726573733a2063616c6c20746f206e6f6e2d636f6e74726163740000006044820152606401610bc9565b5081612722565b6127228383614048565b60006001600160e01b03198216637965db0b60e01b1480610a9357506301ffc9a760e01b6001600160e01b0319831614610a93565b6001600160a01b038216613c3a5760405162461bcd60e51b815260206004820181905260248201527f4552433732313a206d696e7420746f20746865207a65726f20616464726573736044820152606401610bc9565b613c4381612c7a565b15613c605760405162461bcd60e51b8152600401610bc990615252565b613c6e600083836001612d7f565b613c7781612c7a565b15613c945760405162461bcd60e51b8152600401610bc990615252565b6001600160a01b0382166000818152610164602090815260408083208054600101905584835261016390915280822080546001600160a01b03191684179055518392919060008051602061532e833981519152908290a45050565b610c7c8363a9059cbb60e01b8484604051602401613d0e92919061468b565b60408051601f198184030181529190526020810180516001600160e01b03166001600160e01b031990931692909217909152614072565b6040516001600160a01b038085166024830152831660448201526064810182905261163e9085906323b872dd60e01b90608401613d0e565b60006001613d8a84611485565b613d949190615013565b60008381526101946020526040902054909150808214613dea576001600160a01b038416600090815261019360209081526040808320858452825280832054848452818420819055835261019490915290208190555b506000918252610194602090815260408084208490556001600160a01b03909416835261019381528383209183525290812055565b61019554600090613e3290600190615013565b600083815261019660205260408120546101958054939450909284908110613e5c57613e5c614f2f565b90600052602060002001549050806101958381548110613e7e57613e7e614f2f565b60009182526020808320909101929092558281526101969091526040808220849055858252812055610195805480613eb857613eb8615226565b6001900381819060005260206000200160009055905550505050565b6000613edf83611485565b6001600160a01b0390931660009081526101936020908152604080832086845282528083208590559382526101949052919091209190915550565b60007f8b73c3c69bb8fe3d512ecc4cf759cc79239f7b179b0ffacaa9a75d522b39400f613f45614144565b613f4d6141a1565b60408051602081019490945283019190915260608201524660808201523060a082015260c00160405160208183030381529060405280519060200120905090565b6000806fa2a8918ca85bafe22016d0b997e4df60600160ff1b03831115613fbb575060009050600361403f565b6040805160008082526020820180845289905260ff881692820192909252606081018690526080810185905260019060a0016020604051602081039080840390855afa15801561400f573d6000803e3d6000fd5b5050604051601f1901519150506001600160a01b0381166140385760006001925092505061403f565b9150600090505b94509492505050565b8151156140585781518083602001fd5b8060405162461bcd60e51b8152600401610bc991906143eb565b60006140c7826040518060400160405280602081526020017f5361666545524332303a206c6f772d6c6576656c2063616c6c206661696c6564815250856001600160a01b03166141d29092919063ffffffff16565b805190915015610c7c57808060200190518101906140e59190615289565b610c7c5760405162461bcd60e51b815260206004820152602a60248201527f5361666545524332303a204552433230206f7065726174696f6e20646964206e6044820152691bdd081cdd58d8d9595960b21b6064820152608401610bc9565b60008061414f612966565b805190915015614166578051602090910120919050565b60335480156141755792915050565b7fc5d2460186f7233c927e7db2dcc703c0e500b653ca82273b7bfad8045d85a4709250505090565b5090565b6000806141ac612975565b8051909150156141c3578051602090910120919050565b60345480156141755792915050565b6060612722848460008585600080866001600160a01b031685876040516141f9919061518b565b60006040518083038185875af1925050503d8060008114614236576040519150601f19603f3d011682016040523d82523d6000602084013e61423b565b606091505b509150915061424c87838387613b39565b979650505050505050565b82805461426390614bf1565b90600052602060002090601f01602090048101928261428557600085556142cb565b82601f1061429e5782800160ff198235161785556142cb565b828001600101855582156142cb579182015b828111156142cb5782358255916020019190600101906142b0565b5061419d92915061434b565b8280546142e390614bf1565b90600052602060002090601f01602090048101928261430557600085556142cb565b82601f1061431e57805160ff19168380011785556142cb565b828001600101855582156142cb579182015b828111156142cb578251825591602001919060010190614330565b5b8082111561419d576000815560010161434c565b6001600160e01b03198116811461121457600080fd5b60006020828403121561438857600080fd5b8135610f1881614360565b60005b838110156143ae578181015183820152602001614396565b8381111561163e5750506000910152565b600081518084526143d7816020860160208601614393565b601f01601f19169290920160200192915050565b602081526000610f1860208301846143bf565b60006020828403121561441057600080fd5b5035919050565b80356001600160a01b038116811461442e57600080fd5b919050565b6000806040838503121561444657600080fd5b61444f83614417565b946020939093013593505050565b60006020828403121561446f57600080fd5b610f1882614417565b634e487b7160e01b600052604160045260246000fd5b604051601f8201601f191681016001600160401b03811182821017156144b6576144b6614478565b604052919050565b60006001600160401b038311156144d7576144d7614478565b6144ea601f8401601f191660200161448e565b90508281528383830111156144fe57600080fd5b828260208301376000602084830101529392505050565b600082601f83011261452657600080fd5b610f18838335602085016144be565b6000806040838503121561454857600080fd5b8235915060208301356001600160401b0381111561456557600080fd5b61457185828601614515565b9150509250929050565b60008083601f84011261458d57600080fd5b5081356001600160401b038111156145a457600080fd5b6020830191508360208285010111156139e957600080fd5b6000806000604084860312156145d157600080fd5b83356001600160401b03808211156145e857600080fd5b9085019061018082880312156145fd57600080fd5b9093506020850135908082111561461357600080fd5b506146208682870161457b565b9497909650939450505050565b60008060006060848603121561464257600080fd5b61464b84614417565b925061465960208501614417565b9150604084013590509250925092565b6000806040838503121561467c57600080fd5b50508035926020909101359150565b6001600160a01b03929092168252602082015260400190565b600080604083850312156146b757600080fd5b823591506146c760208401614417565b90509250929050565b801515811461121457600080fd5b803561442e816146d0565b60008060008060006080868803121561470157600080fd5b61470a86614417565b945060208601356001600160401b0381111561472557600080fd5b6147318882890161457b565b9095509350506040860135614745816146d0565b915061475360608701614417565b90509295509295909350565b60ff60f81b881681526000602060e08184015261477f60e084018a6143bf565b8381036040850152614791818a6143bf565b606085018990526001600160a01b038816608086015260a0850187905284810360c0860152855180825283870192509083019060005b818110156147e3578351835292840192918401916001016147c7565b50909c9b505050505050505050505050565b6000806020838503121561480857600080fd5b82356001600160401b0381111561481e57600080fd5b61482a8582860161457b565b90969095509350505050565b60008060006060848603121561484b57600080fd5b8335925061465960208501614417565b6000806040838503121561486e57600080fd5b61487783614417565b91506020830135614887816146d0565b809150509250929050565b600080602083850312156148a557600080fd5b82356001600160401b03808211156148bc57600080fd5b818501915085601f8301126148d057600080fd5b8135818111156148df57600080fd5b8660208260051b85010111156148f457600080fd5b60209290920196919550909350505050565b6000602080830181845280855180835260408601915060408160051b870101925083870160005b8281101561495b57603f198886030184526149498583516143bf565b9450928501929085019060010161492d565b5092979650505050505050565b6000806000806080858703121561497e57600080fd5b61498785614417565b935061499560208601614417565b92506040850135915060608501356001600160401b038111156149b757600080fd5b8501601f810187136149c857600080fd5b6149d7878235602084016144be565b91505092959194509250565b600082601f8301126149f457600080fd5b813560206001600160401b03821115614a0f57614a0f614478565b8160051b614a1e82820161448e565b9283528481018201928281019087851115614a3857600080fd5b83870192505b8483101561424c57614a4f83614417565b82529183019190830190614a3e565b80356001600160801b038116811461442e57600080fd5b6000806000806000806000806000806101408b8d031215614a9557600080fd5b614a9e8b614417565b995060208b01356001600160401b0380821115614aba57600080fd5b614ac68e838f01614515565b9a5060408d0135915080821115614adc57600080fd5b614ae88e838f01614515565b995060608d0135915080821115614afe57600080fd5b614b0a8e838f01614515565b985060808d0135915080821115614b2057600080fd5b50614b2d8d828e016149e3565b965050614b3c60a08c01614417565b9450614b4a60c08c01614417565b9350614b5860e08c01614a5e565b9250614b676101008c01614a5e565b9150614b766101208c01614417565b90509295989b9194979a5092959850565b60a081526000614b9a60a08301886143bf565b602083019690965250604081019390935290151560608301526001600160a01b0316608090910152919050565b60008060408385031215614bda57600080fd5b614be383614417565b91506146c760208401614417565b600181811c90821680614c0557607f821691505b60208210811415614c2657634e487b7160e01b600052602260045260246000fd5b50919050565b602080825260149082015273151bdad95b88191bd95cc81b9bdd08195e1a5cdd60621b604082015260600190565b6000808335601e19843603018112614c7157600080fd5b8301803591506001600160401b03821115614c8b57600080fd5b6020019150368190038213156139e957600080fd5b6000808335601e19843603018112614cb757600080fd5b83016020810192503590506001600160401b03811115614cd657600080fd5b8036038313156139e957600080fd5b81835281816020850137506000828201602090810191909152601f909101601f19169091010190565b60208152614d2f60208201614d2284614417565b6001600160a01b03169052565b6000614d3d60208401614417565b6001600160a01b03811660408401525060408301356060830152614d6360608401614417565b6001600160a01b038116608084015250614d806080840184614ca0565b6101808060a0860152614d986101a086018385614ce5565b925060a086013560c0860152614db060c08701614417565b6001600160a01b03811660e08701529150614dcd60e08701614a5e565b9150610100614de6818701846001600160801b03169052565b614df1818801614a5e565b925050610120614e0b818701846001600160801b03169052565b6101409250808701358387015250614e248287016146de565b9150610160614e368187018415159052565b614e41818801614417565b925050614e58818601836001600160a01b03169052565b5090949350505050565b6020808252600f908201526e65786365656473204d41585f42505360881b604082015260600190565b6020808252602d908201527f4552433732313a2063616c6c6572206973206e6f7420746f6b656e206f776e6560408201526c1c881bdc88185c1c1c9bdd9959609a1b606082015260800190565b634e487b7160e01b600052601160045260246000fd5b6000816000190483118215151615614f0857614f08614ed8565b500290565b600082614f2a57634e487b7160e01b600052601260045260246000fd5b500490565b634e487b7160e01b600052603260045260246000fd5b60208082526012908201527165786365656420726f79616c74792062707360701b604082015260600190565b602080825260189082015277115490cdcc8c4e881a5b9d985b1a59081d1bdad95b88125160421b604082015260600190565b8284823760609190911b6bffffffffffffffffffffffff19169101908152601401919050565b6000600019821415614fdd57614fdd614ed8565b5060010190565b600060208284031215614ff657600080fd5b610f1882614a5e565b602081526000612722602083018486614ce5565b60008282101561502557615025614ed8565b500390565b60208082526025908201527f4552433732313a207472616e736665722066726f6d20696e636f72726563742060408201526437bbb732b960d91b606082015260800190565b60208082526032908201527f4552433732313a207472616e7366657220746f206e6f6e20455243373231526560408201527131b2b4bb32b91034b6b83632b6b2b73a32b960711b606082015260800190565b6020808252602b908201527f496e697469616c697a61626c653a20636f6e7472616374206973206e6f74206960408201526a6e697469616c697a696e6760a81b606082015260800190565b76020b1b1b2b9b9a1b7b73a3937b61d1030b1b1b7bab73a1604d1b81526000835161513e816017850160208801614393565b7001034b99036b4b9b9b4b733903937b6329607d1b601791840191820152835161516f816028840160208801614393565b01602801949350505050565b8183823760009101908152919050565b6000825161519d818460208701614393565b9190910192915050565b6001600160a01b03858116825284166020820152604081018390526080606082018190526000906131b9908301846143bf565b6000602082840312156151ec57600080fd5b8151610f1881614360565b6000821982111561520a5761520a614ed8565b500190565b60008161521e5761521e614ed8565b506000190190565b634e487b7160e01b600052603160045260246000fd5b634e487b7160e01b600052602160045260246000fd5b6020808252601c908201527f4552433732313a20746f6b656e20616c7265616479206d696e74656400000000604082015260600190565b60006020828403121561529b57600080fd5b8151610f18816146d056fe8502233096d909befbda0999bb8ea2f3a6be3c138b9fbf003752a4c8bce86f6c6bd6b5318a46e5fff572d5e4258a20774aab40cc35ac7680654b9081fcc82f80416464726573733a206c6f772d6c6576656c2064656c65676174652063616c6c206661696c65649f2df0fed2c77648de5860a4cc508cd0818c85b8b8a1ab4ceeef8d981c8956a6ddf252ad1be2c89b69c2b068fc378daa952ba7f163c4a11628f55a4df523b3efa2646970667358221220c02321bf4aa687c3d5f50d15f4ee8b875f78363837ea44259c691de879fafe0864736f6c634300080b0033",
  "devdoc": {
    "errors": {
      "NFTMetadataFrozen(uint256)": [
        {
          "details": "the nft metadata is frozen"
        }
      ],
      "NFTMetadataInvalidUrl()": [
        {
          "details": "Invalid token metadata url"
        }
      ],
      "NFTMetadataUnauthorized()": [
        {
          "details": "The sender is not authorized to perform the action"
        }
      ]
    },
    "kind": "dev",
    "methods": {
      "approve(address,uint256)": {
        "details": "Override the approve function to check the whitelist"
      },
      "balanceOf(address)": {
        "details": "See {IERC721-balanceOf}."
      },
      "burn(uint256)": {
        "details": "Burns `tokenId`. See {ERC721-_burn}."
      },
      "contractType()": {
        "details": "Returns the module type of the contract."
      },
      "contractVersion()": {
        "details": "Returns the version of the contract."
      },
      "eip712Domain()": {
        "details": "See {EIP-5267}. _Available since v4.9._"
      },
      "getApproved(uint256)": {
        "details": "See {IERC721-getApproved}."
      },
      "getDefaultRoyaltyInfo()": {
        "details": "Returns the platform fee bps and recipient."
      },
      "getPlatformFeeInfo()": {
        "details": "Returns the platform fee bps and recipient."
      },
      "getRoleAdmin(bytes32)": {
        "details": "Returns the admin role that controls `role`. See {grantRole} and {revokeRole}. To change a role's admin, use {_setRoleAdmin}."
      },
      "getRoleMember(bytes32,uint256)": {
        "details": "Returns one of the accounts that have `role`. `index` must be a value between 0 and {getRoleMemberCount}, non-inclusive. Role bearers are not sorted in any particular way, and their ordering may change at any point. WARNING: When using {getRoleMember} and {getRoleMemberCount}, make sure you perform all queries on the same block. See the following https://forum.openzeppelin.com/t/iterating-over-elements-on-enumerableset-in-openzeppelin-contracts/2296[forum post] for more information."
      },
      "getRoleMemberCount(bytes32)": {
        "details": "Returns the number of accounts that have `role`. Can be used together with {getRoleMember} to enumerate all bearers of a role."
      },
      "getRoyaltyInfoForToken(uint256)": {
        "details": "Returns the royalty recipient for a particular token Id."
      },
      "grantRole(bytes32,address)": {
        "details": "Grants `role` to `account`. If `account` had not been already granted `role`, emits a {RoleGranted} event. Requirements: - the caller must have ``role``'s admin role. May emit a {RoleGranted} event."
      },
      "hasRole(bytes32,address)": {
        "details": "Returns `true` if `account` has been granted `role`."
      },
      "initialize(address,string,string,string,address[],address,address,uint128,uint128,address)": {
        "details": "Initializes the contract, like a constructor."
      },
      "isApprovedForAll(address,address)": {
        "details": "See {IERC721-isApprovedForAll}."
      },
      "mintTo(address,string,bool,address)": {
        "details": "Lets an account with MINTER_ROLE mint an NFT."
      },
      "mintWithSignature((address,address,uint256,address,string,uint256,address,uint128,uint128,bytes32,bool,address),bytes)": {
        "details": "Mints an NFT according to the provided mint request."
      },
      "multicall(bytes[])": {
        "details": "Receives and executes a batch of function calls on this contract.",
        "params": {
          "data": "The bytes data that makes up the batch of function calls to execute."
        },
        "returns": {
          "results": "The bytes data that makes up the result of the batch of function calls executed."
        }
      },
      "name()": {
        "details": "See {IERC721Metadata-name}."
      },
      "owner()": {
        "details": "Returns the address of the current owner."
      },
      "ownerOf(uint256)": {
        "details": "See {IERC721-ownerOf}."
      },
      "renounceRole(bytes32,address)": {
        "details": "Revokes `role` from the calling account. Roles are often managed via {grantRole} and {revokeRole}: this function's purpose is to provide a mechanism for accounts to lose their privileges if they are compromised (such as when a trusted device is misplaced). If the calling account had been revoked `role`, emits a {RoleRevoked} event. Requirements: - the caller must be `account`. May emit a {RoleRevoked} event."
      },
      "revokeRole(bytes32,address)": {
        "details": "Revokes `role` from `account`. If `account` had been granted `role`, emits a {RoleRevoked} event. Requirements: - the caller must have ``role``'s admin role. May emit a {RoleRevoked} event."
      },
      "royaltyInfo(uint256,uint256)": {
        "details": "See EIP-2981"
      },
      "safeTransferFrom(address,address,uint256)": {
        "details": "See {IERC721-safeTransferFrom}."
      },
      "safeTransferFrom(address,address,uint256,bytes)": {
        "details": "See {IERC721-safeTransferFrom}."
      },
      "setApprovalForAll(address,bool)": {
        "details": "See {IERC721-setApprovalForAll}."
      },
      "setContractURI(string)": {
        "details": "Lets a module admin set the URI for contract-level metadata."
      },
      "setDefaultRoyaltyInfo(address,uint256)": {
        "details": "Lets a module admin update the royalty bps and recipient."
      },
      "setOwner(address)": {
        "details": "Lets a module admin set a new owner for the contract. The new owner must be a module admin."
      },
      "setPlatformFeeInfo(address,uint256)": {
        "details": "Lets a module admin update the fees on primary sales."
      },
      "setPrimarySaleRecipient(address)": {
        "details": "Lets a module admin set the default recipient of all primary sales."
      },
      "setRoyaltyInfoForToken(uint256,address,uint256)": {
        "details": "Lets a module admin set the royalty recipient for a particular token Id."
      },
      "symbol()": {
        "details": "See {IERC721Metadata-symbol}."
      },
      "tokenByIndex(uint256)": {
        "details": "See {IERC721Enumerable-tokenByIndex}."
      },
      "tokenOfOwnerByIndex(address,uint256)": {
        "details": "See {IERC721Enumerable-tokenOfOwnerByIndex}."
      },
      "tokenURI(uint256)": {
        "details": "Returns the URI for a tokenId"
      },
      "totalSupply()": {
        "details": "See {IERC721Enumerable-totalSupply}."
      },
      "transferFrom(address,address,uint256)": {
        "details": "See {IERC721-transferFrom}."
      },
      "updateSecureField(address,bool)": {
        "details": "Updates the secure field of a token's SecurityInfo."
      },
      "verify((address,address,uint256,address,string,uint256,address,uint128,uint128,bytes32,bool,address),bytes)": {
        "details": "Verifies that a mint request is signed by an account holding MINTER_ROLE (at the time of the function call)."
      }
    },
    "stateVariables": {
      "MAX_BPS": {
        "details": "Max bps in the thirdweb system"
      },
      "METADATA_ROLE": {
        "details": "Only METADATA_ROLE holders can update NFT metadata."
      },
      "MINTER_ROLE": {
        "details": "Only MINTER_ROLE holders can sign off on `MintRequest`s."
      },
      "TRANSFER_ROLE": {
        "details": "Only TRANSFER_ROLE holders can have tokens transferred from or to them, during restricted transfers."
      },
      "_owner": {
        "details": "Owner of the contract (purpose: OpenSea compatibility, etc.)"
      },
      "contractURI": {
        "details": "Contract level metadata."
      },
      "minted": {
        "details": "Mapping from mint request UID => whether the mint request is processed."
      },
      "nextTokenIdToMint": {
        "details": "The token ID of the next token to mint."
      },
      "platformFeeBps": {
        "details": "The % of primary sales collected by the contract as fees."
      },
      "platformFeeRecipient": {
        "details": "The adress that receives all primary sales value."
      },
      "primarySaleRecipient": {
        "details": "The adress that receives all primary sales value."
      },
      "royaltyBps": {
        "details": "The percentage of royalty how much royalty in basis points."
      },
      "royaltyInfoForToken": {
        "details": "Token ID => royalty recipient and bps for token"
      },
      "royaltyRecipient": {
        "details": "The recipient of who gets the royalty."
      }
    },
    "version": 1
  },
  "userdoc": {
    "kind": "user",
    "methods": {
      "freezeMetadata()": {
        "notice": "Freezes the metadata URI for a given NFT."
      },
      "multicall(bytes[])": {
        "notice": "Receives and executes a batch of function calls on this contract."
      },
      "setTokenURI(uint256,string)": {
        "notice": "Sets the metadata URI for a given NFT."
      }
    },
    "version": 1
  },
  "storageLayout": {
    "storage": [
      {
        "astId": 631,
        "contract": "contracts/tokens/ERC721Security.sol:ERC721Security",
        "label": "_initialized",
        "offset": 0,
        "slot": "0",
        "type": "t_uint8"
      },
      {
        "astId": 634,
        "contract": "contracts/tokens/ERC721Security.sol:ERC721Security",
        "label": "_initializing",
        "offset": 1,
        "slot": "0",
        "type": "t_bool"
      },
      {
        "astId": 808,
        "contract": "contracts/tokens/ERC721Security.sol:ERC721Security",
        "label": "_status",
        "offset": 0,
        "slot": "1",
        "type": "t_uint256"
      },
      {
        "astId": 877,
        "contract": "contracts/tokens/ERC721Security.sol:ERC721Security",
        "label": "__gap",
        "offset": 0,
        "slot": "2",
        "type": "t_array(t_uint256)49_storage"
      },
      {
        "astId": 3393,
        "contract": "contracts/tokens/ERC721Security.sol:ERC721Security",
        "label": "_hashedName",
        "offset": 0,
        "slot": "51",
        "type": "t_bytes32"
      },
      {
        "astId": 3396,
        "contract": "contracts/tokens/ERC721Security.sol:ERC721Security",
        "label": "_hashedVersion",
        "offset": 0,
        "slot": "52",
        "type": "t_bytes32"
      },
      {
        "astId": 3398,
        "contract": "contracts/tokens/ERC721Security.sol:ERC721Security",
        "label": "_name",
        "offset": 0,
        "slot": "53",
        "type": "t_string_storage"
      },
      {
        "astId": 3400,
        "contract": "contracts/tokens/ERC721Security.sol:ERC721Security",
        "label": "_version",
        "offset": 0,
        "slot": "54",
        "type": "t_string_storage"
      },
      {
        "astId": 3658,
        "contract": "contracts/tokens/ERC721Security.sol:ERC721Security",
        "label": "__gap",
        "offset": 0,
        "slot": "55",
        "type": "t_array(t_uint256)48_storage"
      },
      {
        "astId": 2778,
        "contract": "contracts/tokens/ERC721Security.sol:ERC721Security",
        "label": "__gap",
        "offset": 0,
        "slot": "103",
        "type": "t_array(t_uint256)50_storage"
      },
      {
        "astId": 6522,
        "contract": "contracts/tokens/ERC721Security.sol:ERC721Security",
        "label": "_trustedForwarder",
        "offset": 0,
        "slot": "153",
        "type": "t_mapping(t_address,t_bool)"
      },
      {
        "astId": 6630,
        "contract": "contracts/tokens/ERC721Security.sol:ERC721Security",
        "label": "__gap",
        "offset": 0,
        "slot": "154",
        "type": "t_array(t_uint256)49_storage"
      },
      {
        "astId": 3706,
        "contract": "contracts/tokens/ERC721Security.sol:ERC721Security",
        "label": "__gap",
        "offset": 0,
        "slot": "203",
        "type": "t_array(t_uint256)50_storage"
      },
      {
        "astId": 174,
        "contract": "contracts/tokens/ERC721Security.sol:ERC721Security",
        "label": "_roles",
        "offset": 0,
        "slot": "253",
        "type": "t_mapping(t_bytes32,t_struct(RoleData)169_storage)"
      },
      {
        "astId": 481,
        "contract": "contracts/tokens/ERC721Security.sol:ERC721Security",
        "label": "__gap",
        "offset": 0,
        "slot": "254",
        "type": "t_array(t_uint256)49_storage"
      },
      {
        "astId": 22,
        "contract": "contracts/tokens/ERC721Security.sol:ERC721Security",
        "label": "_roleMembers",
        "offset": 0,
        "slot": "303",
        "type": "t_mapping(t_bytes32,t_struct(AddressSet)5016_storage)"
      },
      {
        "astId": 144,
        "contract": "contracts/tokens/ERC721Security.sol:ERC721Security",
        "label": "__gap",
        "offset": 0,
        "slot": "304",
        "type": "t_array(t_uint256)49_storage"
      },
      {
        "astId": 908,
        "contract": "contracts/tokens/ERC721Security.sol:ERC721Security",
        "label": "_name",
        "offset": 0,
        "slot": "353",
        "type": "t_string_storage"
      },
      {
        "astId": 910,
        "contract": "contracts/tokens/ERC721Security.sol:ERC721Security",
        "label": "_symbol",
        "offset": 0,
        "slot": "354",
        "type": "t_string_storage"
      },
      {
        "astId": 914,
        "contract": "contracts/tokens/ERC721Security.sol:ERC721Security",
        "label": "_owners",
        "offset": 0,
        "slot": "355",
        "type": "t_mapping(t_uint256,t_address)"
      },
      {
        "astId": 918,
        "contract": "contracts/tokens/ERC721Security.sol:ERC721Security",
        "label": "_balances",
        "offset": 0,
        "slot": "356",
        "type": "t_mapping(t_address,t_uint256)"
      },
      {
        "astId": 922,
        "contract": "contracts/tokens/ERC721Security.sol:ERC721Security",
        "label": "_tokenApprovals",
        "offset": 0,
        "slot": "357",
        "type": "t_mapping(t_uint256,t_address)"
      },
      {
        "astId": 928,
        "contract": "contracts/tokens/ERC721Security.sol:ERC721Security",
        "label": "_operatorApprovals",
        "offset": 0,
        "slot": "358",
        "type": "t_mapping(t_address,t_mapping(t_address,t_bool))"
      },
      {
        "astId": 1830,
        "contract": "contracts/tokens/ERC721Security.sol:ERC721Security",
        "label": "__gap",
        "offset": 0,
        "slot": "359",
        "type": "t_array(t_uint256)44_storage"
      },
      {
        "astId": 1984,
        "contract": "contracts/tokens/ERC721Security.sol:ERC721Security",
        "label": "_ownedTokens",
        "offset": 0,
        "slot": "403",
        "type": "t_mapping(t_address,t_mapping(t_uint256,t_uint256))"
      },
      {
        "astId": 1988,
        "contract": "contracts/tokens/ERC721Security.sol:ERC721Security",
        "label": "_ownedTokensIndex",
        "offset": 0,
        "slot": "404",
        "type": "t_mapping(t_uint256,t_uint256)"
      },
      {
        "astId": 1991,
        "contract": "contracts/tokens/ERC721Security.sol:ERC721Security",
        "label": "_allTokens",
        "offset": 0,
        "slot": "405",
        "type": "t_array(t_uint256)dyn_storage"
      },
      {
        "astId": 1995,
        "contract": "contracts/tokens/ERC721Security.sol:ERC721Security",
        "label": "_allTokensIndex",
        "offset": 0,
        "slot": "406",
        "type": "t_mapping(t_uint256,t_uint256)"
      },
      {
        "astId": 2339,
        "contract": "contracts/tokens/ERC721Security.sol:ERC721Security",
        "label": "__gap",
        "offset": 0,
        "slot": "407",
        "type": "t_array(t_uint256)46_storage"
      },
      {
        "astId": 6215,
        "contract": "contracts/tokens/ERC721Security.sol:ERC721Security",
        "label": "uriFrozen",
        "offset": 0,
        "slot": "453",
        "type": "t_bool"
      },
      {
        "astId": 6219,
        "contract": "contracts/tokens/ERC721Security.sol:ERC721Security",
        "label": "_tokenURI",
        "offset": 0,
        "slot": "454",
        "type": "t_mapping(t_uint256,t_string_storage)"
      },
      {
        "astId": 7721,
        "contract": "contracts/tokens/ERC721Security.sol:ERC721Security",
        "label": "collection",
        "offset": 0,
        "slot": "455",
        "type": "t_mapping(t_address,t_struct(SecurityInfo)7716_storage)"
      },
      {
        "astId": 7760,
        "contract": "contracts/tokens/ERC721Security.sol:ERC721Security",
        "label": "_owner",
        "offset": 0,
        "slot": "456",
        "type": "t_address"
      },
      {
        "astId": 7763,
        "contract": "contracts/tokens/ERC721Security.sol:ERC721Security",
        "label": "nextTokenIdToMint",
        "offset": 0,
        "slot": "457",
        "type": "t_uint256"
      },
      {
        "astId": 7766,
        "contract": "contracts/tokens/ERC721Security.sol:ERC721Security",
        "label": "primarySaleRecipient",
        "offset": 0,
        "slot": "458",
        "type": "t_address"
      },
      {
        "astId": 7769,
        "contract": "contracts/tokens/ERC721Security.sol:ERC721Security",
        "label": "platformFeeRecipient",
        "offset": 0,
        "slot": "459",
        "type": "t_address"
      },
      {
        "astId": 7772,
        "contract": "contracts/tokens/ERC721Security.sol:ERC721Security",
        "label": "royaltyRecipient",
        "offset": 0,
        "slot": "460",
        "type": "t_address"
      },
      {
        "astId": 7775,
        "contract": "contracts/tokens/ERC721Security.sol:ERC721Security",
        "label": "royaltyBps",
        "offset": 0,
        "slot": "461",
        "type": "t_uint128"
      },
      {
        "astId": 7778,
        "contract": "contracts/tokens/ERC721Security.sol:ERC721Security",
        "label": "platformFeeBps",
        "offset": 16,
        "slot": "461",
        "type": "t_uint128"
      },
      {
        "astId": 7781,
        "contract": "contracts/tokens/ERC721Security.sol:ERC721Security",
        "label": "contractURI",
        "offset": 0,
        "slot": "462",
        "type": "t_string_storage"
      },
      {
        "astId": 7786,
        "contract": "contracts/tokens/ERC721Security.sol:ERC721Security",
        "label": "minted",
        "offset": 0,
        "slot": "463",
        "type": "t_mapping(t_bytes32,t_bool)"
      },
      {
        "astId": 7792,
        "contract": "contracts/tokens/ERC721Security.sol:ERC721Security",
        "label": "royaltyInfoForToken",
        "offset": 0,
        "slot": "464",
        "type": "t_mapping(t_uint256,t_struct(RoyaltyInfo)6456_storage)"
      }
    ],
    "types": {
      "t_address": {
        "encoding": "inplace",
        "label": "address",
        "numberOfBytes": "20"
      },
      "t_array(t_bytes32)dyn_storage": {
        "base": "t_bytes32",
        "encoding": "dynamic_array",
        "label": "bytes32[]",
        "numberOfBytes": "32"
      },
      "t_array(t_uint256)44_storage": {
        "base": "t_uint256",
        "encoding": "inplace",
        "label": "uint256[44]",
        "numberOfBytes": "1408"
      },
      "t_array(t_uint256)46_storage": {
        "base": "t_uint256",
        "encoding": "inplace",
        "label": "uint256[46]",
        "numberOfBytes": "1472"
      },
      "t_array(t_uint256)48_storage": {
        "base": "t_uint256",
        "encoding": "inplace",
        "label": "uint256[48]",
        "numberOfBytes": "1536"
      },
      "t_array(t_uint256)49_storage": {
        "base": "t_uint256",
        "encoding": "inplace",
        "label": "uint256[49]",
        "numberOfBytes": "1568"
      },
      "t_array(t_uint256)50_storage": {
        "base": "t_uint256",
        "encoding": "inplace",
        "label": "uint256[50]",
        "numberOfBytes": "1600"
      },
      "t_array(t_uint256)dyn_storage": {
        "base": "t_uint256",
        "encoding": "dynamic_array",
        "label": "uint256[]",
        "numberOfBytes": "32"
      },
      "t_bool": {
        "encoding": "inplace",
        "label": "bool",
        "numberOfBytes": "1"
      },
      "t_bytes32": {
        "encoding": "inplace",
        "label": "bytes32",
        "numberOfBytes": "32"
      },
      "t_mapping(t_address,t_bool)": {
        "encoding": "mapping",
        "key": "t_address",
        "label": "mapping(address => bool)",
        "numberOfBytes": "32",
        "value": "t_bool"
      },
      "t_mapping(t_address,t_mapping(t_address,t_bool))": {
        "encoding": "mapping",
        "key": "t_address",
        "label": "mapping(address => mapping(address => bool))",
        "numberOfBytes": "32",
        "value": "t_mapping(t_address,t_bool)"
      },
      "t_mapping(t_address,t_mapping(t_uint256,t_uint256))": {
        "encoding": "mapping",
        "key": "t_address",
        "label": "mapping(address => mapping(uint256 => uint256))",
        "numberOfBytes": "32",
        "value": "t_mapping(t_uint256,t_uint256)"
      },
      "t_mapping(t_address,t_struct(SecurityInfo)7716_storage)": {
        "encoding": "mapping",
        "key": "t_address",
        "label": "mapping(address => struct ERC721Security.SecurityInfo)",
        "numberOfBytes": "32",
        "value": "t_struct(SecurityInfo)7716_storage"
      },
      "t_mapping(t_address,t_uint256)": {
        "encoding": "mapping",
        "key": "t_address",
        "label": "mapping(address => uint256)",
        "numberOfBytes": "32",
        "value": "t_uint256"
      },
      "t_mapping(t_bytes32,t_bool)": {
        "encoding": "mapping",
        "key": "t_bytes32",
        "label": "mapping(bytes32 => bool)",
        "numberOfBytes": "32",
        "value": "t_bool"
      },
      "t_mapping(t_bytes32,t_struct(AddressSet)5016_storage)": {
        "encoding": "mapping",
        "key": "t_bytes32",
        "label": "mapping(bytes32 => struct EnumerableSetUpgradeable.AddressSet)",
        "numberOfBytes": "32",
        "value": "t_struct(AddressSet)5016_storage"
      },
      "t_mapping(t_bytes32,t_struct(RoleData)169_storage)": {
        "encoding": "mapping",
        "key": "t_bytes32",
        "label": "mapping(bytes32 => struct AccessControlUpgradeable.RoleData)",
        "numberOfBytes": "32",
        "value": "t_struct(RoleData)169_storage"
      },
      "t_mapping(t_bytes32,t_uint256)": {
        "encoding": "mapping",
        "key": "t_bytes32",
        "label": "mapping(bytes32 => uint256)",
        "numberOfBytes": "32",
        "value": "t_uint256"
      },
      "t_mapping(t_uint256,t_address)": {
        "encoding": "mapping",
        "key": "t_uint256",
        "label": "mapping(uint256 => address)",
        "numberOfBytes": "32",
        "value": "t_address"
      },
      "t_mapping(t_uint256,t_string_storage)": {
        "encoding": "mapping",
        "key": "t_uint256",
        "label": "mapping(uint256 => string)",
        "numberOfBytes": "32",
        "value": "t_string_storage"
      },
      "t_mapping(t_uint256,t_struct(RoyaltyInfo)6456_storage)": {
        "encoding": "mapping",
        "key": "t_uint256",
        "label": "mapping(uint256 => struct IRoyalty.RoyaltyInfo)",
        "numberOfBytes": "32",
        "value": "t_struct(RoyaltyInfo)6456_storage"
      },
      "t_mapping(t_uint256,t_uint256)": {
        "encoding": "mapping",
        "key": "t_uint256",
        "label": "mapping(uint256 => uint256)",
        "numberOfBytes": "32",
        "value": "t_uint256"
      },
      "t_string_storage": {
        "encoding": "bytes",
        "label": "string",
        "numberOfBytes": "32"
      },
      "t_struct(AddressSet)5016_storage": {
        "encoding": "inplace",
        "label": "struct EnumerableSetUpgradeable.AddressSet",
        "members": [
          {
            "astId": 5015,
            "contract": "contracts/tokens/ERC721Security.sol:ERC721Security",
            "label": "_inner",
            "offset": 0,
            "slot": "0",
            "type": "t_struct(Set)4701_storage"
          }
        ],
        "numberOfBytes": "64"
      },
      "t_struct(RoleData)169_storage": {
        "encoding": "inplace",
        "label": "struct AccessControlUpgradeable.RoleData",
        "members": [
          {
            "astId": 166,
            "contract": "contracts/tokens/ERC721Security.sol:ERC721Security",
            "label": "members",
            "offset": 0,
            "slot": "0",
            "type": "t_mapping(t_address,t_bool)"
          },
          {
            "astId": 168,
            "contract": "contracts/tokens/ERC721Security.sol:ERC721Security",
            "label": "adminRole",
            "offset": 0,
            "slot": "1",
            "type": "t_bytes32"
          }
        ],
        "numberOfBytes": "64"
      },
      "t_struct(RoyaltyInfo)6456_storage": {
        "encoding": "inplace",
        "label": "struct IRoyalty.RoyaltyInfo",
        "members": [
          {
            "astId": 6453,
            "contract": "contracts/tokens/ERC721Security.sol:ERC721Security",
            "label": "recipient",
            "offset": 0,
            "slot": "0",
            "type": "t_address"
          },
          {
            "astId": 6455,
            "contract": "contracts/tokens/ERC721Security.sol:ERC721Security",
            "label": "bps",
            "offset": 0,
            "slot": "1",
            "type": "t_uint256"
          }
        ],
        "numberOfBytes": "64"
      },
      "t_struct(SecurityInfo)7716_storage": {
        "encoding": "inplace",
        "label": "struct ERC721Security.SecurityInfo",
        "members": [
          {
            "astId": 7707,
            "contract": "contracts/tokens/ERC721Security.sol:ERC721Security",
            "label": "uri",
            "offset": 0,
            "slot": "0",
            "type": "t_string_storage"
          },
          {
            "astId": 7709,
            "contract": "contracts/tokens/ERC721Security.sol:ERC721Security",
            "label": "hashBytecode",
            "offset": 0,
            "slot": "1",
            "type": "t_uint256"
          },
          {
            "astId": 7711,
            "contract": "contracts/tokens/ERC721Security.sol:ERC721Security",
            "label": "hashInitData",
            "offset": 0,
            "slot": "2",
            "type": "t_uint256"
          },
          {
            "astId": 7713,
            "contract": "contracts/tokens/ERC721Security.sol:ERC721Security",
            "label": "secure",
            "offset": 0,
            "slot": "3",
            "type": "t_bool"
          },
          {
            "astId": 7715,
            "contract": "contracts/tokens/ERC721Security.sol:ERC721Security",
            "label": "contractAddress",
            "offset": 1,
            "slot": "3",
            "type": "t_address"
          }
        ],
        "numberOfBytes": "128"
      },
      "t_struct(Set)4701_storage": {
        "encoding": "inplace",
        "label": "struct EnumerableSetUpgradeable.Set",
        "members": [
          {
            "astId": 4696,
            "contract": "contracts/tokens/ERC721Security.sol:ERC721Security",
            "label": "_values",
            "offset": 0,
            "slot": "0",
            "type": "t_array(t_bytes32)dyn_storage"
          },
          {
            "astId": 4700,
            "contract": "contracts/tokens/ERC721Security.sol:ERC721Security",
            "label": "_indexes",
            "offset": 0,
            "slot": "1",
            "type": "t_mapping(t_bytes32,t_uint256)"
          }
        ],
        "numberOfBytes": "64"
      },
      "t_uint128": {
        "encoding": "inplace",
        "label": "uint128",
        "numberOfBytes": "16"
      },
      "t_uint256": {
        "encoding": "inplace",
        "label": "uint256",
        "numberOfBytes": "32"
      },
      "t_uint8": {
        "encoding": "inplace",
        "label": "uint8",
        "numberOfBytes": "1"
      }
    }
  }
}