{
  "address": "0x2b5fB899a7B64b35d95fC84Fe2784d089E7730E9",
  "abi": [
    {
      "inputs": [
        {
          "internalType": "address",
          "name": "recipient",
          "type": "address"
        },
        {
          "internalType": "uint256",
          "name": "value",
          "type": "uint256"
        }
      ],
      "name": "CurrencyTransferLibFailedNativeTransfer",
      "type": "error"
    },
    {
      "inputs": [
        {
          "internalType": "uint256",
          "name": "tokenId",
          "type": "uint256"
        }
      ],
      "name": "NFTMetadataFrozen",
      "type": "error"
    },
    {
      "inputs": [],
      "name": "NFTMetadataInvalidUrl",
      "type": "error"
    },
    {
      "inputs": [],
      "name": "NFTMetadataUnauthorized",
      "type": "error"
    },
    {
      "anonymous": false,
      "inputs": [
        {
          "indexed": true,
          "internalType": "address",
          "name": "owner",
          "type": "address"
        },
        {
          "indexed": true,
          "internalType": "address",
          "name": "approved",
          "type": "address"
        },
        {
          "indexed": true,
          "internalType": "uint256",
          "name": "tokenId",
          "type": "uint256"
        }
      ],
      "name": "Approval",
      "type": "event"
    },
    {
      "anonymous": false,
      "inputs": [
        {
          "indexed": true,
          "internalType": "address",
          "name": "owner",
          "type": "address"
        },
        {
          "indexed": true,
          "internalType": "address",
          "name": "operator",
          "type": "address"
        },
        {
          "indexed": false,
          "internalType": "bool",
          "name": "approved",
          "type": "bool"
        }
      ],
      "name": "ApprovalForAll",
      "type": "event"
    },
    {
      "anonymous": false,
      "inputs": [
        {
          "indexed": false,
          "internalType": "uint256",
          "name": "_fromTokenId",
          "type": "uint256"
        },
        {
          "indexed": false,
          "internalType": "uint256",
          "name": "_toTokenId",
          "type": "uint256"
        }
      ],
      "name": "BatchMetadataUpdate",
      "type": "event"
    },
    {
      "anonymous": false,
      "inputs": [
        {
          "indexed": true,
          "internalType": "address",
          "name": "newRoyaltyRecipient",
          "type": "address"
        },
        {
          "indexed": false,
          "internalType": "uint256",
          "name": "newRoyaltyBps",
          "type": "uint256"
        }
      ],
      "name": "DefaultRoyalty",
      "type": "event"
    },
    {
      "anonymous": false,
      "inputs": [],
      "name": "EIP712DomainChanged",
      "type": "event"
    },
    {
      "anonymous": false,
      "inputs": [
        {
          "indexed": false,
          "internalType": "address",
          "name": "platformFeeRecipient",
          "type": "address"
        },
        {
          "indexed": false,
          "internalType": "uint256",
          "name": "flatFee",
          "type": "uint256"
        }
      ],
      "name": "FlatPlatformFeeUpdated",
      "type": "event"
    },
    {
      "anonymous": false,
      "inputs": [
        {
          "indexed": false,
          "internalType": "uint8",
          "name": "version",
          "type": "uint8"
        }
      ],
      "name": "Initialized",
      "type": "event"
    },
    {
      "anonymous": false,
      "inputs": [],
      "name": "MetadataFrozen",
      "type": "event"
    },
    {
      "anonymous": false,
      "inputs": [
        {
          "indexed": false,
          "internalType": "uint256",
          "name": "_tokenId",
          "type": "uint256"
        }
      ],
      "name": "MetadataUpdate",
      "type": "event"
    },
    {
      "anonymous": false,
      "inputs": [
        {
          "indexed": true,
          "internalType": "address",
          "name": "prevOwner",
          "type": "address"
        },
        {
          "indexed": true,
          "internalType": "address",
          "name": "newOwner",
          "type": "address"
        }
      ],
      "name": "OwnerUpdated",
      "type": "event"
    },
    {
      "anonymous": false,
      "inputs": [
        {
          "indexed": true,
          "internalType": "address",
          "name": "platformFeeRecipient",
          "type": "address"
        },
        {
          "indexed": false,
          "internalType": "uint256",
          "name": "platformFeeBps",
          "type": "uint256"
        }
      ],
      "name": "PlatformFeeInfoUpdated",
      "type": "event"
    },
    {
      "anonymous": false,
      "inputs": [
        {
          "indexed": false,
          "internalType": "enum IPlatformFee.PlatformFeeType",
          "name": "feeType",
          "type": "uint8"
        }
      ],
      "name": "PlatformFeeTypeUpdated",
      "type": "event"
    },
    {
      "anonymous": false,
      "inputs": [
        {
          "indexed": true,
          "internalType": "address",
          "name": "recipient",
          "type": "address"
        }
      ],
      "name": "PrimarySaleRecipientUpdated",
      "type": "event"
    },
    {
      "anonymous": false,
      "inputs": [
        {
          "indexed": true,
          "internalType": "bytes32",
          "name": "role",
          "type": "bytes32"
        },
        {
          "indexed": true,
          "internalType": "bytes32",
          "name": "previousAdminRole",
          "type": "bytes32"
        },
        {
          "indexed": true,
          "internalType": "bytes32",
          "name": "newAdminRole",
          "type": "bytes32"
        }
      ],
      "name": "RoleAdminChanged",
      "type": "event"
    },
    {
      "anonymous": false,
      "inputs": [
        {
          "indexed": true,
          "internalType": "bytes32",
          "name": "role",
          "type": "bytes32"
        },
        {
          "indexed": true,
          "internalType": "address",
          "name": "account",
          "type": "address"
        },
        {
          "indexed": true,
          "internalType": "address",
          "name": "sender",
          "type": "address"
        }
      ],
      "name": "RoleGranted",
      "type": "event"
    },
    {
      "anonymous": false,
      "inputs": [
        {
          "indexed": true,
          "internalType": "bytes32",
          "name": "role",
          "type": "bytes32"
        },
        {
          "indexed": true,
          "internalType": "address",
          "name": "account",
          "type": "address"
        },
        {
          "indexed": true,
          "internalType": "address",
          "name": "sender",
          "type": "address"
        }
      ],
      "name": "RoleRevoked",
      "type": "event"
    },
    {
      "anonymous": false,
      "inputs": [
        {
          "indexed": true,
          "internalType": "uint256",
          "name": "tokenId",
          "type": "uint256"
        },
        {
          "indexed": true,
          "internalType": "address",
          "name": "royaltyRecipient",
          "type": "address"
        },
        {
          "indexed": false,
          "internalType": "uint256",
          "name": "royaltyBps",
          "type": "uint256"
        }
      ],
      "name": "RoyaltyForToken",
      "type": "event"
    },
    {
      "anonymous": false,
      "inputs": [
        {
          "indexed": true,
          "internalType": "address",
          "name": "mintedTo",
          "type": "address"
        },
        {
          "indexed": true,
          "internalType": "uint256",
          "name": "tokenIdMinted",
          "type": "uint256"
        },
        {
          "indexed": false,
          "internalType": "string",
          "name": "uri",
          "type": "string"
        }
      ],
      "name": "TokensMinted",
      "type": "event"
    },
    {
      "anonymous": false,
      "inputs": [
        {
          "indexed": true,
          "internalType": "address",
          "name": "signer",
          "type": "address"
        },
        {
          "indexed": true,
          "internalType": "address",
          "name": "mintedTo",
          "type": "address"
        },
        {
          "indexed": true,
          "internalType": "uint256",
          "name": "tokenIdMinted",
          "type": "uint256"
        },
        {
          "components": [
            {
              "internalType": "address",
              "name": "to",
              "type": "address"
            },
            {
              "internalType": "address",
              "name": "royaltyRecipient",
              "type": "address"
            },
            {
              "internalType": "uint256",
              "name": "royaltyBps",
              "type": "uint256"
            },
            {
              "internalType": "address",
              "name": "primarySaleRecipient",
              "type": "address"
            },
            {
              "internalType": "string",
              "name": "uri",
              "type": "string"
            },
            {
              "internalType": "uint256",
              "name": "price",
              "type": "uint256"
            },
            {
              "internalType": "address",
              "name": "currency",
              "type": "address"
            },
            {
              "internalType": "uint128",
              "name": "validityStartTimestamp",
              "type": "uint128"
            },
            {
              "internalType": "uint128",
              "name": "validityEndTimestamp",
              "type": "uint128"
            },
            {
              "internalType": "bytes32",
              "name": "uid",
              "type": "bytes32"
            },
            {
              "internalType": "bool",
              "name": "secure",
              "type": "bool"
            },
            {
              "internalType": "address",
              "name": "contractAddress",
              "type": "address"
            }
          ],
          "indexed": false,
          "internalType": "struct ISecurityTokenERC721.MintRequest",
          "name": "mintRequest",
          "type": "tuple"
        }
      ],
      "name": "TokensMintedWithSignature",
      "type": "event"
    },
    {
      "anonymous": false,
      "inputs": [
        {
          "indexed": true,
          "internalType": "address",
          "name": "from",
          "type": "address"
        },
        {
          "indexed": true,
          "internalType": "address",
          "name": "to",
          "type": "address"
        },
        {
          "indexed": true,
          "internalType": "uint256",
          "name": "tokenId",
          "type": "uint256"
        }
      ],
      "name": "Transfer",
      "type": "event"
    },
    {
      "inputs": [],
      "name": "DEFAULT_ADMIN_ROLE",
      "outputs": [
        {
          "internalType": "bytes32",
          "name": "",
          "type": "bytes32"
        }
      ],
      "stateMutability": "view",
      "type": "function"
    },
    {
      "inputs": [],
      "name": "METADATA_ROLE",
      "outputs": [
        {
          "internalType": "bytes32",
          "name": "",
          "type": "bytes32"
        }
      ],
      "stateMutability": "view",
      "type": "function"
    },
    {
      "inputs": [],
      "name": "MINTER_ROLE",
      "outputs": [
        {
          "internalType": "bytes32",
          "name": "",
          "type": "bytes32"
        }
      ],
      "stateMutability": "view",
      "type": "function"
    },
    {
      "inputs": [],
      "name": "TRANSFER_ROLE",
      "outputs": [
        {
          "internalType": "bytes32",
          "name": "",
          "type": "bytes32"
        }
      ],
      "stateMutability": "view",
      "type": "function"
    },
    {
      "inputs": [
        {
          "internalType": "address",
          "name": "to",
          "type": "address"
        },
        {
          "internalType": "uint256",
          "name": "tokenId",
          "type": "uint256"
        }
      ],
      "name": "approve",
      "outputs": [],
      "stateMutability": "nonpayable",
      "type": "function"
    },
    {
      "inputs": [
        {
          "internalType": "address",
          "name": "owner",
          "type": "address"
        }
      ],
      "name": "balanceOf",
      "outputs": [
        {
          "internalType": "uint256",
          "name": "",
          "type": "uint256"
        }
      ],
      "stateMutability": "view",
      "type": "function"
    },
    {
      "inputs": [
        {
          "internalType": "uint256",
          "name": "tokenId",
          "type": "uint256"
        }
      ],
      "name": "burn",
      "outputs": [],
      "stateMutability": "nonpayable",
      "type": "function"
    },
    {
      "inputs": [],
      "name": "contractType",
      "outputs": [
        {
          "internalType": "bytes32",
          "name": "",
          "type": "bytes32"
        }
      ],
      "stateMutability": "pure",
      "type": "function"
    },
    {
      "inputs": [],
      "name": "contractURI",
      "outputs": [
        {
          "internalType": "string",
          "name": "",
          "type": "string"
        }
      ],
      "stateMutability": "view",
      "type": "function"
    },
    {
      "inputs": [],
      "name": "contractVersion",
      "outputs": [
        {
          "internalType": "uint8",
          "name": "",
          "type": "uint8"
        }
      ],
      "stateMutability": "pure",
      "type": "function"
    },
    {
      "inputs": [
        {
          "internalType": "address",
          "name": "",
          "type": "address"
        }
      ],
      "name": "contracts",
      "outputs": [
        {
          "internalType": "string",
          "name": "uri",
          "type": "string"
        },
        {
          "internalType": "uint256",
          "name": "hashBytecode",
          "type": "uint256"
        },
        {
          "internalType": "uint256",
          "name": "hashInitData",
          "type": "uint256"
        },
        {
          "internalType": "bool",
          "name": "secure",
          "type": "bool"
        },
        {
          "internalType": "address",
          "name": "contractAddress",
          "type": "address"
        }
      ],
      "stateMutability": "view",
      "type": "function"
    },
    {
      "inputs": [],
      "name": "eip712Domain",
      "outputs": [
        {
          "internalType": "bytes1",
          "name": "fields",
          "type": "bytes1"
        },
        {
          "internalType": "string",
          "name": "name",
          "type": "string"
        },
        {
          "internalType": "string",
          "name": "version",
          "type": "string"
        },
        {
          "internalType": "uint256",
          "name": "chainId",
          "type": "uint256"
        },
        {
          "internalType": "address",
          "name": "verifyingContract",
          "type": "address"
        },
        {
          "internalType": "bytes32",
          "name": "salt",
          "type": "bytes32"
        },
        {
          "internalType": "uint256[]",
          "name": "extensions",
          "type": "uint256[]"
        }
      ],
      "stateMutability": "view",
      "type": "function"
    },
    {
      "inputs": [],
      "name": "freezeMetadata",
      "outputs": [],
      "stateMutability": "nonpayable",
      "type": "function"
    },
    {
      "inputs": [
        {
          "internalType": "uint256",
          "name": "tokenId",
          "type": "uint256"
        }
      ],
      "name": "getApproved",
      "outputs": [
        {
          "internalType": "address",
          "name": "",
          "type": "address"
        }
      ],
      "stateMutability": "view",
      "type": "function"
    },
    {
      "inputs": [],
      "name": "getDefaultRoyaltyInfo",
      "outputs": [
        {
          "internalType": "address",
          "name": "",
          "type": "address"
        },
        {
          "internalType": "uint16",
          "name": "",
          "type": "uint16"
        }
      ],
      "stateMutability": "view",
      "type": "function"
    },
    {
      "inputs": [],
      "name": "getPlatformFeeInfo",
      "outputs": [
        {
          "internalType": "address",
          "name": "",
          "type": "address"
        },
        {
          "internalType": "uint16",
          "name": "",
          "type": "uint16"
        }
      ],
      "stateMutability": "view",
      "type": "function"
    },
    {
      "inputs": [
        {
          "internalType": "bytes32",
          "name": "role",
          "type": "bytes32"
        }
      ],
      "name": "getRoleAdmin",
      "outputs": [
        {
          "internalType": "bytes32",
          "name": "",
          "type": "bytes32"
        }
      ],
      "stateMutability": "view",
      "type": "function"
    },
    {
      "inputs": [
        {
          "internalType": "bytes32",
          "name": "role",
          "type": "bytes32"
        },
        {
          "internalType": "uint256",
          "name": "index",
          "type": "uint256"
        }
      ],
      "name": "getRoleMember",
      "outputs": [
        {
          "internalType": "address",
          "name": "",
          "type": "address"
        }
      ],
      "stateMutability": "view",
      "type": "function"
    },
    {
      "inputs": [
        {
          "internalType": "bytes32",
          "name": "role",
          "type": "bytes32"
        }
      ],
      "name": "getRoleMemberCount",
      "outputs": [
        {
          "internalType": "uint256",
          "name": "",
          "type": "uint256"
        }
      ],
      "stateMutability": "view",
      "type": "function"
    },
    {
      "inputs": [
        {
          "internalType": "uint256",
          "name": "_tokenId",
          "type": "uint256"
        }
      ],
      "name": "getRoyaltyInfoForToken",
      "outputs": [
        {
          "internalType": "address",
          "name": "",
          "type": "address"
        },
        {
          "internalType": "uint16",
          "name": "",
          "type": "uint16"
        }
      ],
      "stateMutability": "view",
      "type": "function"
    },
    {
      "inputs": [
        {
          "internalType": "bytes32",
          "name": "role",
          "type": "bytes32"
        },
        {
          "internalType": "address",
          "name": "account",
          "type": "address"
        }
      ],
      "name": "grantRole",
      "outputs": [],
      "stateMutability": "nonpayable",
      "type": "function"
    },
    {
      "inputs": [
        {
          "internalType": "bytes32",
          "name": "role",
          "type": "bytes32"
        },
        {
          "internalType": "address",
          "name": "account",
          "type": "address"
        }
      ],
      "name": "hasRole",
      "outputs": [
        {
          "internalType": "bool",
          "name": "",
          "type": "bool"
        }
      ],
      "stateMutability": "view",
      "type": "function"
    },
    {
      "inputs": [
        {
          "internalType": "address",
          "name": "_defaultAdmin",
          "type": "address"
        },
        {
          "internalType": "address",
          "name": "_defaultMinter",
          "type": "address"
        },
        {
          "internalType": "string",
          "name": "_name",
          "type": "string"
        },
        {
          "internalType": "string",
          "name": "_symbol",
          "type": "string"
        },
        {
          "internalType": "string",
          "name": "_contractURI",
          "type": "string"
        },
        {
          "internalType": "address[]",
          "name": "_trustedForwarders",
          "type": "address[]"
        },
        {
          "internalType": "address",
          "name": "_saleRecipient",
          "type": "address"
        },
        {
          "internalType": "address",
          "name": "_royaltyRecipient",
          "type": "address"
        },
        {
          "internalType": "uint128",
          "name": "_royaltyBps",
          "type": "uint128"
        },
        {
          "internalType": "uint128",
          "name": "_platformFeeBps",
          "type": "uint128"
        },
        {
          "internalType": "address",
          "name": "_platformFeeRecipient",
          "type": "address"
        }
      ],
      "name": "initialize",
      "outputs": [],
      "stateMutability": "nonpayable",
      "type": "function"
    },
    {
      "inputs": [
        {
          "internalType": "address",
          "name": "owner",
          "type": "address"
        },
        {
          "internalType": "address",
          "name": "operator",
          "type": "address"
        }
      ],
      "name": "isApprovedForAll",
      "outputs": [
        {
          "internalType": "bool",
          "name": "",
          "type": "bool"
        }
      ],
      "stateMutability": "view",
      "type": "function"
    },
    {
      "inputs": [
        {
          "internalType": "address",
          "name": "forwarder",
          "type": "address"
        }
      ],
      "name": "isTrustedForwarder",
      "outputs": [
        {
          "internalType": "bool",
          "name": "",
          "type": "bool"
        }
      ],
      "stateMutability": "view",
      "type": "function"
    },
    {
      "inputs": [
        {
          "internalType": "address",
          "name": "_to",
          "type": "address"
        },
        {
          "internalType": "string",
          "name": "_uri",
          "type": "string"
        },
        {
          "internalType": "bool",
          "name": "_secure",
          "type": "bool"
        },
        {
          "internalType": "address",
          "name": "_contractAddress",
          "type": "address"
        }
      ],
      "name": "mintTo",
      "outputs": [
        {
          "internalType": "uint256",
          "name": "",
          "type": "uint256"
        }
      ],
      "stateMutability": "nonpayable",
      "type": "function"
    },
    {
      "inputs": [
        {
          "components": [
            {
              "internalType": "address",
              "name": "to",
              "type": "address"
            },
            {
              "internalType": "address",
              "name": "royaltyRecipient",
              "type": "address"
            },
            {
              "internalType": "uint256",
              "name": "royaltyBps",
              "type": "uint256"
            },
            {
              "internalType": "address",
              "name": "primarySaleRecipient",
              "type": "address"
            },
            {
              "internalType": "string",
              "name": "uri",
              "type": "string"
            },
            {
              "internalType": "uint256",
              "name": "price",
              "type": "uint256"
            },
            {
              "internalType": "address",
              "name": "currency",
              "type": "address"
            },
            {
              "internalType": "uint128",
              "name": "validityStartTimestamp",
              "type": "uint128"
            },
            {
              "internalType": "uint128",
              "name": "validityEndTimestamp",
              "type": "uint128"
            },
            {
              "internalType": "bytes32",
              "name": "uid",
              "type": "bytes32"
            },
            {
              "internalType": "bool",
              "name": "secure",
              "type": "bool"
            },
            {
              "internalType": "address",
              "name": "contractAddress",
              "type": "address"
            }
          ],
          "internalType": "struct ISecurityTokenERC721.MintRequest",
          "name": "_req",
          "type": "tuple"
        },
        {
          "internalType": "bytes",
          "name": "_signature",
          "type": "bytes"
        }
      ],
      "name": "mintWithSignature",
      "outputs": [
        {
          "internalType": "uint256",
          "name": "tokenIdMinted",
          "type": "uint256"
        }
      ],
      "stateMutability": "payable",
      "type": "function"
    },
    {
      "inputs": [
        {
          "internalType": "bytes[]",
          "name": "data",
          "type": "bytes[]"
        }
      ],
      "name": "multicall",
      "outputs": [
        {
          "internalType": "bytes[]",
          "name": "results",
          "type": "bytes[]"
        }
      ],
      "stateMutability": "nonpayable",
      "type": "function"
    },
    {
      "inputs": [],
      "name": "name",
      "outputs": [
        {
          "internalType": "string",
          "name": "",
          "type": "string"
        }
      ],
      "stateMutability": "view",
      "type": "function"
    },
    {
      "inputs": [],
      "name": "nextTokenIdToMint",
      "outputs": [
        {
          "internalType": "uint256",
          "name": "",
          "type": "uint256"
        }
      ],
      "stateMutability": "view",
      "type": "function"
    },
    {
      "inputs": [],
      "name": "owner",
      "outputs": [
        {
          "internalType": "address",
          "name": "",
          "type": "address"
        }
      ],
      "stateMutability": "view",
      "type": "function"
    },
    {
      "inputs": [
        {
          "internalType": "uint256",
          "name": "tokenId",
          "type": "uint256"
        }
      ],
      "name": "ownerOf",
      "outputs": [
        {
          "internalType": "address",
          "name": "",
          "type": "address"
        }
      ],
      "stateMutability": "view",
      "type": "function"
    },
    {
      "inputs": [],
      "name": "platformFeeRecipient",
      "outputs": [
        {
          "internalType": "address",
          "name": "",
          "type": "address"
        }
      ],
      "stateMutability": "view",
      "type": "function"
    },
    {
      "inputs": [],
      "name": "primarySaleRecipient",
      "outputs": [
        {
          "internalType": "address",
          "name": "",
          "type": "address"
        }
      ],
      "stateMutability": "view",
      "type": "function"
    },
    {
      "inputs": [
        {
          "internalType": "bytes32",
          "name": "role",
          "type": "bytes32"
        },
        {
          "internalType": "address",
          "name": "account",
          "type": "address"
        }
      ],
      "name": "renounceRole",
      "outputs": [],
      "stateMutability": "nonpayable",
      "type": "function"
    },
    {
      "inputs": [
        {
          "internalType": "bytes32",
          "name": "role",
          "type": "bytes32"
        },
        {
          "internalType": "address",
          "name": "account",
          "type": "address"
        }
      ],
      "name": "revokeRole",
      "outputs": [],
      "stateMutability": "nonpayable",
      "type": "function"
    },
    {
      "inputs": [
        {
          "internalType": "uint256",
          "name": "tokenId",
          "type": "uint256"
        },
        {
          "internalType": "uint256",
          "name": "salePrice",
          "type": "uint256"
        }
      ],
      "name": "royaltyInfo",
      "outputs": [
        {
          "internalType": "address",
          "name": "receiver",
          "type": "address"
        },
        {
          "internalType": "uint256",
          "name": "royaltyAmount",
          "type": "uint256"
        }
      ],
      "stateMutability": "view",
      "type": "function"
    },
    {
      "inputs": [
        {
          "internalType": "address",
          "name": "from",
          "type": "address"
        },
        {
          "internalType": "address",
          "name": "to",
          "type": "address"
        },
        {
          "internalType": "uint256",
          "name": "tokenId",
          "type": "uint256"
        }
      ],
      "name": "safeTransferFrom",
      "outputs": [],
      "stateMutability": "nonpayable",
      "type": "function"
    },
    {
      "inputs": [
        {
          "internalType": "address",
          "name": "from",
          "type": "address"
        },
        {
          "internalType": "address",
          "name": "to",
          "type": "address"
        },
        {
          "internalType": "uint256",
          "name": "tokenId",
          "type": "uint256"
        },
        {
          "internalType": "bytes",
          "name": "data",
          "type": "bytes"
        }
      ],
      "name": "safeTransferFrom",
      "outputs": [],
      "stateMutability": "nonpayable",
      "type": "function"
    },
    {
      "inputs": [
        {
          "internalType": "address",
          "name": "operator",
          "type": "address"
        },
        {
          "internalType": "bool",
          "name": "approved",
          "type": "bool"
        }
      ],
      "name": "setApprovalForAll",
      "outputs": [],
      "stateMutability": "nonpayable",
      "type": "function"
    },
    {
      "inputs": [
        {
          "internalType": "string",
          "name": "_uri",
          "type": "string"
        }
      ],
      "name": "setContractURI",
      "outputs": [],
      "stateMutability": "nonpayable",
      "type": "function"
    },
    {
      "inputs": [
        {
          "internalType": "address",
          "name": "_royaltyRecipient",
          "type": "address"
        },
        {
          "internalType": "uint256",
          "name": "_royaltyBps",
          "type": "uint256"
        }
      ],
      "name": "setDefaultRoyaltyInfo",
      "outputs": [],
      "stateMutability": "nonpayable",
      "type": "function"
    },
    {
      "inputs": [
        {
          "internalType": "address",
          "name": "_newOwner",
          "type": "address"
        }
      ],
      "name": "setOwner",
      "outputs": [],
      "stateMutability": "nonpayable",
      "type": "function"
    },
    {
      "inputs": [
        {
          "internalType": "address",
          "name": "_platformFeeRecipient",
          "type": "address"
        },
        {
          "internalType": "uint256",
          "name": "_platformFeeBps",
          "type": "uint256"
        }
      ],
      "name": "setPlatformFeeInfo",
      "outputs": [],
      "stateMutability": "nonpayable",
      "type": "function"
    },
    {
      "inputs": [
        {
          "internalType": "address",
          "name": "_saleRecipient",
          "type": "address"
        }
      ],
      "name": "setPrimarySaleRecipient",
      "outputs": [],
      "stateMutability": "nonpayable",
      "type": "function"
    },
    {
      "inputs": [
        {
          "internalType": "uint256",
          "name": "_tokenId",
          "type": "uint256"
        },
        {
          "internalType": "address",
          "name": "_recipient",
          "type": "address"
        },
        {
          "internalType": "uint256",
          "name": "_bps",
          "type": "uint256"
        }
      ],
      "name": "setRoyaltyInfoForToken",
      "outputs": [],
      "stateMutability": "nonpayable",
      "type": "function"
    },
    {
      "inputs": [
        {
          "internalType": "uint256",
          "name": "_tokenId",
          "type": "uint256"
        },
        {
          "internalType": "string",
          "name": "_uri",
          "type": "string"
        }
      ],
      "name": "setTokenURI",
      "outputs": [],
      "stateMutability": "nonpayable",
      "type": "function"
    },
    {
      "inputs": [
        {
          "internalType": "bytes4",
          "name": "interfaceId",
          "type": "bytes4"
        }
      ],
      "name": "supportsInterface",
      "outputs": [
        {
          "internalType": "bool",
          "name": "",
          "type": "bool"
        }
      ],
      "stateMutability": "view",
      "type": "function"
    },
    {
      "inputs": [],
      "name": "symbol",
      "outputs": [
        {
          "internalType": "string",
          "name": "",
          "type": "string"
        }
      ],
      "stateMutability": "view",
      "type": "function"
    },
    {
      "inputs": [
        {
          "internalType": "uint256",
          "name": "index",
          "type": "uint256"
        }
      ],
      "name": "tokenByIndex",
      "outputs": [
        {
          "internalType": "uint256",
          "name": "",
          "type": "uint256"
        }
      ],
      "stateMutability": "view",
      "type": "function"
    },
    {
      "inputs": [
        {
          "internalType": "address",
          "name": "owner",
          "type": "address"
        },
        {
          "internalType": "uint256",
          "name": "index",
          "type": "uint256"
        }
      ],
      "name": "tokenOfOwnerByIndex",
      "outputs": [
        {
          "internalType": "uint256",
          "name": "",
          "type": "uint256"
        }
      ],
      "stateMutability": "view",
      "type": "function"
    },
    {
      "inputs": [
        {
          "internalType": "uint256",
          "name": "_tokenId",
          "type": "uint256"
        }
      ],
      "name": "tokenURI",
      "outputs": [
        {
          "internalType": "string",
          "name": "",
          "type": "string"
        }
      ],
      "stateMutability": "view",
      "type": "function"
    },
    {
      "inputs": [],
      "name": "totalSupply",
      "outputs": [
        {
          "internalType": "uint256",
          "name": "",
          "type": "uint256"
        }
      ],
      "stateMutability": "view",
      "type": "function"
    },
    {
      "inputs": [
        {
          "internalType": "address",
          "name": "from",
          "type": "address"
        },
        {
          "internalType": "address",
          "name": "to",
          "type": "address"
        },
        {
          "internalType": "uint256",
          "name": "tokenId",
          "type": "uint256"
        }
      ],
      "name": "transferFrom",
      "outputs": [],
      "stateMutability": "nonpayable",
      "type": "function"
    },
    {
      "inputs": [
        {
          "internalType": "address",
          "name": "_contractAddress",
          "type": "address"
        },
        {
          "internalType": "bool",
          "name": "_secure",
          "type": "bool"
        }
      ],
      "name": "updateSecureField",
      "outputs": [],
      "stateMutability": "nonpayable",
      "type": "function"
    },
    {
      "inputs": [],
      "name": "uriFrozen",
      "outputs": [
        {
          "internalType": "bool",
          "name": "",
          "type": "bool"
        }
      ],
      "stateMutability": "view",
      "type": "function"
    },
    {
      "inputs": [
        {
          "components": [
            {
              "internalType": "address",
              "name": "to",
              "type": "address"
            },
            {
              "internalType": "address",
              "name": "royaltyRecipient",
              "type": "address"
            },
            {
              "internalType": "uint256",
              "name": "royaltyBps",
              "type": "uint256"
            },
            {
              "internalType": "address",
              "name": "primarySaleRecipient",
              "type": "address"
            },
            {
              "internalType": "string",
              "name": "uri",
              "type": "string"
            },
            {
              "internalType": "uint256",
              "name": "price",
              "type": "uint256"
            },
            {
              "internalType": "address",
              "name": "currency",
              "type": "address"
            },
            {
              "internalType": "uint128",
              "name": "validityStartTimestamp",
              "type": "uint128"
            },
            {
              "internalType": "uint128",
              "name": "validityEndTimestamp",
              "type": "uint128"
            },
            {
              "internalType": "bytes32",
              "name": "uid",
              "type": "bytes32"
            },
            {
              "internalType": "bool",
              "name": "secure",
              "type": "bool"
            },
            {
              "internalType": "address",
              "name": "contractAddress",
              "type": "address"
            }
          ],
          "internalType": "struct ISecurityTokenERC721.MintRequest",
          "name": "_req",
          "type": "tuple"
        },
        {
          "internalType": "bytes",
          "name": "_signature",
          "type": "bytes"
        }
      ],
      "name": "verify",
      "outputs": [
        {
          "internalType": "bool",
          "name": "",
          "type": "bool"
        },
        {
          "internalType": "address",
          "name": "",
          "type": "address"
        }
      ],
      "stateMutability": "view",
      "type": "function"
    },
    {
      "inputs": [
        {
          "internalType": "address",
          "name": "_contractAddress",
          "type": "address"
        }
      ],
      "name": "verifyTokenAtAddress",
      "outputs": [
        {
          "internalType": "bool",
          "name": "",
          "type": "bool"
        }
      ],
      "stateMutability": "view",
      "type": "function"
    }
  ],
  "transactionHash": "0x786f299ea4e40b1fc8e5faf99aebbef47046de7d36840b8bf96764447bb72825",
  "args": [],
  "numDeployments": 1,
  "solcInputHash": "c98e06287ab96a5c8770024f5907d28b",
  "bytecode": "0x608060405234801561001057600080fd5b5061543a806100206000396000f3fe6080604052600436106103015760003560e01c80636352211e11610191578063aaa3017a116100e2578063cb2ef6f711610090578063cb2ef6f7146109ed578063d111515d14610a11578063d45573f614610a26578063d539139314610a5c578063d547741f14610a7e578063e8a3d48514610a9e578063e985e9c514610ab3578063eb13554f14610ad357600080fd5b8063aaa3017a146108d2578063ac9650d814610911578063b24f2d391461093e578063b507c0161461096d578063b88d4fde1461098d578063c87b56dd146109ad578063ca15c873146109cd57600080fd5b806391d148541161013f57806391d148541461080c578063938e3d7b1461082c57806395d89b411461084c5780639bcf7a1514610861578063a0a8e46014610881578063a217fddf1461089d578063a22cb465146108b257600080fd5b80636352211e1461071e57806369dc9ff31461073e5780636f4f28371461076f57806370a082311461078f57806384b0196e146107af5780638da5cb5b146107d75780639010d07c146107ec57600080fd5b8063274e4a1d116102565780633b1475a7116102045780633b1475a7146105ec57806342842e0e1461060357806342966c68146106235780634cc157df146106435780634f6ccce71461068557806355eea188146106a5578063572b6c05146106c5578063600dd5ea146106fe57600080fd5b8063274e4a1d146105015780632a55205a1461051c5780632af6f6021461054a5780632f2ff15d1461056a5780632f745c591461058a57806336568abe146105aa57806338841782146105ca57600080fd5b8063164cb856116102b3578063164cb85614610418578063166c10661461043857806318160ddd146104595780631e7ac4881461046f578063206b60f91461048f57806323b872dd146104b1578063248a9ca3146104d157600080fd5b806301ffc9a71461030657806306fdde031461033b578063079fe40e1461035d578063081812fc14610396578063095ea7b3146103b657806313af4035146103d8578063162094c4146103f8575b600080fd5b34801561031257600080fd5b50610326610321366004614416565b610af4565b60405190151581526020015b60405180910390f35b34801561034757600080fd5b50610350610b20565b604051610332919061448b565b34801561036957600080fd5b506101ca5461037e906001600160a01b031681565b6040516001600160a01b039091168152602001610332565b3480156103a257600080fd5b5061037e6103b136600461449e565b610bb3565b3480156103c257600080fd5b506103d66103d13660046144d3565b610bdb565b005b3480156103e457600080fd5b506103d66103f33660046144fd565b610d08565b34801561040457600080fd5b506103d66104133660046145d5565b610dbe565b34801561042457600080fd5b506103266104333660046144fd565b610e19565b61044b61044636600461465c565b610e6c565b604051908152602001610332565b34801561046557600080fd5b506101955461044b565b34801561047b57600080fd5b506103d661048a3660046144d3565b610fa6565b34801561049b57600080fd5b5061044b60008051602061535e83398151915281565b3480156104bd57600080fd5b506103d66104cc3660046146cd565b61104c565b3480156104dd57600080fd5b5061044b6104ec36600461449e565b600090815260fd602052604090206001015490565b34801561050d57600080fd5b506101c5546103269060ff1681565b34801561052857600080fd5b5061053c610537366004614709565b611084565b60405161033292919061472b565b34801561055657600080fd5b506103d66105653660046147d6565b6110c1565b34801561057657600080fd5b506103d66105853660046148ff565b61146a565b34801561059657600080fd5b5061044b6105a53660046144d3565b61148f565b3480156105b657600080fd5b506103d66105c53660046148ff565b611526565b3480156105d657600080fd5b5061044b60008051602061537e83398151915281565b3480156105f857600080fd5b5061044b6101c95481565b34801561060f57600080fd5b506103d661061e3660046146cd565b6115b0565b34801561062f57600080fd5b506103d661063e36600461449e565b6115cb565b34801561064f57600080fd5b5061066361065e36600461449e565b611647565b604080516001600160a01b03909316835261ffff909116602083015201610332565b34801561069157600080fd5b5061044b6106a036600461449e565b6116b7565b3480156106b157600080fd5b5061044b6106c0366004614944565b61174c565b3480156106d157600080fd5b506103266106e03660046144fd565b6001600160a01b031660009081526099602052604090205460ff1690565b34801561070a57600080fd5b506103d66107193660046144d3565b611790565b34801561072a57600080fd5b5061037e61073936600461449e565b611828565b34801561074a57600080fd5b5061075e6107593660046144fd565b61185e565b6040516103329594939291906149ba565b34801561077b57600080fd5b506103d661078a3660046144fd565b611924565b34801561079b57600080fd5b5061044b6107aa3660046144fd565b61197b565b3480156107bb57600080fd5b506107c4611a02565b60405161033297969594939291906149fa565b3480156107e357600080fd5b5061037e611aa0565b3480156107f857600080fd5b5061037e610807366004614709565b611ad8565b34801561081857600080fd5b506103266108273660046148ff565b611af1565b34801561083857600080fd5b506103d6610847366004614a90565b611b1c565b34801561085857600080fd5b50610350611b3a565b34801561086d57600080fd5b506103d661087c366004614ad1565b611b4a565b34801561088d57600080fd5b5060405160018152602001610332565b3480156108a957600080fd5b5061044b600081565b3480156108be57600080fd5b506103d66108cd366004614af6565b611bfe565b3480156108de57600080fd5b506108f26108ed36600461465c565b611c10565b6040805192151583526001600160a01b03909116602083015201610332565b34801561091d57600080fd5b5061093161092c366004614b2d565b611c67565b6040516103329190614ba1565b34801561094a57600080fd5b506101cc546101cd546001600160a01b03909116906001600160801b0316610663565b34801561097957600080fd5b506103d6610988366004614af6565b611ded565b34801561099957600080fd5b506103d66109a8366004614c03565b611e60565b3480156109b957600080fd5b506103506109c836600461449e565b611e99565b3480156109d957600080fd5b5061044b6109e836600461449e565b611f3c565b3480156109f957600080fd5b506d455243373231536563757269747960901b61044b565b348015610a1d57600080fd5b506103d6611f54565b348015610a3257600080fd5b506101cb546101cd546001600160a01b0390911690600160801b90046001600160801b0316610663565b348015610a6857600080fd5b5061044b6000805160206153c583398151915281565b348015610a8a57600080fd5b506103d6610a993660046148ff565b611fb2565b348015610aaa57600080fd5b50610350611fd7565b348015610abf57600080fd5b50610326610ace366004614c7e565b612066565b348015610adf57600080fd5b506101cb5461037e906001600160a01b031681565b6000610aff82612095565b80610b1a57506001600160e01b0319821663152a902d60e11b145b92915050565b60606101618054610b3090614ca8565b80601f0160208091040260200160405190810160405280929190818152602001828054610b5c90614ca8565b8015610ba95780601f10610b7e57610100808354040283529160200191610ba9565b820191906000526020600020905b815481529060010190602001808311610b8c57829003601f168201915b5050505050905090565b6000610bbe826120ba565b50600090815261016560205260409020546001600160a01b031690565b6000610be682611828565b9050806001600160a01b0316836001600160a01b03161415610c595760405162461bcd60e51b815260206004820152602160248201527f4552433732313a20617070726f76616c20746f2063757272656e74206f776e656044820152603960f91b60648201526084015b60405180910390fd5b806001600160a01b0316610c6b6120df565b6001600160a01b03161480610c875750610c8781610ace6120df565b610cf95760405162461bcd60e51b815260206004820152603e60248201527f4552433732313a20617070726f76652063616c6c6572206973206e6f7420746f60448201527f6b656e206f776e6572206e6f7220617070726f76656420666f7220616c6c00006064820152608401610c50565b610d0383836120e9565b505050565b6000610d1381612158565b610d1e600083611af1565b610d6a5760405162461bcd60e51b815260206004820152601b60248201527f6e6577206f776e6572206e6f74206d6f64756c652061646d696e2e00000000006044820152606401610c50565b6101c880546001600160a01b038481166001600160a01b0319831681179093556040519116919082907f8292fce18fa69edf4db7b94ea2e58241df0ae57f97e0a6c9b29067028bf92d7690600090a3505050565b610dc6612169565b610de3576040516318c4c13760e21b815260040160405180910390fd5b6101c55460ff1615610e0b576040516393dafeb760e01b815260048101839052602401610c50565b610e158282612185565b5050565b6001600160a01b0380821660009081526101c760205260408120600381015491929091610100900416610e5e5760405162461bcd60e51b8152600401610c5090614ce3565b60010154913f909114919050565b6000610e766121fc565b6000610e83858585612256565b90506000610e9460208701876144fd565b9050610ebb81610ea76080890189614d11565b6001610eb660208c018c6144fd565b6123b2565b92506000610ecf60408801602089016144fd565b6001600160a01b031614610f3f576040518060400160405280876020016020810190610efb91906144fd565b6001600160a01b03908116825260408981013560209384015260008781526101d0845220835181546001600160a01b03191692169190911781559101516001909101555b610f488661258b565b82816001600160a01b0316836001600160a01b03167f15fb5f25e8ebed9eee6472747d42b9a3cf11ecf1a51cd0ebb83652e895552f3189604051610f8c9190614dc5565b60405180910390a45050610f9f60018055565b9392505050565b6000610fb181612158565b612710821115610fd35760405162461bcd60e51b8152600401610c5090614f19565b6101cd80546001600160801b03166001600160401b038416600160801b021790556101cb80546001600160a01b0319166001600160a01b0385169081179091556040518381527fe2497bd806ec41a6e0dd992c29a72efc0ef8fec9092d1978fd4a1e00b2f18304906020015b60405180910390a2505050565b61105d6110576120df565b8261276b565b6110795760405162461bcd60e51b8152600401610c5090614f42565b610d038383836127ca565b60008060008061109386611647565b90945084925061ffff1690506127106110ac8287614fa5565b6110b69190614fc4565b925050509250929050565b600054610100900460ff16158080156110e15750600054600160ff909116105b806110fb5750303b1580156110fb575060005460ff166001145b61115e5760405162461bcd60e51b815260206004820152602e60248201527f496e697469616c697a61626c653a20636f6e747261637420697320616c72656160448201526d191e481a5b9a5d1a585b1a5e995960921b6064820152608401610c50565b6000805460ff191660011790558015611181576000805461ff0019166101001790555b61118961292c565b6111cf6040518060400160405280600b81526020016a546f6b656e45524337323160a81b815250604051806040016040528060018152602001603160f81b81525061295d565b6111d88761298e565b6111e28a8a6129c6565b6101cc80546001600160a01b03199081166001600160a01b03888116919091179092556101cd80546001600160801b0319166001600160801b0388161790556101cb805482168584161790556101ca80549091169188169190911790558751611253906101ce9060208b01906142f7565b50612710836001600160801b0316111561127f5760405162461bcd60e51b8152600401610c5090614f19565b6101cd80546001600160801b03808616600160801b0291161790556101c880546001600160a01b038e166001600160a01b03199091161790556112c360008d6129f7565b6112db6000805160206153c58339815191528d6129f7565b6112f36000805160206153c58339815191528c6129f7565b61130b60008051602061537e8339815191528d6129f7565b61132360008051602061537e83398151915280612a01565b61133b60008051602061535e8339815191528d6129f7565b61135460008051602061535e83398151915260006129f7565b6040516001600160a01b038716907f299d17e95023f496e0ffc4909cff1a61f74bb5eb18de6f900f4155bfa1b3b33390600090a26040516001600160801b03841681526001600160a01b038316907fe2497bd806ec41a6e0dd992c29a72efc0ef8fec9092d1978fd4a1e00b2f183049060200160405180910390a26040516001600160801b03851681526001600160a01b038616907f90d7ec04bcb8978719414f82e52e4cb651db41d0e6f8cea6118c2191e6183adb9060200160405180910390a2801561145c576000805461ff0019169055604051600181527f7f26b83ff96e1f2b6a682f133852f6798a09c465da95921460cefb38474024989060200160405180910390a15b505050505050505050505050565b600082815260fd602052604090206001015461148581612158565b610d038383612a4c565b600061149a8361197b565b82106114fc5760405162461bcd60e51b815260206004820152602b60248201527f455243373231456e756d657261626c653a206f776e657220696e646578206f7560448201526a74206f6620626f756e647360a81b6064820152608401610c50565b506001600160a01b0391909116600090815261019360209081526040808320938352929052205490565b61152e6120df565b6001600160a01b0316816001600160a01b0316146115a65760405162461bcd60e51b815260206004820152602f60248201527f416363657373436f6e74726f6c3a2063616e206f6e6c792072656e6f756e636560448201526e103937b632b9903337b91039b2b63360891b6064820152608401610c50565b610e158282612a6f565b610d0383838360405180602001604052806000815250611e60565b6115d66110576120df565b61163b5760405162461bcd60e51b815260206004820152603060248201527f4552433732314275726e61626c653a2063616c6c6572206973206e6f74206f7760448201526f1b995c881b9bdc88185c1c1c9bdd995960821b6064820152608401610c50565b61164481612a92565b50565b60008181526101d060209081526040808320815180830190925280546001600160a01b03168083526001909101549282019290925282911561168f57805160208201516116ad565b6101cc546101cd546001600160a01b03909116906001600160801b03165b9250925050915091565b60006116c36101955490565b82106117265760405162461bcd60e51b815260206004820152602c60248201527f455243373231456e756d657261626c653a20676c6f62616c20696e646578206f60448201526b7574206f6620626f756e647360a01b6064820152608401610c50565b610195828154811061173a5761173a614fe6565b90600052602060002001549050919050565b60006117566121fc565b6000805160206153c583398151915261176e81612158565b61177b87878787876123b2565b91505061178760018055565b95945050505050565b600061179b81612158565b6127108211156117bd5760405162461bcd60e51b8152600401610c5090614ffc565b6101cc80546001600160a01b0319166001600160a01b0385169081179091556101cd80546001600160801b0319166001600160801b0385161790556040518381527f90d7ec04bcb8978719414f82e52e4cb651db41d0e6f8cea6118c2191e6183adb9060200161103f565b600081815261016360205260408120546001600160a01b031680610b1a5760405162461bcd60e51b8152600401610c5090615028565b6101c76020526000908152604090208054819061187a90614ca8565b80601f01602080910402602001604051908101604052809291908181526020018280546118a690614ca8565b80156118f35780601f106118c8576101008083540402835291602001916118f3565b820191906000526020600020905b8154815290600101906020018083116118d657829003601f168201915b50505050600183015460028401546003909401549293909290915060ff81169061010090046001600160a01b031685565b600061192f81612158565b6101ca80546001600160a01b0319166001600160a01b0384169081179091556040517f299d17e95023f496e0ffc4909cff1a61f74bb5eb18de6f900f4155bfa1b3b33390600090a25050565b60006001600160a01b0382166119e55760405162461bcd60e51b815260206004820152602960248201527f4552433732313a2061646472657373207a65726f206973206e6f7420612076616044820152683634b21037bbb732b960b91b6064820152608401610c50565b506001600160a01b03166000908152610164602052604090205490565b6000606080600080600060606033546000801b148015611a225750603454155b611a665760405162461bcd60e51b81526020600482015260156024820152741152540dcc4c8e88155b9a5b9a5d1a585b1a5e9959605a1b6044820152606401610c50565b611a6e612b26565b611a76612b35565b60408051600080825260208201909252600f60f81b9b939a50919850469750309650945092509050565b6101c854600090611abb9082906001600160a01b0316611af1565b611ac55750600090565b6101c8546001600160a01b03165b905090565b600082815261012f60205260408120610f9f9083612b44565b600091825260fd602090815260408084206001600160a01b0393909316845291905290205460ff1690565b6000611b2781612158565b611b346101ce8484614377565b50505050565b60606101628054610b3090614ca8565b6000611b5581612158565b612710821115611b775760405162461bcd60e51b8152600401610c5090614ffc565b6040805180820182526001600160a01b03858116808352602080840187815260008a81526101d08352869020945185546001600160a01b031916941693909317845591516001909301929092559151848152909186917f7365cf4122f072a3365c20d54eff9b38d73c096c28e1892ec8f5b0e403a0f12d910160405180910390a350505050565b610e15611c096120df565b8383612b50565b6000806000611c20868686612c1c565b61012087013560009081526101cf602052604090205490915060ff16158015611c5c5750611c5c6000805160206153c583398151915282611af1565b969095509350505050565b6060816001600160401b03811115611c8157611c81614518565b604051908082528060200260200182016040528015611cb457816020015b6060815260200190600190039081611c9f5790505b5090506000611cc16120df565b9050336001600160a01b038216141560005b84811015611de4578115611d5257611d3030878784818110611cf757611cf7614fe6565b9050602002810190611d099190614d11565b86604051602001611d1c9392919061505a565b604051602081830303815290604052612c78565b848281518110611d4257611d42614fe6565b6020026020010181905250611dd2565b611db430878784818110611d6857611d68614fe6565b9050602002810190611d7a9190614d11565b8080601f016020809104026020016040519081016040528093929190818152602001838380828437600092019190915250612c7892505050565b848281518110611dc657611dc6614fe6565b60200260200101819052505b80611ddc81615080565b915050611cd3565b50505092915050565b6000805160206153c5833981519152611e0581612158565b6001600160a01b0380841660009081526101c7602052604090206003810154909161010090910416611e495760405162461bcd60e51b8152600401610c5090614ce3565b600301805460ff1916921515929092179091555050565b611e71611e6b6120df565b8361276b565b611e8d5760405162461bcd60e51b8152600401610c5090614f42565b611b3484848484612c9d565b60008181526101c660205260409020805460609190611eb790614ca8565b80601f0160208091040260200160405190810160405280929190818152602001828054611ee390614ca8565b8015611f305780601f10611f0557610100808354040283529160200191611f30565b820191906000526020600020905b815481529060010190602001808311611f1357829003601f168201915b50505050509050919050565b600081815261012f60205260408120610b1a90612cd0565b611f5c612169565b611f79576040516318c4c13760e21b815260040160405180910390fd5b6101c5805460ff191660011790556040517feef043febddf4e1d1cf1f72ff1407b84e036e805aa0934418cb82095da8d716490600090a1565b600082815260fd6020526040902060010154611fcd81612158565b610d038383612a6f565b6101ce8054611fe590614ca8565b80601f016020809104026020016040519081016040528092919081815260200182805461201190614ca8565b801561205e5780601f106120335761010080835404028352916020019161205e565b820191906000526020600020905b81548152906001019060200180831161204157829003601f168201915b505050505081565b6001600160a01b0391821660009081526101666020908152604080832093909416825291909152205460ff1690565b60006001600160e01b0319821663780e9d6360e01b1480610b1a5750610b1a82612cda565b6120c381612d1a565b6116445760405162461bcd60e51b8152600401610c5090615028565b6000611ad3612d38565b60008181526101656020526040902080546001600160a01b0319166001600160a01b038416908117909155819061211f82611828565b6001600160a01b03167f8c5be1e5ebec7d5bd14f71427d1e84f3dd0314c0f7b2291e5b200ac8c7c3b92560405160405180910390a45050565b611644816121646120df565b612d62565b6000611ad360008051602061537e8339815191526108276120df565b80516121a45760405163a094836b60e01b815260040160405180910390fd5b60008281526101c66020908152604090912082516121c4928401906142f7565b506040518281527ff8e1a15aba9398e019f0b49df1a4fde98ee17ae345cb5f6b5e2c27f5033e8ce79060200160405180910390a15050565b6002600154141561224f5760405162461bcd60e51b815260206004820152601f60248201527f5265656e7472616e637947756172643a207265656e7472616e742063616c6c006044820152606401610c50565b6002600155565b6000806000612266868686611c10565b91509150816122ab5760405162461bcd60e51b8152602060048201526011602482015270696e76616c6964207369676e617475726560781b6044820152606401610c50565b426122bd610100880160e0890161509b565b6001600160801b0316111580156122ee5750426122e26101208801610100890161509b565b6001600160801b031610155b61232c5760405162461bcd60e51b815260206004820152600f60248201526e1c995c5d595cdd08195e1c1a5c9959608a1b6044820152606401610c50565b600061233b60208801886144fd565b6001600160a01b031614156123885760405162461bcd60e51b81526020600482015260136024820152721c9958da5c1a595b9d081d5b9919599a5b9959606a1b6044820152606401610c50565b61012086013560009081526101cf60205260409020805460ff191660011790559150509392505050565b6001600160a01b038116836123f65760405162461bcd60e51b815260206004820152600a60248201526932b6b83a3c903ab9349760b11b6044820152606401610c50565b6124368186868080601f01602080910402602001604051908101604052809392919081815260200183838082843760009201919091525061218592505050565b6124408682612dbb565b60408051833b818101909252833f9180600060208401873c81526040805160c06020601f8a01819004028201810190925260a0810188815290918291908a908a90819085018382808284376000920182905250938552505050602080830186905284518582012060408085019190915289151560608501526001600160a01b03891660809094018490529282526101c781529190208251805191926124ea928492909101906142f7565b506020820151600182015560408083015160028301556060830151600390920180546080909401516001600160a81b0319909416921515610100600160a81b031916929092176101006001600160a01b0394851602179091555184918a16907f9d89e36eadf856db0ad9ffb5a569e07f95634dddd9501141ecf04820484ad0dc90612578908b908b906150b6565b60405180910390a3505095945050505050565b60a08101356125cb5734156116445760405162461bcd60e51b81526020600482015260066024820152652156616c756560d01b6044820152606401610c50565b6101cd5460a082013590600090612710906125f690600160801b90046001600160801b031684614fa5565b6126009190614fc4565b905073eeeeeeeeeeeeeeeeeeeeeeeeeeeeeeeeeeeeeeee61262760e0850160c086016144fd565b6001600160a01b031614156126835781341461267e5760405162461bcd60e51b815260206004820152601660248201527536bab9ba1039b2b732103a37ba30b610383934b1b29760511b6044820152606401610c50565b6126c6565b34156126c65760405162461bcd60e51b81526020600482015260126024820152716d73672076616c7565206e6f74207a65726f60701b6044820152606401610c50565b6000806126d960808601606087016144fd565b6001600160a01b0316146126fc576126f760808501606086016144fd565b61270a565b6101ca546001600160a01b03165b905061273a61271f60e0860160c087016144fd565b6127276120df565b6101cb546001600160a01b031685612dd5565b611b3461274d60e0860160c087016144fd565b6127556120df565b8361276086886150ca565b612dd5565b60018055565b60008061277783611828565b9050806001600160a01b0316846001600160a01b0316148061279e575061279e8185612066565b806127c25750836001600160a01b03166127b784610bb3565b6001600160a01b0316145b949350505050565b826001600160a01b03166127dd82611828565b6001600160a01b0316146128035760405162461bcd60e51b8152600401610c50906150e1565b6001600160a01b0382166128655760405162461bcd60e51b8152602060048201526024808201527f4552433732313a207472616e7366657220746f20746865207a65726f206164646044820152637265737360e01b6064820152608401610c50565b6128728383836001612e1f565b826001600160a01b031661288582611828565b6001600160a01b0316146128ab5760405162461bcd60e51b8152600401610c50906150e1565b60008181526101656020908152604080832080546001600160a01b03199081169091556001600160a01b03878116808652610164855283862080546000190190559087168086528386208054600101905586865261016390945282852080549092168417909155905184936000805160206153e583398151915291a4505050565b600054610100900460ff166129535760405162461bcd60e51b8152600401610c5090615126565b61295b612f00565b565b600054610100900460ff166129845760405162461bcd60e51b8152600401610c5090615126565b610e158282612f27565b600054610100900460ff166129b55760405162461bcd60e51b8152600401610c5090615126565b6129bd612f84565b61164481612fab565b600054610100900460ff166129ed5760405162461bcd60e51b8152600401610c5090615126565b610e15828261303a565b610e158282612a4c565b600082815260fd6020526040808220600101805490849055905190918391839186917fbd79b86ffe0ab8e8776151514217cd7cacd52c909f66475c3af44e129f0b00ff9190a4505050565b612a56828261308a565b600082815261012f60205260409020610d039082613111565b612a798282613126565b600082815261012f60205260409020610d0390826131ab565b6000612a9d82611828565b9050612aad816000846001612e1f565b612ab682611828565b60008381526101656020908152604080832080546001600160a01b03199081169091556001600160a01b03851680855261016484528285208054600019019055878552610163909352818420805490911690555192935084926000805160206153e5833981519152908390a45050565b606060358054610b3090614ca8565b606060368054610b3090614ca8565b6000610f9f83836131c0565b816001600160a01b0316836001600160a01b03161415612bae5760405162461bcd60e51b815260206004820152601960248201527822a9219b99189d1030b8383937bb32903a379031b0b63632b960391b6044820152606401610c50565b6001600160a01b0383811660008181526101666020908152604080832094871680845294825291829020805460ff191686151590811790915591519182527f17307eab39ab6107e8899845ad3d59bd9653f200f220920489ca2b5937696c31910160405180910390a3505050565b60006127c283838080601f016020809104026020016040519081016040528093929190818152602001838380828437600092019190915250612c729250612c6691508890506131ea565b80519060200120613324565b90613351565b6060610f9f838360405180606001604052806027815260200161539e60279139613375565b612ca88484846127ca565b612cb4848484846133ed565b611b345760405162461bcd60e51b8152600401610c5090615171565b6000610b1a825490565b60006001600160e01b031982166380ac58cd60e01b1480612d0b57506001600160e01b03198216635b5e139f60e01b145b80610b1a5750610b1a826134f2565b600090815261016360205260409020546001600160a01b0316151590565b3360009081526099602052604081205460ff1615612d5d575060131936013560601c90565b503390565b612d6c8282611af1565b610e1557612d7981613517565b612d84836020613529565b604051602001612d959291906151c3565b60408051601f198184030181529082905262461bcd60e51b8252610c509160040161448b565b610e158282604051806020016040528060008152506136c4565b80612ddf57611b34565b6001600160a01b03841673eeeeeeeeeeeeeeeeeeeeeeeeeeeeeeeeeeeeeeee1415612e1357612e0e82826136f7565b611b34565b611b348484848461376f565b612e2b848484846137c8565b612e4460008051602061535e8339815191526000611af1565b158015612e5957506001600160a01b03841615155b8015612e6d57506001600160a01b03831615155b15611b3457612e8a60008051602061535e83398151915285611af1565b80612ea85750612ea860008051602061535e83398151915284611af1565b611b345760405162461bcd60e51b815260206004820152602360248201527f7265737472696374656420746f205452414e534645525f524f4c4520686f6c6460448201526265727360e81b6064820152608401610c50565b600054610100900460ff166127655760405162461bcd60e51b8152600401610c5090615126565b600054610100900460ff16612f4e5760405162461bcd60e51b8152600401610c5090615126565b8151612f619060359060208501906142f7565b508051612f759060369060208401906142f7565b50506000603381905560345550565b600054610100900460ff1661295b5760405162461bcd60e51b8152600401610c5090615126565b600054610100900460ff16612fd25760405162461bcd60e51b8152600401610c5090615126565b60005b8151811015610e1557600160996000848481518110612ff657612ff6614fe6565b6020908102919091018101516001600160a01b03168252810191909152604001600020805460ff19169115159190911790558061303281615080565b915050612fd5565b600054610100900460ff166130615760405162461bcd60e51b8152600401610c5090615126565b8151613075906101619060208501906142f7565b508051610d03906101629060208401906142f7565b6130948282611af1565b610e1557600082815260fd602090815260408083206001600160a01b03851684529091529020805460ff191660011790556130cd6120df565b6001600160a01b0316816001600160a01b0316837f2f8788117e7eff1d82e926ec794901d17c78024a50270940304540a733656f0d60405160405180910390a45050565b6000610f9f836001600160a01b0384166138fe565b6131308282611af1565b15610e1557600082815260fd602090815260408083206001600160a01b03851684529091529020805460ff191690556131676120df565b6001600160a01b0316816001600160a01b0316837ff6391f5c32d9c69d2a47ea670b442974b53935d1edc7fd64eb21e047a839171b60405160405180910390a45050565b6000610f9f836001600160a01b03841661394d565b60008260000182815481106131d7576131d7614fe6565b9060005260206000200154905092915050565b60607f86633b4ffa94b7c3d316ca70d7d2700f3fdfa7a7806efd31499b513d9176692e61321a60208401846144fd565b61322a60408501602086016144fd565b604085013561323f60808701606088016144fd565b61324c6080880188614d11565b60405161325a929190615232565b60405190819003902060a088013561327860e08a0160c08b016144fd565b6132896101008b0160e08c0161509b565b61329b6101208c016101008d0161509b565b60408051602081019b909b526001600160a01b03998a16908b015296881660608a0152608089019590955292861660a088015260c087019190915260e08601529092166101008401526001600160801b03918216610120808501919091529116610140830152830135610160820152610180016040516020818303038152906040529050919050565b6000610b1a613331613a40565b8360405161190160f01b8152600281019290925260228201526042902090565b60008060006133608585613a4a565b9150915061336d81613a90565b509392505050565b6060600080856001600160a01b0316856040516133929190615242565b600060405180830381855af49150503d80600081146133cd576040519150601f19603f3d011682016040523d82523d6000602084013e6133d2565b606091505b50915091506133e386838387613bd9565b9695505050505050565b60006001600160a01b0384163b156134e757836001600160a01b031663150b7a026134166120df565b8786866040518563ffffffff1660e01b8152600401613438949392919061525e565b6020604051808303816000875af1925050508015613473575060408051601f3d908101601f1916820190925261347091810190615291565b60015b6134cd573d8080156134a1576040519150601f19603f3d011682016040523d82523d6000602084013e6134a6565b606091505b5080516134c55760405162461bcd60e51b8152600401610c5090615171565b805181602001fd5b6001600160e01b031916630a85bd0160e11b1490506127c2565b506001949350505050565b60006001600160e01b03198216635a05180f60e01b1480610b1a5750610b1a82613c4f565b6060610b1a6001600160a01b03831660145b60606000613538836002614fa5565b6135439060026152ae565b6001600160401b0381111561355a5761355a614518565b6040519080825280601f01601f191660200182016040528015613584576020820181803683370190505b509050600360fc1b8160008151811061359f5761359f614fe6565b60200101906001600160f81b031916908160001a905350600f60fb1b816001815181106135ce576135ce614fe6565b60200101906001600160f81b031916908160001a90535060006135f2846002614fa5565b6135fd9060016152ae565b90505b6001811115613675576f181899199a1a9b1b9c1cb0b131b232b360811b85600f166010811061363157613631614fe6565b1a60f81b82828151811061364757613647614fe6565b60200101906001600160f81b031916908160001a90535060049490941c9361366e816152c6565b9050613600565b508315610f9f5760405162461bcd60e51b815260206004820181905260248201527f537472696e67733a20686578206c656e67746820696e73756666696369656e746044820152606401610c50565b6136ce8383613c84565b6136db60008484846133ed565b610d035760405162461bcd60e51b8152600401610c5090615171565b6000826001600160a01b03168260405160006040518083038185875af1925050503d8060008114613744576040519150601f19603f3d011682016040523d82523d6000602084013e613749565b606091505b5050905080610d03578282604051635fdc4ec160e11b8152600401610c5092919061472b565b816001600160a01b0316836001600160a01b0316141561378e57611b34565b6001600160a01b0383163014156137b357612e0e6001600160a01b0385168383613d8f565b611b346001600160a01b038516848484613de5565b60018111156138375760405162461bcd60e51b815260206004820152603560248201527f455243373231456e756d657261626c653a20636f6e7365637574697665207472604482015274185b9cd9995c9cc81b9bdd081cdd5c1c1bdc9d1959605a1b6064820152608401610c50565b816001600160a01b03851661389557613890816101958054600083815261019660205260408120829055600182018355919091527f54034dca961b61bc2a3147cc0c1986762915b42723ed64155364f17a2e2967700155565b6138b8565b836001600160a01b0316856001600160a01b0316146138b8576138b88582613e1d565b6001600160a01b0384166138d4576138cf81613ebf565b6138f7565b846001600160a01b0316846001600160a01b0316146138f7576138f78482613f74565b5050505050565b600081815260018301602052604081205461394557508154600181810184556000848152602080822090930184905584548482528286019093526040902091909155610b1a565b506000610b1a565b60008181526001830160205260408120548015613a365760006139716001836150ca565b8554909150600090613985906001906150ca565b90508181146139ea5760008660000182815481106139a5576139a5614fe6565b90600052602060002001549050808760000184815481106139c8576139c8614fe6565b6000918252602080832090910192909255918252600188019052604090208390555b85548690806139fb576139fb6152dd565b600190038181906000526020600020016000905590558560010160008681526020019081526020016000206000905560019350505050610b1a565b6000915050610b1a565b6000611ad3613fba565b600080825160411415613a815760208301516040840151606085015160001a613a758782858561402e565b94509450505050613a89565b506000905060025b9250929050565b6000816004811115613aa457613aa46152f3565b1415613aad5750565b6001816004811115613ac157613ac16152f3565b1415613b0a5760405162461bcd60e51b815260206004820152601860248201527745434453413a20696e76616c6964207369676e617475726560401b6044820152606401610c50565b6002816004811115613b1e57613b1e6152f3565b1415613b6c5760405162461bcd60e51b815260206004820152601f60248201527f45434453413a20696e76616c6964207369676e6174757265206c656e677468006044820152606401610c50565b6003816004811115613b8057613b806152f3565b14156116445760405162461bcd60e51b815260206004820152602260248201527f45434453413a20696e76616c6964207369676e6174757265202773272076616c604482015261756560f01b6064820152608401610c50565b60608315613c45578251613c3e576001600160a01b0385163b613c3e5760405162461bcd60e51b815260206004820152601d60248201527f416464726573733a2063616c6c20746f206e6f6e2d636f6e74726163740000006044820152606401610c50565b50816127c2565b6127c283836140e8565b60006001600160e01b03198216637965db0b60e01b1480610b1a57506301ffc9a760e01b6001600160e01b0319831614610b1a565b6001600160a01b038216613cda5760405162461bcd60e51b815260206004820181905260248201527f4552433732313a206d696e7420746f20746865207a65726f20616464726573736044820152606401610c50565b613ce381612d1a565b15613d005760405162461bcd60e51b8152600401610c5090615309565b613d0e600083836001612e1f565b613d1781612d1a565b15613d345760405162461bcd60e51b8152600401610c5090615309565b6001600160a01b0382166000818152610164602090815260408083208054600101905584835261016390915280822080546001600160a01b0319168417905551839291906000805160206153e5833981519152908290a45050565b610d038363a9059cbb60e01b8484604051602401613dae92919061472b565b60408051601f198184030181529190526020810180516001600160e01b03166001600160e01b031990931692909217909152614112565b6040516001600160a01b0380851660248301528316604482015260648101829052611b349085906323b872dd60e01b90608401613dae565b60006001613e2a8461197b565b613e3491906150ca565b60008381526101946020526040902054909150808214613e8a576001600160a01b038416600090815261019360209081526040808320858452825280832054848452818420819055835261019490915290208190555b506000918252610194602090815260408084208490556001600160a01b03909416835261019381528383209183525290812055565b61019554600090613ed2906001906150ca565b600083815261019660205260408120546101958054939450909284908110613efc57613efc614fe6565b90600052602060002001549050806101958381548110613f1e57613f1e614fe6565b60009182526020808320909101929092558281526101969091526040808220849055858252812055610195805480613f5857613f586152dd565b6001900381819060005260206000200160009055905550505050565b6000613f7f8361197b565b6001600160a01b0390931660009081526101936020908152604080832086845282528083208590559382526101949052919091209190915550565b60007f8b73c3c69bb8fe3d512ecc4cf759cc79239f7b179b0ffacaa9a75d522b39400f613fe56141e4565b613fed614241565b60408051602081019490945283019190915260608201524660808201523060a082015260c00160405160208183030381529060405280519060200120905090565b6000806fa2a8918ca85bafe22016d0b997e4df60600160ff1b0383111561405b57506000905060036140df565b6040805160008082526020820180845289905260ff881692820192909252606081018690526080810185905260019060a0016020604051602081039080840390855afa1580156140af573d6000803e3d6000fd5b5050604051601f1901519150506001600160a01b0381166140d8576000600192509250506140df565b9150600090505b94509492505050565b8151156140f85781518083602001fd5b8060405162461bcd60e51b8152600401610c50919061448b565b6000614167826040518060400160405280602081526020017f5361666545524332303a206c6f772d6c6576656c2063616c6c206661696c6564815250856001600160a01b03166142729092919063ffffffff16565b805190915015610d0357808060200190518101906141859190615340565b610d035760405162461bcd60e51b815260206004820152602a60248201527f5361666545524332303a204552433230206f7065726174696f6e20646964206e6044820152691bdd081cdd58d8d9595960b21b6064820152608401610c50565b6000806141ef612b26565b805190915015614206578051602090910120919050565b60335480156142155792915050565b7fc5d2460186f7233c927e7db2dcc703c0e500b653ca82273b7bfad8045d85a4709250505090565b5090565b60008061424c612b35565b805190915015614263578051602090910120919050565b60345480156142155792915050565b60606127c2848460008585600080866001600160a01b031685876040516142999190615242565b60006040518083038185875af1925050503d80600081146142d6576040519150601f19603f3d011682016040523d82523d6000602084013e6142db565b606091505b50915091506142ec87838387613bd9565b979650505050505050565b82805461430390614ca8565b90600052602060002090601f016020900481019282614325576000855561436b565b82601f1061433e57805160ff191683800117855561436b565b8280016001018555821561436b579182015b8281111561436b578251825591602001919060010190614350565b5061423d9291506143eb565b82805461438390614ca8565b90600052602060002090601f0160209004810192826143a5576000855561436b565b82601f106143be5782800160ff1982351617855561436b565b8280016001018555821561436b579182015b8281111561436b5782358255916020019190600101906143d0565b5b8082111561423d57600081556001016143ec565b6001600160e01b03198116811461164457600080fd5b60006020828403121561442857600080fd5b8135610f9f81614400565b60005b8381101561444e578181015183820152602001614436565b83811115611b345750506000910152565b60008151808452614477816020860160208601614433565b601f01601f19169290920160200192915050565b602081526000610f9f602083018461445f565b6000602082840312156144b057600080fd5b5035919050565b80356001600160a01b03811681146144ce57600080fd5b919050565b600080604083850312156144e657600080fd5b6144ef836144b7565b946020939093013593505050565b60006020828403121561450f57600080fd5b610f9f826144b7565b634e487b7160e01b600052604160045260246000fd5b604051601f8201601f191681016001600160401b038111828210171561455657614556614518565b604052919050565b60006001600160401b0383111561457757614577614518565b61458a601f8401601f191660200161452e565b905082815283838301111561459e57600080fd5b828260208301376000602084830101529392505050565b600082601f8301126145c657600080fd5b610f9f8383356020850161455e565b600080604083850312156145e857600080fd5b8235915060208301356001600160401b0381111561460557600080fd5b614611858286016145b5565b9150509250929050565b60008083601f84011261462d57600080fd5b5081356001600160401b0381111561464457600080fd5b602083019150836020828501011115613a8957600080fd5b60008060006040848603121561467157600080fd5b83356001600160401b038082111561468857600080fd5b90850190610180828803121561469d57600080fd5b909350602085013590808211156146b357600080fd5b506146c08682870161461b565b9497909650939450505050565b6000806000606084860312156146e257600080fd5b6146eb846144b7565b92506146f9602085016144b7565b9150604084013590509250925092565b6000806040838503121561471c57600080fd5b50508035926020909101359150565b6001600160a01b03929092168252602082015260400190565b600082601f83011261475557600080fd5b813560206001600160401b0382111561477057614770614518565b8160051b61477f82820161452e565b928352848101820192828101908785111561479957600080fd5b83870192505b848310156142ec576147b0836144b7565b8252918301919083019061479f565b80356001600160801b03811681146144ce57600080fd5b60008060008060008060008060008060006101608c8e0312156147f857600080fd5b6148018c6144b7565b9a5061480f60208d016144b7565b99506001600160401b038060408e0135111561482a57600080fd5b61483a8e60408f01358f016145b5565b99508060608e0135111561484d57600080fd5b61485d8e60608f01358f016145b5565b98508060808e0135111561487057600080fd5b6148808e60808f01358f016145b5565b97508060a08e0135111561489357600080fd5b506148a48d60a08e01358e01614744565b95506148b260c08d016144b7565b94506148c060e08d016144b7565b93506148cf6101008d016147bf565b92506148de6101208d016147bf565b91506148ed6101408d016144b7565b90509295989b509295989b9093969950565b6000806040838503121561491257600080fd5b82359150614922602084016144b7565b90509250929050565b801515811461164457600080fd5b80356144ce8161492b565b60008060008060006080868803121561495c57600080fd5b614965866144b7565b945060208601356001600160401b0381111561498057600080fd5b61498c8882890161461b565b90955093505060408601356149a08161492b565b91506149ae606087016144b7565b90509295509295909350565b60a0815260006149cd60a083018861445f565b602083019690965250604081019390935290151560608301526001600160a01b0316608090910152919050565b60ff60f81b881681526000602060e081840152614a1a60e084018a61445f565b8381036040850152614a2c818a61445f565b606085018990526001600160a01b038816608086015260a0850187905284810360c0860152855180825283870192509083019060005b81811015614a7e57835183529284019291840191600101614a62565b50909c9b505050505050505050505050565b60008060208385031215614aa357600080fd5b82356001600160401b03811115614ab957600080fd5b614ac58582860161461b565b90969095509350505050565b600080600060608486031215614ae657600080fd5b833592506146f9602085016144b7565b60008060408385031215614b0957600080fd5b614b12836144b7565b91506020830135614b228161492b565b809150509250929050565b60008060208385031215614b4057600080fd5b82356001600160401b0380821115614b5757600080fd5b818501915085601f830112614b6b57600080fd5b813581811115614b7a57600080fd5b8660208260051b8501011115614b8f57600080fd5b60209290920196919550909350505050565b6000602080830181845280855180835260408601915060408160051b870101925083870160005b82811015614bf657603f19888603018452614be485835161445f565b94509285019290850190600101614bc8565b5092979650505050505050565b60008060008060808587031215614c1957600080fd5b614c22856144b7565b9350614c30602086016144b7565b92506040850135915060608501356001600160401b03811115614c5257600080fd5b8501601f81018713614c6357600080fd5b614c728782356020840161455e565b91505092959194509250565b60008060408385031215614c9157600080fd5b614c9a836144b7565b9150614922602084016144b7565b600181811c90821680614cbc57607f821691505b60208210811415614cdd57634e487b7160e01b600052602260045260246000fd5b50919050565b602080825260149082015273151bdad95b88191bd95cc81b9bdd08195e1a5cdd60621b604082015260600190565b6000808335601e19843603018112614d2857600080fd5b8301803591506001600160401b03821115614d4257600080fd5b602001915036819003821315613a8957600080fd5b6000808335601e19843603018112614d6e57600080fd5b83016020810192503590506001600160401b03811115614d8d57600080fd5b803603831315613a8957600080fd5b81835281816020850137506000828201602090810191909152601f909101601f19169091010190565b60208152614de660208201614dd9846144b7565b6001600160a01b03169052565b6000614df4602084016144b7565b6001600160a01b03811660408401525060408301356060830152614e1a606084016144b7565b6001600160a01b038116608084015250614e376080840184614d57565b6101808060a0860152614e4f6101a086018385614d9c565b925060a086013560c0860152614e6760c087016144b7565b6001600160a01b03811660e08701529150614e8460e087016147bf565b9150610100614e9d818701846001600160801b03169052565b614ea88188016147bf565b925050610120614ec2818701846001600160801b03169052565b6101409250808701358387015250614edb828701614939565b9150610160614eed8187018415159052565b614ef88188016144b7565b925050614f0f818601836001600160a01b03169052565b5090949350505050565b6020808252600f908201526e65786365656473204d41585f42505360881b604082015260600190565b6020808252602d908201527f4552433732313a2063616c6c6572206973206e6f7420746f6b656e206f776e6560408201526c1c881bdc88185c1c1c9bdd9959609a1b606082015260800190565b634e487b7160e01b600052601160045260246000fd5b6000816000190483118215151615614fbf57614fbf614f8f565b500290565b600082614fe157634e487b7160e01b600052601260045260246000fd5b500490565b634e487b7160e01b600052603260045260246000fd5b60208082526012908201527165786365656420726f79616c74792062707360701b604082015260600190565b602080825260189082015277115490cdcc8c4e881a5b9d985b1a59081d1bdad95b88125160421b604082015260600190565b8284823760609190911b6bffffffffffffffffffffffff19169101908152601401919050565b600060001982141561509457615094614f8f565b5060010190565b6000602082840312156150ad57600080fd5b610f9f826147bf565b6020815260006127c2602083018486614d9c565b6000828210156150dc576150dc614f8f565b500390565b60208082526025908201527f4552433732313a207472616e736665722066726f6d20696e636f72726563742060408201526437bbb732b960d91b606082015260800190565b6020808252602b908201527f496e697469616c697a61626c653a20636f6e7472616374206973206e6f74206960408201526a6e697469616c697a696e6760a81b606082015260800190565b60208082526032908201527f4552433732313a207472616e7366657220746f206e6f6e20455243373231526560408201527131b2b4bb32b91034b6b83632b6b2b73a32b960711b606082015260800190565b76020b1b1b2b9b9a1b7b73a3937b61d1030b1b1b7bab73a1604d1b8152600083516151f5816017850160208801614433565b7001034b99036b4b9b9b4b733903937b6329607d1b6017918401918201528351615226816028840160208801614433565b01602801949350505050565b8183823760009101908152919050565b60008251615254818460208701614433565b9190910192915050565b6001600160a01b03858116825284166020820152604081018390526080606082018190526000906133e39083018461445f565b6000602082840312156152a357600080fd5b8151610f9f81614400565b600082198211156152c1576152c1614f8f565b500190565b6000816152d5576152d5614f8f565b506000190190565b634e487b7160e01b600052603160045260246000fd5b634e487b7160e01b600052602160045260246000fd5b6020808252601c908201527f4552433732313a20746f6b656e20616c7265616479206d696e74656400000000604082015260600190565b60006020828403121561535257600080fd5b8151610f9f8161492b56fe8502233096d909befbda0999bb8ea2f3a6be3c138b9fbf003752a4c8bce86f6c6bd6b5318a46e5fff572d5e4258a20774aab40cc35ac7680654b9081fcc82f80416464726573733a206c6f772d6c6576656c2064656c65676174652063616c6c206661696c65649f2df0fed2c77648de5860a4cc508cd0818c85b8b8a1ab4ceeef8d981c8956a6ddf252ad1be2c89b69c2b068fc378daa952ba7f163c4a11628f55a4df523b3efa264697066735822122036da29fadde1b63187062f59ae9642d9c50c031fc1180e75fbb30880c13b1e2a64736f6c634300080b0033",
  "devdoc": {
    "errors": {
      "NFTMetadataFrozen(uint256)": [
        {
          "details": "the nft metadata is frozen"
        }
      ],
      "NFTMetadataInvalidUrl()": [
        {
          "details": "Invalid token metadata url"
        }
      ],
      "NFTMetadataUnauthorized()": [
        {
          "details": "The sender is not authorized to perform the action"
        }
      ]
    },
    "kind": "dev",
    "methods": {
      "approve(address,uint256)": {
        "details": "Override the approve function to check the whitelist"
      },
      "balanceOf(address)": {
        "details": "See {IERC721-balanceOf}."
      },
      "burn(uint256)": {
        "details": "Burns `tokenId`. See {ERC721-_burn}."
      },
      "contractType()": {
        "details": "Returns the module type of the contract."
      },
      "contractVersion()": {
        "details": "Returns the version of the contract."
      },
      "eip712Domain()": {
        "details": "See {EIP-5267}. _Available since v4.9._"
      },
      "getApproved(uint256)": {
        "details": "See {IERC721-getApproved}."
      },
      "getDefaultRoyaltyInfo()": {
        "details": "Returns the platform fee bps and recipient."
      },
      "getPlatformFeeInfo()": {
        "details": "Returns the platform fee bps and recipient."
      },
      "getRoleAdmin(bytes32)": {
        "details": "Returns the admin role that controls `role`. See {grantRole} and {revokeRole}. To change a role's admin, use {_setRoleAdmin}."
      },
      "getRoleMember(bytes32,uint256)": {
        "details": "Returns one of the accounts that have `role`. `index` must be a value between 0 and {getRoleMemberCount}, non-inclusive. Role bearers are not sorted in any particular way, and their ordering may change at any point. WARNING: When using {getRoleMember} and {getRoleMemberCount}, make sure you perform all queries on the same block. See the following https://forum.openzeppelin.com/t/iterating-over-elements-on-enumerableset-in-openzeppelin-contracts/2296[forum post] for more information."
      },
      "getRoleMemberCount(bytes32)": {
        "details": "Returns the number of accounts that have `role`. Can be used together with {getRoleMember} to enumerate all bearers of a role."
      },
      "getRoyaltyInfoForToken(uint256)": {
        "details": "Returns the royalty recipient for a particular token Id."
      },
      "grantRole(bytes32,address)": {
        "details": "Grants `role` to `account`. If `account` had not been already granted `role`, emits a {RoleGranted} event. Requirements: - the caller must have ``role``'s admin role. May emit a {RoleGranted} event."
      },
      "hasRole(bytes32,address)": {
        "details": "Returns `true` if `account` has been granted `role`."
      },
      "initialize(address,address,string,string,string,address[],address,address,uint128,uint128,address)": {
        "details": "Initializes the contract, like a constructor."
      },
      "isApprovedForAll(address,address)": {
        "details": "See {IERC721-isApprovedForAll}."
      },
      "mintTo(address,string,bool,address)": {
        "details": "Lets an account with MINTER_ROLE mint an NFT."
      },
      "mintWithSignature((address,address,uint256,address,string,uint256,address,uint128,uint128,bytes32,bool,address),bytes)": {
        "details": "Mints an NFT according to the provided mint request."
      },
      "multicall(bytes[])": {
        "details": "Receives and executes a batch of function calls on this contract.",
        "params": {
          "data": "The bytes data that makes up the batch of function calls to execute."
        },
        "returns": {
          "results": "The bytes data that makes up the result of the batch of function calls executed."
        }
      },
      "name()": {
        "details": "See {IERC721Metadata-name}."
      },
      "owner()": {
        "details": "Returns the address of the current owner."
      },
      "ownerOf(uint256)": {
        "details": "See {IERC721-ownerOf}."
      },
      "renounceRole(bytes32,address)": {
        "details": "Revokes `role` from the calling account. Roles are often managed via {grantRole} and {revokeRole}: this function's purpose is to provide a mechanism for accounts to lose their privileges if they are compromised (such as when a trusted device is misplaced). If the calling account had been revoked `role`, emits a {RoleRevoked} event. Requirements: - the caller must be `account`. May emit a {RoleRevoked} event."
      },
      "revokeRole(bytes32,address)": {
        "details": "Revokes `role` from `account`. If `account` had been granted `role`, emits a {RoleRevoked} event. Requirements: - the caller must have ``role``'s admin role. May emit a {RoleRevoked} event."
      },
      "royaltyInfo(uint256,uint256)": {
        "details": "See EIP-2981"
      },
      "safeTransferFrom(address,address,uint256)": {
        "details": "See {IERC721-safeTransferFrom}."
      },
      "safeTransferFrom(address,address,uint256,bytes)": {
        "details": "See {IERC721-safeTransferFrom}."
      },
      "setApprovalForAll(address,bool)": {
        "details": "See {IERC721-setApprovalForAll}."
      },
      "setContractURI(string)": {
        "details": "Lets a module admin set the URI for contract-level metadata."
      },
      "setDefaultRoyaltyInfo(address,uint256)": {
        "details": "Lets a module admin update the royalty bps and recipient."
      },
      "setOwner(address)": {
        "details": "Lets a module admin set a new owner for the contract. The new owner must be a module admin."
      },
      "setPlatformFeeInfo(address,uint256)": {
        "details": "Lets a module admin update the fees on primary sales."
      },
      "setPrimarySaleRecipient(address)": {
        "details": "Lets a module admin set the default recipient of all primary sales."
      },
      "setRoyaltyInfoForToken(uint256,address,uint256)": {
        "details": "Lets a module admin set the royalty recipient for a particular token Id."
      },
      "symbol()": {
        "details": "See {IERC721Metadata-symbol}."
      },
      "tokenByIndex(uint256)": {
        "details": "See {IERC721Enumerable-tokenByIndex}."
      },
      "tokenOfOwnerByIndex(address,uint256)": {
        "details": "See {IERC721Enumerable-tokenOfOwnerByIndex}."
      },
      "tokenURI(uint256)": {
        "details": "Returns the URI for a tokenId"
      },
      "totalSupply()": {
        "details": "See {IERC721Enumerable-totalSupply}."
      },
      "transferFrom(address,address,uint256)": {
        "details": "See {IERC721-transferFrom}."
      },
      "updateSecureField(address,bool)": {
        "details": "Updates the secure field of a token's SecurityInfo."
      },
      "verify((address,address,uint256,address,string,uint256,address,uint128,uint128,bytes32,bool,address),bytes)": {
        "details": "Verifies that a mint request is signed by an account holding MINTER_ROLE (at the time of the function call)."
      }
    },
    "stateVariables": {
      "MAX_BPS": {
        "details": "Max bps in the thirdweb system"
      },
      "METADATA_ROLE": {
        "details": "Only METADATA_ROLE holders can update NFT metadata."
      },
      "MINTER_ROLE": {
        "details": "Only MINTER_ROLE holders can sign off on `MintRequest`s."
      },
      "TRANSFER_ROLE": {
        "details": "Only TRANSFER_ROLE holders can have tokens transferred from or to them, during restricted transfers."
      },
      "_owner": {
        "details": "Owner of the contract (purpose: OpenSea compatibility, etc.)"
      },
      "contractURI": {
        "details": "Contract level metadata."
      },
      "minted": {
        "details": "Mapping from mint request UID => whether the mint request is processed."
      },
      "nextTokenIdToMint": {
        "details": "The token ID of the next token to mint."
      },
      "platformFeeBps": {
        "details": "The % of primary sales collected by the contract as fees."
      },
      "platformFeeRecipient": {
        "details": "The adress that receives all primary sales value."
      },
      "primarySaleRecipient": {
        "details": "The adress that receives all primary sales value."
      },
      "royaltyBps": {
        "details": "The percentage of royalty how much royalty in basis points."
      },
      "royaltyInfoForToken": {
        "details": "Token ID => royalty recipient and bps for token"
      },
      "royaltyRecipient": {
        "details": "The recipient of who gets the royalty."
      }
    },
    "version": 1
  },
  "userdoc": {
    "kind": "user",
    "methods": {
      "freezeMetadata()": {
        "notice": "Freezes the metadata URI for a given NFT."
      },
      "multicall(bytes[])": {
        "notice": "Receives and executes a batch of function calls on this contract."
      },
      "setTokenURI(uint256,string)": {
        "notice": "Sets the metadata URI for a given NFT."
      }
    },
    "version": 1
  },
  "storageLayout": {
    "storage": [
      {
        "astId": 2085,
        "contract": "@auditfortess/erc721-security/contracts/tokens/ERC721Security.sol:ERC721Security",
        "label": "_initialized",
        "offset": 0,
        "slot": "0",
        "type": "t_uint8"
      },
      {
        "astId": 2088,
        "contract": "@auditfortess/erc721-security/contracts/tokens/ERC721Security.sol:ERC721Security",
        "label": "_initializing",
        "offset": 1,
        "slot": "0",
        "type": "t_bool"
      },
      {
        "astId": 2262,
        "contract": "@auditfortess/erc721-security/contracts/tokens/ERC721Security.sol:ERC721Security",
        "label": "_status",
        "offset": 0,
        "slot": "1",
        "type": "t_uint256"
      },
      {
        "astId": 2331,
        "contract": "@auditfortess/erc721-security/contracts/tokens/ERC721Security.sol:ERC721Security",
        "label": "__gap",
        "offset": 0,
        "slot": "2",
        "type": "t_array(t_uint256)49_storage"
      },
      {
        "astId": 4847,
        "contract": "@auditfortess/erc721-security/contracts/tokens/ERC721Security.sol:ERC721Security",
        "label": "_hashedName",
        "offset": 0,
        "slot": "51",
        "type": "t_bytes32"
      },
      {
        "astId": 4850,
        "contract": "@auditfortess/erc721-security/contracts/tokens/ERC721Security.sol:ERC721Security",
        "label": "_hashedVersion",
        "offset": 0,
        "slot": "52",
        "type": "t_bytes32"
      },
      {
        "astId": 4852,
        "contract": "@auditfortess/erc721-security/contracts/tokens/ERC721Security.sol:ERC721Security",
        "label": "_name",
        "offset": 0,
        "slot": "53",
        "type": "t_string_storage"
      },
      {
        "astId": 4854,
        "contract": "@auditfortess/erc721-security/contracts/tokens/ERC721Security.sol:ERC721Security",
        "label": "_version",
        "offset": 0,
        "slot": "54",
        "type": "t_string_storage"
      },
      {
        "astId": 5112,
        "contract": "@auditfortess/erc721-security/contracts/tokens/ERC721Security.sol:ERC721Security",
        "label": "__gap",
        "offset": 0,
        "slot": "55",
        "type": "t_array(t_uint256)48_storage"
      },
      {
        "astId": 4232,
        "contract": "@auditfortess/erc721-security/contracts/tokens/ERC721Security.sol:ERC721Security",
        "label": "__gap",
        "offset": 0,
        "slot": "103",
        "type": "t_array(t_uint256)50_storage"
      },
      {
        "astId": 9739,
        "contract": "@auditfortess/erc721-security/contracts/tokens/ERC721Security.sol:ERC721Security",
        "label": "_trustedForwarder",
        "offset": 0,
        "slot": "153",
        "type": "t_mapping(t_address,t_bool)"
      },
      {
        "astId": 9847,
        "contract": "@auditfortess/erc721-security/contracts/tokens/ERC721Security.sol:ERC721Security",
        "label": "__gap",
        "offset": 0,
        "slot": "154",
        "type": "t_array(t_uint256)49_storage"
      },
      {
        "astId": 5160,
        "contract": "@auditfortess/erc721-security/contracts/tokens/ERC721Security.sol:ERC721Security",
        "label": "__gap",
        "offset": 0,
        "slot": "203",
        "type": "t_array(t_uint256)50_storage"
      },
      {
        "astId": 1628,
        "contract": "@auditfortess/erc721-security/contracts/tokens/ERC721Security.sol:ERC721Security",
        "label": "_roles",
        "offset": 0,
        "slot": "253",
        "type": "t_mapping(t_bytes32,t_struct(RoleData)1623_storage)"
      },
      {
        "astId": 1935,
        "contract": "@auditfortess/erc721-security/contracts/tokens/ERC721Security.sol:ERC721Security",
        "label": "__gap",
        "offset": 0,
        "slot": "254",
        "type": "t_array(t_uint256)49_storage"
      },
      {
        "astId": 1476,
        "contract": "@auditfortess/erc721-security/contracts/tokens/ERC721Security.sol:ERC721Security",
        "label": "_roleMembers",
        "offset": 0,
        "slot": "303",
        "type": "t_mapping(t_bytes32,t_struct(AddressSet)6470_storage)"
      },
      {
        "astId": 1598,
        "contract": "@auditfortess/erc721-security/contracts/tokens/ERC721Security.sol:ERC721Security",
        "label": "__gap",
        "offset": 0,
        "slot": "304",
        "type": "t_array(t_uint256)49_storage"
      },
      {
        "astId": 2362,
        "contract": "@auditfortess/erc721-security/contracts/tokens/ERC721Security.sol:ERC721Security",
        "label": "_name",
        "offset": 0,
        "slot": "353",
        "type": "t_string_storage"
      },
      {
        "astId": 2364,
        "contract": "@auditfortess/erc721-security/contracts/tokens/ERC721Security.sol:ERC721Security",
        "label": "_symbol",
        "offset": 0,
        "slot": "354",
        "type": "t_string_storage"
      },
      {
        "astId": 2368,
        "contract": "@auditfortess/erc721-security/contracts/tokens/ERC721Security.sol:ERC721Security",
        "label": "_owners",
        "offset": 0,
        "slot": "355",
        "type": "t_mapping(t_uint256,t_address)"
      },
      {
        "astId": 2372,
        "contract": "@auditfortess/erc721-security/contracts/tokens/ERC721Security.sol:ERC721Security",
        "label": "_balances",
        "offset": 0,
        "slot": "356",
        "type": "t_mapping(t_address,t_uint256)"
      },
      {
        "astId": 2376,
        "contract": "@auditfortess/erc721-security/contracts/tokens/ERC721Security.sol:ERC721Security",
        "label": "_tokenApprovals",
        "offset": 0,
        "slot": "357",
        "type": "t_mapping(t_uint256,t_address)"
      },
      {
        "astId": 2382,
        "contract": "@auditfortess/erc721-security/contracts/tokens/ERC721Security.sol:ERC721Security",
        "label": "_operatorApprovals",
        "offset": 0,
        "slot": "358",
        "type": "t_mapping(t_address,t_mapping(t_address,t_bool))"
      },
      {
        "astId": 3284,
        "contract": "@auditfortess/erc721-security/contracts/tokens/ERC721Security.sol:ERC721Security",
        "label": "__gap",
        "offset": 0,
        "slot": "359",
        "type": "t_array(t_uint256)44_storage"
      },
      {
        "astId": 3438,
        "contract": "@auditfortess/erc721-security/contracts/tokens/ERC721Security.sol:ERC721Security",
        "label": "_ownedTokens",
        "offset": 0,
        "slot": "403",
        "type": "t_mapping(t_address,t_mapping(t_uint256,t_uint256))"
      },
      {
        "astId": 3442,
        "contract": "@auditfortess/erc721-security/contracts/tokens/ERC721Security.sol:ERC721Security",
        "label": "_ownedTokensIndex",
        "offset": 0,
        "slot": "404",
        "type": "t_mapping(t_uint256,t_uint256)"
      },
      {
        "astId": 3445,
        "contract": "@auditfortess/erc721-security/contracts/tokens/ERC721Security.sol:ERC721Security",
        "label": "_allTokens",
        "offset": 0,
        "slot": "405",
        "type": "t_array(t_uint256)dyn_storage"
      },
      {
        "astId": 3449,
        "contract": "@auditfortess/erc721-security/contracts/tokens/ERC721Security.sol:ERC721Security",
        "label": "_allTokensIndex",
        "offset": 0,
        "slot": "406",
        "type": "t_mapping(t_uint256,t_uint256)"
      },
      {
        "astId": 3793,
        "contract": "@auditfortess/erc721-security/contracts/tokens/ERC721Security.sol:ERC721Security",
        "label": "__gap",
        "offset": 0,
        "slot": "407",
        "type": "t_array(t_uint256)46_storage"
      },
      {
        "astId": 9432,
        "contract": "@auditfortess/erc721-security/contracts/tokens/ERC721Security.sol:ERC721Security",
        "label": "uriFrozen",
        "offset": 0,
        "slot": "453",
        "type": "t_bool"
      },
      {
        "astId": 9436,
        "contract": "@auditfortess/erc721-security/contracts/tokens/ERC721Security.sol:ERC721Security",
        "label": "_tokenURI",
        "offset": 0,
        "slot": "454",
        "type": "t_mapping(t_uint256,t_string_storage)"
      },
      {
        "astId": 207,
        "contract": "@auditfortess/erc721-security/contracts/tokens/ERC721Security.sol:ERC721Security",
        "label": "contracts",
        "offset": 0,
        "slot": "455",
        "type": "t_mapping(t_address,t_struct(SecurityInfo)202_storage)"
      },
      {
        "astId": 246,
        "contract": "@auditfortess/erc721-security/contracts/tokens/ERC721Security.sol:ERC721Security",
        "label": "_owner",
        "offset": 0,
        "slot": "456",
        "type": "t_address"
      },
      {
        "astId": 249,
        "contract": "@auditfortess/erc721-security/contracts/tokens/ERC721Security.sol:ERC721Security",
        "label": "nextTokenIdToMint",
        "offset": 0,
        "slot": "457",
        "type": "t_uint256"
      },
      {
        "astId": 252,
        "contract": "@auditfortess/erc721-security/contracts/tokens/ERC721Security.sol:ERC721Security",
        "label": "primarySaleRecipient",
        "offset": 0,
        "slot": "458",
        "type": "t_address"
      },
      {
        "astId": 255,
        "contract": "@auditfortess/erc721-security/contracts/tokens/ERC721Security.sol:ERC721Security",
        "label": "platformFeeRecipient",
        "offset": 0,
        "slot": "459",
        "type": "t_address"
      },
      {
        "astId": 258,
        "contract": "@auditfortess/erc721-security/contracts/tokens/ERC721Security.sol:ERC721Security",
        "label": "royaltyRecipient",
        "offset": 0,
        "slot": "460",
        "type": "t_address"
      },
      {
        "astId": 261,
        "contract": "@auditfortess/erc721-security/contracts/tokens/ERC721Security.sol:ERC721Security",
        "label": "royaltyBps",
        "offset": 0,
        "slot": "461",
        "type": "t_uint128"
      },
      {
        "astId": 264,
        "contract": "@auditfortess/erc721-security/contracts/tokens/ERC721Security.sol:ERC721Security",
        "label": "platformFeeBps",
        "offset": 16,
        "slot": "461",
        "type": "t_uint128"
      },
      {
        "astId": 267,
        "contract": "@auditfortess/erc721-security/contracts/tokens/ERC721Security.sol:ERC721Security",
        "label": "contractURI",
        "offset": 0,
        "slot": "462",
        "type": "t_string_storage"
      },
      {
        "astId": 272,
        "contract": "@auditfortess/erc721-security/contracts/tokens/ERC721Security.sol:ERC721Security",
        "label": "minted",
        "offset": 0,
        "slot": "463",
        "type": "t_mapping(t_bytes32,t_bool)"
      },
      {
        "astId": 278,
        "contract": "@auditfortess/erc721-security/contracts/tokens/ERC721Security.sol:ERC721Security",
        "label": "royaltyInfoForToken",
        "offset": 0,
        "slot": "464",
        "type": "t_mapping(t_uint256,t_struct(RoyaltyInfo)9673_storage)"
      }
    ],
    "types": {
      "t_address": {
        "encoding": "inplace",
        "label": "address",
        "numberOfBytes": "20"
      },
      "t_array(t_bytes32)dyn_storage": {
        "base": "t_bytes32",
        "encoding": "dynamic_array",
        "label": "bytes32[]",
        "numberOfBytes": "32"
      },
      "t_array(t_uint256)44_storage": {
        "base": "t_uint256",
        "encoding": "inplace",
        "label": "uint256[44]",
        "numberOfBytes": "1408"
      },
      "t_array(t_uint256)46_storage": {
        "base": "t_uint256",
        "encoding": "inplace",
        "label": "uint256[46]",
        "numberOfBytes": "1472"
      },
      "t_array(t_uint256)48_storage": {
        "base": "t_uint256",
        "encoding": "inplace",
        "label": "uint256[48]",
        "numberOfBytes": "1536"
      },
      "t_array(t_uint256)49_storage": {
        "base": "t_uint256",
        "encoding": "inplace",
        "label": "uint256[49]",
        "numberOfBytes": "1568"
      },
      "t_array(t_uint256)50_storage": {
        "base": "t_uint256",
        "encoding": "inplace",
        "label": "uint256[50]",
        "numberOfBytes": "1600"
      },
      "t_array(t_uint256)dyn_storage": {
        "base": "t_uint256",
        "encoding": "dynamic_array",
        "label": "uint256[]",
        "numberOfBytes": "32"
      },
      "t_bool": {
        "encoding": "inplace",
        "label": "bool",
        "numberOfBytes": "1"
      },
      "t_bytes32": {
        "encoding": "inplace",
        "label": "bytes32",
        "numberOfBytes": "32"
      },
      "t_mapping(t_address,t_bool)": {
        "encoding": "mapping",
        "key": "t_address",
        "label": "mapping(address => bool)",
        "numberOfBytes": "32",
        "value": "t_bool"
      },
      "t_mapping(t_address,t_mapping(t_address,t_bool))": {
        "encoding": "mapping",
        "key": "t_address",
        "label": "mapping(address => mapping(address => bool))",
        "numberOfBytes": "32",
        "value": "t_mapping(t_address,t_bool)"
      },
      "t_mapping(t_address,t_mapping(t_uint256,t_uint256))": {
        "encoding": "mapping",
        "key": "t_address",
        "label": "mapping(address => mapping(uint256 => uint256))",
        "numberOfBytes": "32",
        "value": "t_mapping(t_uint256,t_uint256)"
      },
      "t_mapping(t_address,t_struct(SecurityInfo)202_storage)": {
        "encoding": "mapping",
        "key": "t_address",
        "label": "mapping(address => struct ERC721Security.SecurityInfo)",
        "numberOfBytes": "32",
        "value": "t_struct(SecurityInfo)202_storage"
      },
      "t_mapping(t_address,t_uint256)": {
        "encoding": "mapping",
        "key": "t_address",
        "label": "mapping(address => uint256)",
        "numberOfBytes": "32",
        "value": "t_uint256"
      },
      "t_mapping(t_bytes32,t_bool)": {
        "encoding": "mapping",
        "key": "t_bytes32",
        "label": "mapping(bytes32 => bool)",
        "numberOfBytes": "32",
        "value": "t_bool"
      },
      "t_mapping(t_bytes32,t_struct(AddressSet)6470_storage)": {
        "encoding": "mapping",
        "key": "t_bytes32",
        "label": "mapping(bytes32 => struct EnumerableSetUpgradeable.AddressSet)",
        "numberOfBytes": "32",
        "value": "t_struct(AddressSet)6470_storage"
      },
      "t_mapping(t_bytes32,t_struct(RoleData)1623_storage)": {
        "encoding": "mapping",
        "key": "t_bytes32",
        "label": "mapping(bytes32 => struct AccessControlUpgradeable.RoleData)",
        "numberOfBytes": "32",
        "value": "t_struct(RoleData)1623_storage"
      },
      "t_mapping(t_bytes32,t_uint256)": {
        "encoding": "mapping",
        "key": "t_bytes32",
        "label": "mapping(bytes32 => uint256)",
        "numberOfBytes": "32",
        "value": "t_uint256"
      },
      "t_mapping(t_uint256,t_address)": {
        "encoding": "mapping",
        "key": "t_uint256",
        "label": "mapping(uint256 => address)",
        "numberOfBytes": "32",
        "value": "t_address"
      },
      "t_mapping(t_uint256,t_string_storage)": {
        "encoding": "mapping",
        "key": "t_uint256",
        "label": "mapping(uint256 => string)",
        "numberOfBytes": "32",
        "value": "t_string_storage"
      },
      "t_mapping(t_uint256,t_struct(RoyaltyInfo)9673_storage)": {
        "encoding": "mapping",
        "key": "t_uint256",
        "label": "mapping(uint256 => struct IRoyalty.RoyaltyInfo)",
        "numberOfBytes": "32",
        "value": "t_struct(RoyaltyInfo)9673_storage"
      },
      "t_mapping(t_uint256,t_uint256)": {
        "encoding": "mapping",
        "key": "t_uint256",
        "label": "mapping(uint256 => uint256)",
        "numberOfBytes": "32",
        "value": "t_uint256"
      },
      "t_string_storage": {
        "encoding": "bytes",
        "label": "string",
        "numberOfBytes": "32"
      },
      "t_struct(AddressSet)6470_storage": {
        "encoding": "inplace",
        "label": "struct EnumerableSetUpgradeable.AddressSet",
        "members": [
          {
            "astId": 6469,
            "contract": "@auditfortess/erc721-security/contracts/tokens/ERC721Security.sol:ERC721Security",
            "label": "_inner",
            "offset": 0,
            "slot": "0",
            "type": "t_struct(Set)6155_storage"
          }
        ],
        "numberOfBytes": "64"
      },
      "t_struct(RoleData)1623_storage": {
        "encoding": "inplace",
        "label": "struct AccessControlUpgradeable.RoleData",
        "members": [
          {
            "astId": 1620,
            "contract": "@auditfortess/erc721-security/contracts/tokens/ERC721Security.sol:ERC721Security",
            "label": "members",
            "offset": 0,
            "slot": "0",
            "type": "t_mapping(t_address,t_bool)"
          },
          {
            "astId": 1622,
            "contract": "@auditfortess/erc721-security/contracts/tokens/ERC721Security.sol:ERC721Security",
            "label": "adminRole",
            "offset": 0,
            "slot": "1",
            "type": "t_bytes32"
          }
        ],
        "numberOfBytes": "64"
      },
      "t_struct(RoyaltyInfo)9673_storage": {
        "encoding": "inplace",
        "label": "struct IRoyalty.RoyaltyInfo",
        "members": [
          {
            "astId": 9670,
            "contract": "@auditfortess/erc721-security/contracts/tokens/ERC721Security.sol:ERC721Security",
            "label": "recipient",
            "offset": 0,
            "slot": "0",
            "type": "t_address"
          },
          {
            "astId": 9672,
            "contract": "@auditfortess/erc721-security/contracts/tokens/ERC721Security.sol:ERC721Security",
            "label": "bps",
            "offset": 0,
            "slot": "1",
            "type": "t_uint256"
          }
        ],
        "numberOfBytes": "64"
      },
      "t_struct(SecurityInfo)202_storage": {
        "encoding": "inplace",
        "label": "struct ERC721Security.SecurityInfo",
        "members": [
          {
            "astId": 193,
            "contract": "@auditfortess/erc721-security/contracts/tokens/ERC721Security.sol:ERC721Security",
            "label": "uri",
            "offset": 0,
            "slot": "0",
            "type": "t_string_storage"
          },
          {
            "astId": 195,
            "contract": "@auditfortess/erc721-security/contracts/tokens/ERC721Security.sol:ERC721Security",
            "label": "hashBytecode",
            "offset": 0,
            "slot": "1",
            "type": "t_uint256"
          },
          {
            "astId": 197,
            "contract": "@auditfortess/erc721-security/contracts/tokens/ERC721Security.sol:ERC721Security",
            "label": "hashInitData",
            "offset": 0,
            "slot": "2",
            "type": "t_uint256"
          },
          {
            "astId": 199,
            "contract": "@auditfortess/erc721-security/contracts/tokens/ERC721Security.sol:ERC721Security",
            "label": "secure",
            "offset": 0,
            "slot": "3",
            "type": "t_bool"
          },
          {
            "astId": 201,
            "contract": "@auditfortess/erc721-security/contracts/tokens/ERC721Security.sol:ERC721Security",
            "label": "contractAddress",
            "offset": 1,
            "slot": "3",
            "type": "t_address"
          }
        ],
        "numberOfBytes": "128"
      },
      "t_struct(Set)6155_storage": {
        "encoding": "inplace",
        "label": "struct EnumerableSetUpgradeable.Set",
        "members": [
          {
            "astId": 6150,
            "contract": "@auditfortess/erc721-security/contracts/tokens/ERC721Security.sol:ERC721Security",
            "label": "_values",
            "offset": 0,
            "slot": "0",
            "type": "t_array(t_bytes32)dyn_storage"
          },
          {
            "astId": 6154,
            "contract": "@auditfortess/erc721-security/contracts/tokens/ERC721Security.sol:ERC721Security",
            "label": "_indexes",
            "offset": 0,
            "slot": "1",
            "type": "t_mapping(t_bytes32,t_uint256)"
          }
        ],
        "numberOfBytes": "64"
      },
      "t_uint128": {
        "encoding": "inplace",
        "label": "uint128",
        "numberOfBytes": "16"
      },
      "t_uint256": {
        "encoding": "inplace",
        "label": "uint256",
        "numberOfBytes": "32"
      },
      "t_uint8": {
        "encoding": "inplace",
        "label": "uint8",
        "numberOfBytes": "1"
      }
    }
  }
}